:020000040800F2
:10000000F0080220050300087F120008771200089C
:100010007B12000845070008F11D000800000000E1
:100020000000000000000000000000004D02000879
:100030009711000800000000A1020008F115000857
:1000400029030008290300082903000829030008E0
:1000500029030008290300082903000829030008D0
:1000600029030008290300082903000829030008C0
:1000700029030008290300082903000829030008B0
:1000800029030008290300082903000829030008A0
:10009000490700082903000829030008290300086C
:1000A0002903000829030008290300082903000880
:1000B000290300086916000829030008290300081D
:1000C0002903000829030008290300082903000860
:1000D0002903000829030008290300082903000850
:1000E0002903000829030008290300082903000840
:1000F0002903000829030008290300082903000830
:10010000290300082903000829030008290300081F
:10011000290300082903000899160008290300088C
:1001200029030008290300082903000829030008FF
:1001300029030008290300082903000829030008EF
:10014000890800082903000829030008290300087A
:1001500029030008290300082903000829030008CF
:1001600029030008290300082903000829030008BF
:1001700029030008290300082903000800000000E3
:10018000290300082903000829030008290300089F
:10019000290300082903000829030008290300088F
:1001A00000000000000000002903000800F002F831
:1001B00000F03CF80AA090E8000C82448344AAF1C5
:1001C0000107DA4501D100F031F8AFF2090EBAE8C3
:1001D0000F0013F0010F18BFFB1A43F0010318477B
:1001E000B03F0000D03F0000103A24BF78C878C16B
:1001F000FAD8520724BF30C830C144BF04680C602D
:10020000704700000023002400250026103A28BF74
:1002100078C1FBD8520728BF30C148BF0B60704778
:100220001FB503F0AFFF1FBD10B510BD00F060F9A2
:100230001146FFF7F5FF01F091FF00F07EF903B4DE
:10024000FFF7F2FF03BC00F081F900002A4B1968A8
:100250000868B0E8F04F80F30988BFF36F8F4FF064
:10026000000080F311887047000000000648006815
:10027000006880F3088862B661B6BFF34F8FBFF3A2
:100280006F8F00DF00BF00BF08ED00E0DFF80C005B
:10029000016841F470010160704700BF88ED00E023
:1002A000EFF30980BFF36F8F134B1A681EF0100F26
:1002B00008BF20ED108A20E9F04F106008B44FF01D
:1002C000500080F31188BFF34F8FBFF36F8F03F09F
:1002D000CBF84FF0000080F3118808BC196808685B
:1002E000B0E8F04F1EF0100F08BFB0EC108A80F39A
:1002F0000988BFF36F8F704724000020EFF305805B
:10030000704700000C48016841F4700101600B481F
:1003100080470B480047FEE7FEE7FEE7FEE7FEE703
:10032000FEE7FEE7FEE7FEE7FEE7000005480649B8
:10033000044A064B7047000088ED00E001160008F3
:10034000AD010008F0040220F0080220F0040220B1
:10035000032A40F2308010F0030C00F0158011F8F1
:10036000013BBCF1020F624498BF11F801CB00F8C9
:10037000013B38BF11F8013BA2F1040298BF00F81D
:1003800001CB38BF00F8013B11F0030300F03080CF
:10039000083AC0F0088051F8043B083A51F804CB01
:1003A000A0E80810F5E7121D5CBF51F8043B40F8C7
:1003B000043BAFF30080D20724BF11F8013B11F8D2
:1003C00001CB48BF11F8012B24BF00F8013B00F816
:1003D00001CB48BF00F8012B704702F0FF0343EA4E
:1003E000032242EA024200F037B870477047704774
:1003F00010B5203AC0F00B80B1E81850203AA0E8C0
:100400001850B1E81850A0E81850BFF4F5AF5FEAF3
:10041000027C24BFB1E81850A0E8185044BF18C9A6
:1004200018C0BDE810405FEA827C24BF51F8043B4D
:1004300040F8043B08BF7047D20728BF31F8023BA1
:1004400048BF11F8012B28BF20F8023B48BF00F835
:10045000012B70474FF000020429C0F0128010F009
:10046000030C00F01B80CCF1040CBCF1020F18BF90
:1004700000F8012BA8BF20F8022BA1EB0C0100F023
:100480000DB85FEAC17C24BF00F8012B00F8012BF6
:1004900048BF00F8012B70474FF0000200B513462B
:1004A00094469646203922BFA0E80C50A0E80C5094
:1004B000B1F12001BFF4F7AF090728BFA0E80C5045
:1004C00048BF0CC05DF804EB890028BF40F8042B3E
:1004D00008BF704748BF20F8022B11F0804F18BFAB
:1004E00000F8012B7047000000487047900402207C
:1004F0007546FFF7F9FFAE4605006946534620F002
:100500000700854618B020B5FFF710FFBDE8204072
:100510004FF000064FF000074FF000084FF0000BBF
:1005200021F00701AC46ACE8C009ACE8C009ACE872
:10053000C009ACE8C0098D46704710B50446AFF35A
:1005400000802046BDE81040FFF779BE0149182021
:10055000ABBEFEE726000200704721B1826842F080
:100560000102826003E0826822F00102826070472B
:100570000021084A1168084A1140D0E900231A43B3
:1005800083681A43C3681A431143044AC2F8041328
:100590007047000004230140E030FCFF00200140D0
:1005A00030B50246002000235068104C20400D79E1
:1005B0000C6844EA05242043506090680C4C2040AD
:1005C000D1E903542C438D682C434D7944EA45040A
:1005D00020439060D06A20F470000C7D641EE4B269
:1005E000234340EA0350D06230BD0000FFFEFFFC11
:1005F000FDF7FFC0F0B504460D4600200021092D8F
:1006000011DDE068A5F10A0606EB4607072606FAA3
:1006100007F18843A5F10A0606EB460603FA06F140
:100620000843E0600CE0206905EB4507072606FA61
:1006300007F1884305EB450603FA06F108432061FC
:10064000072A0FDA606B561E06EB86071F2606FA8E
:1006500007F18843561E06EB860605FA06F10843A5
:10066000606322E00D2A0FDA206BD61F06EB8607A7
:100670001F2606FA07F18843D61F06EB860605FA01
:1006800006F10843206310E0E06AA2F10D0606EBD4
:1006900086071F2606FA07F18843A2F10D0606EB2E
:1006A000860605FA06F10843E062F0BD38B1084954
:1006B000096841F40001074AC2F8041306E004493E
:1006C000096821F40001034AC2F8041370470000CE
:1006D000042301400020014038B54FF4407000F081
:1006E0000BFE4FF47A7001F085FB01F0EDFC02F097
:1006F000ADFB01F03FFD01F00FFC01F0BDFC5A2104
:100700004EF6602000F0DAFF002005231A46012192
:10071000009000F031F8002005231A4601210090D6
:1007200000F0CAF801F0EAF9002408E0204601F0E0
:1007300055FD40F2C52001F0BBFB601CC4B2042C87
:10074000F4DB38BD00BFFEE710B50221084800F019
:100750003BFA58B10221064800F05EF9054A002133
:10076000034800F054FB034800F05CFC10BD00009F
:1007700000640040680402202DE9F0418AB004467C
:100780000D4616461F46DDF840800121082000F086
:10079000BDFD0121480600F0C9FD0121480600F019
:1007A000D5FD00214FF0007000F0D0FD032008902F
:1007B00002208DF8240000208DF8260003208DF8FB
:1007C000250001208DF8270008A92D4800F0E4FC41
:1007D000092200212A4800F027FD0922012128488A
:1007E00000F022FD00208DF81A0001208DF81B007A
:1007F00000208DF81C008DF81D008DF81E008DF86E
:100800001F008DF816808DF817408DF818608DF850
:100810001950ADF8147005A91A4800F06EFA0020BE
:100820008DF80E008DF80F0001208DF810000020CB
:10083000ADF80400ADF80600ADF80800ADF80A0008
:10084000ADF80C0001208DF8110001A800F038F976
:10085000012202210B4800F047FA14208DF8000015
:1008600004208DF8010000208DF8020001208DF891
:100870000300684600F004FD00200AB0BDE8F081E6
:10088000000C02400064004010B50221084800F04E
:100890009BF958B10221064800F0BEF8054A002134
:1008A000034800F0B4FA034800F0BCFB10BD0000A0
:1008B000006800407C0402202DE9F0418AB0044623
:1008C0000D4616461F46DDF840800121022000F04B
:1008D0001DFD0121880600F029FD0121880600F098
:1008E00035FD00214FF0806000F030FD4FF44050A6
:1008F000089002208DF8240000208DF826000320A7
:100900008DF8250001208DF8270008A92D4800F05A
:1009100043FC09220C212B4800F086FC09220D2102
:10092000284800F081FC00208DF81A0001208DF885
:100930001B0000208DF81C008DF81D008DF81E0096
:100940008DF81F008DF816808DF817408DF818600F
:100950008DF81950ADF8147005A91B4800F0CDF9B9
:100960000E208DF80E0000208DF80F0001208DF86C
:1009700010000020ADF80400ADF80600ADF8080046
:10098000ADF80A00ADF80C0001208DF8110001A8A7
:1009900000F096F8012202210B4800F0A5F9402052
:1009A0008DF8000004208DF8010000208DF8020071
:1009B00001208DF80300684600F062FC00200AB0B8
:1009C000BDE8F08100040240006800402DE9F041DC
:1009D00004460D4616461F4640F2FF100C490860BB
:1009E00000200872487208208872200AC8720846DF
:1009F0000473290A41738573310AC1730674390A75
:100A0000417487740146034800F079FABDE8F0812B
:100A10005404022000640040B1F5007F3AD00FDC9E
:100A2000202928D006DC01291CD004291DD0082942
:100A300040D11DE0402921D0B1F5807F3AD126E098
:100A4000B1F5004F31D006DCB1F5806F25D0B1F59E
:100A5000006F2FD124E0B1F5803F12D0B1F5003FF7
:100A600028D111E0154A826025E00822C26022E008
:100A70001022C2601FE0082202611CE01022026105
:100A800019E00822426016E01022426013E00422BE
:100A9000426010E0042242600DE0042242600AE05D
:100AA000002282610422426005E000228261042269
:100AB000426000E000BF00BF70470000010101007C
:100AC00010B50021837A012202FA03F13D4A12682F
:100AD00042F001023B4B1A603A4A1C3212688A43C8
:100AE000384B1C331A60027BCAB9364A0C32126882
:100AF0008A43344B0C331A604288C38842EA03436A
:100B0000304A4032847A42F834300288838842EA9C
:100B100003432C4A4032847A02EBC4025360027BC6
:100B2000012A19D1274A0C3212680A43254B0C338B
:100B30001A604288038842EA0343224A4032847A98
:100B400042F83430C288838842EA03431D4A403267
:100B5000847A02EBC4025360C27A3AB9194A121D70
:100B600012688A43174B1B1D1A6006E0154A121DB6
:100B700012680A43134B1B1D1A60028932B9114ACD
:100B8000143212688A430F4B14331A600289012A07
:100B900006D10C4A143212680A430A4B14331A6005
:100BA000427B012A06D1074A1C3212680A43054BD0
:100BB0001C331A60034A126822F00102014B1A60CA
:100BC00010BD00000066004070B504460D460026CA
:100BD00060692840002871D0B5F5807F5CD010DCBA
:100BE000082D35D006DC012D20D0022D24D0042D77
:100BF00072D127E0102D31D0202D35D0402D6BD172
:100C000038E0B5F5004F60D009DCB5F5007F49D07C
:100C1000B5F5806F4CD0B5F5006F5DD14FE0B5F5FF
:100C2000803F2DD0B5F5003F56D12FE0A0682D496B
:100C300000F0A8FA064651E0E068032100F0A2FAAD
:100C400006464BE0E068082100F09CFA064645E0C5
:100C5000E068102100F096FA06463FE02069032183
:100C600000F090FA064639E02069082100F08AFA7F
:100C7000064633E02069102100F084FA06462DE094
:100C80006068082100F07EFA064627E060681021BF
:100C900000F078FA064621E0A069012100F072FA1E
:100CA00006461BE0A069022100F06CFA064615E03A
:100CB000A069042100F066FA06460FE00FE0A06983
:100CC000702100F05FFA064608E06068042100F039
:100CD00059FA064602E0FFE7002600BF00E00026C2
:100CE000304670BD010101001AB143690B434361F5
:100CF00002E043698B434361704730B502460020F0
:100D00000023146824F002041460146844F0010401
:100D1000146000E05B1C546804F001041CB94FF639
:100D2000FF74A342F6D1546804F001040CB900200A
:100D30006CE08C79012C04D1146844F080041460B8
:100D400003E0146824F080041460CC79012C04D1F1
:100D5000146844F04004146003E0146824F0400474
:100D600014600C7A012C04D1146844F0200414603F
:100D700003E0146824F0200414604C7A012C04D1A0
:100D8000146844F01004146003E0146824F01004A4
:100D900014608C7A012C04D1146844F008041460A7
:100DA00003E0146824F008041460CC7A012C04D108
:100DB000146844F00404146003E0146824F004048C
:100DC00014608C78A407CD7844EA05640D7944EA70
:100DD00005444D7944EA05540D886D1E2C43D461B9
:100DE000146824F001041460002300E05B1C5468C4
:100DF00004F001041CB14FF6FF74A342F6D154680D
:100E000004F001040CB1002000E0012030BD10B559
:100E100000F5D87303EB01131B6803F0040313728E
:100E2000137A53B900F5D87303EB01131B6840F232
:100E3000FF7404EA5353136009E000F5D87303EB21
:100E400001131B686FF0604404EAD303536000F59C
:100E5000D87303EB01131B6803F00203537200F510
:100E6000D87303EB01135B6803F00F03937200F573
:100E7000D87303EB01135B681B0AD37400F5D873B6
:100E800003EB01139B68D37200F5D87303EB0113D6
:100E90009B681C0A147300F5D87303EB01139B685D
:100EA0001C0C547300F5D87303EB01139B681B0EE5
:100EB000937300F5D87303EB0113DB68D37300F56C
:100EC000D87303EB0113DB681C0A147400F5D873A4
:100ED00003EB0113DB681C0C547400F5D87303EBAF
:100EE0000113DB681B0E937421B9C36843F0200320
:100EF000C36003E0036943F02003036110BD10B534
:100F000002460020936803F08063B3F1806F00D144
:100F100010E0936803F00063B3F1006F01D101208A
:100F200008E0936803F08053B3F1805F01D10220A1
:100F300000E00420042874D002F5C07303EB001312
:100F40001B6803F0010402F5C07303EB00131C607F
:100F50000B7A7BB94B7A0C8843EA445302F5C07490
:100F600004EB00142468234302F5C07404EB00145E
:100F7000236010E00B7A4C6843EAC4034C7A2343A5
:100F800002F5C07404EB00142468234302F5C07416
:100F900004EB001423608B7A03F00F038B7202F5CD
:100FA000C07303EB00135B6823F00F0402F5C073FA
:100FB00003EB00135C6002F5C07303EB00135B6886
:100FC0008C7A234302F5C07404EB001463608B7BBE
:100FD0001C064B7B44EA03440B7B44EA0323CC7A94
:100FE000234302F5C07404EB0014A3608B7C1C0641
:100FF0004B7C44EA03440B7C44EA0323CC7B23432D
:1010000002F5C07404EB0014E36002F5C07303EB57
:1010100000131B6843F0010402F5C07303EB0013D7
:101020001C6010BD0168A1F2012107297DD2DFE813
:1010300001F058595A5B04203C004D49098809B217
:101040004B4A1181017BC27A41EA0221484A118050
:10105000827B417B42EA012109B2454A9180027CB0
:10106000C17B42EA012109B2414A5180417C917120
:101070007CE04049098809B23E4A1181017BC27A6D
:1010800041EA02213B4A1180827B417B42EA0121F5
:1010900009B2384A9180027CC17B42EA012109B23F
:1010A000344A5180417C917160E03349098809B22A
:1010B000314A1181017BC27A41EA02212E4A118014
:1010C000827B417B42EA012109B22B4A5180027C9A
:1010D000C17B42EA012109B2274A9180417C91718A
:1010E00044E000BF00BF00BF0178491E234A1170D1
:1010F0001146097801EB8101214A32F8111009B239
:101100001E4A127802EB82021D4B03EB4202118150
:10111000017BC27A41EA0221184A127802EB82026C
:1011200023F81210827B417B00E01EE042EA01219D
:1011300009B2124A127802EB820203EB420251809A
:10114000027CC17B42EA012109B20C4A127802EB0F
:10115000820203EB42029180417C084A127802EB42
:10116000820203EB4202917100E000BF00BF7047B2
:10117000040402200E04022018040220A000002013
:101180002C0402200246002002EA01030BB10120D8
:1011900000E0002070477047F0B50A4600210023A8
:1011A000002400BF3DE0012505FA01F3156805EABA
:1011B00003049C4234D105684F000326BE40B5436A
:1011C000056015794E00B540066835430560157910
:1011D000012D02D01579022D16D185684F00032606
:1011E000BE40B543856055794E00B54086683543AD
:1011F0008560456801268E40B5434560456896790F
:101200008E40B6B235434560C5684F000326BE40E8
:10121000B543C560D5794E00B540C6683543C56055
:10122000491C1029BFD3F0BDF0B5002300244D07A1
:10123000ED0E02FA05F3CE1000F1200555F8265008
:101240004E07F70E0F26BE40B543CF1000F1200623
:1012500046F82750CE1000F1200555F8265045EAF3
:101260000304CE1000F1200545F82640F0BD41836F
:1012700070470183704700BFFEE700BFFEE770477D
:1012800070B5002100230F22C4781CB3174C2468CA
:1012900004F4E064C4F5E064C4F30721C1F104047C
:1012A000E3B20A4144789C40E1B28478144021437F
:1012B0000C07210E0E4C05786155047804F01F05CB
:1012C0000124AC4005786D11AD0005F1E025C5F8AD
:1012D000004109E0047804F01F050124AC40054DED
:1012E0000678761145F8264070BD00000CED00E050
:1012F00000E400E080E100E002490143024A11609D
:10130000704700000000FA050CED00E029B1064A24
:1013100012680243044B1A6004E0034A12688243D5
:10132000014B1A60704700003038024029B1064A6C
:1013300012680243044B1A6004E0034A12688243B5
:10134000014B1A60704700004038024029B1064A3C
:1013500012680243044B1A6004E0034A1268824395
:10136000014B1A60704700002038024029B1064A3C
:1013700012680243044B1A6004E0034A1268824375
:10138000014B1A60704700004438024029B1064AF8
:1013900012680243044B1A6004E0034A1268824355
:1013A000014B1A607047000024380240F0B500215C
:1013B00000220024022500260223324F3F6807F056
:1013C0000C0121B1042905D0082937D105E02E4FA1
:1013D000076036E02D4F076033E02A4F3F1F3F681C
:1013E000C7F38056274F3F1F3F6807F03F036EB19A
:1013F000264FB7FBF3F7DFF88CC0ACF1040CDCF838
:1014000000C0CCF3881C07FB0CF40CE01E4FB7FBAC
:10141000F3F7DFF870C0ACF1040CDCF800C0CCF3DB
:10142000881C07FB0CF4174F3F1F3F68C7F30147A9
:101430007F1C7D00B4FBF5F7076002E0124F0760E8
:1014400000BF00BF0F4F3F6807F0F0010909104FC0
:101450007A5C0768D74047600A4F3F6807F4E0515D
:10146000890A0B4F7A5C4768D7408760054F3F6811
:1014700007F46041490B064F7A5C4768D740C76064
:10148000F0BD0000083802400024F400001BB70043
:101490001400002010B50446A1B2024800F0A4FCDC
:1014A00010BD0000001401400CB500200190009018
:1014B0004148006840F480303F49086000BF3E4822
:1014C000006800F4003000900198401C01900098E2
:1014D00018B90198B0F5A04FF1D13748006800F471
:1014E000003010B10120009001E000200090009831
:1014F000012860D130484030006840F080502E49CB
:10150000403108602D48006840F440402B49086095
:1015100029480830006828490831086008460068F2
:1015200040F4004008600846006840F4A05008609D
:101530002348091F0860081F006840F08070091FD9
:10154000086000BF1C48006800F000700028F9D057
:101550001A48006840F480301849086000BF1748F6
:10156000406800F480300028F9D01448006840F446
:1015700000301249086000BF1048406800F4003095
:101580000028F9D040F205700E4908600A4808307A
:10159000006820F003000849083108600846006828
:1015A00040F00200086000BF03480830006800F007
:1015B0000C000828F8D10CBD003802400070004033
:1015C000062D4008003C0240042808D14FF0E021DD
:1015D000096941F004014FF0E022116107E04FF08A
:1015E000E021096921F004014FF0E0221161704708
:1015F00010B502F06FFB012801D002F019F810BD00
:1016000010B51548006840F470001349086013488D
:10161000006840F001001149086000200F490831BE
:1016200008600E4800680E4908400C4908600D48E3
:10163000091D0860081F006820F48020091F086049
:10164000002006490C310860FFF72EFF4FF00060C4
:1016500001498039086010BD88ED00E00038024083
:10166000FFFFF6FE1030002410B50121084800F0FD
:1016700053F960B10121064800F068F80548026896
:101680004068521C40F1000002490A60486010BDE9
:1016900000040040A800002010B50121064800F019
:1016A0003BF938B10121044800F050F8002102480C
:1016B00000F04FF810BD0000001000407FB5054657
:1016C0000C4601211020FFF731FE01211020FFF709
:1016D0003DFE00211020FFF739FE154800F054F8B8
:1016E000681E0290601E80B2ADF804000020ADF8C4
:1016F0000600ADF80C0001A90D4800F0BDF901226B
:1017000011460B4800F019F936208DF8000004202E
:101710008DF8010000208DF8020001208DF80300F3
:101720006846FFF7ADFD0121014800F012F87FBDCA
:101730000010004021B1028842F08002028004E0E3
:1017400002884FF67F731A4002807047CA430282B4
:10175000704721B1028842F00102028004E0028851
:101760004FF6FE731A400280704731B1B0F8442042
:1017700042F40042A0F8442005E0B0F84420C2F34F
:101780000E02A0F84420704710B504465548844224
:1017900008D101210846FFF7F9FD00210120FFF7DC
:1017A000F5FD9DE0B4F1804F08D101210846FFF717
:1017B000CDFD00210120FFF7C9FD91E04A48844298
:1017C00008D101210220FFF7C1FD00210220FFF70F
:1017D000BDFD85E04548844208D101210420FFF782
:1017E000B5FD00210420FFF7B1FD79E040488442B7
:1017F00008D101210820FFF7A9FD00210820FFF7EB
:10180000A5FD6DE03B48844208D101211020FFF77F
:101810009DFD00211020FFF799FD61E036488442CC
:1018200008D101212020FFF791FD00212020FFF7A2
:101830008DFD55E03148844208D101210220FFF797
:10184000A5FD00210220FFF7A1FD49E02C488442BC
:1018500009D101210804FFF799FD00214FF48030E0
:10186000FFF794FD3CE02748844209D10121480458
:10187000FFF78CFD00214FF40030FFF787FD2FE0CC
:101880002148844209D101218804FFF77FFD00210E
:101890004FF48020FFF77AFD22E01C48844208D1F3
:1018A00001214020FFF752FD00214020FFF74EFDAF
:1018B00016E01748844208D101218020FFF746FD39
:1018C00000218020FFF742FD0AE01248844207D140
:1018D00001218015FFF73AFD0021A015FFF736FD25
:1018E00010BD00000000014000040040000800405E
:1018F000000C0040001000400014004000040140B3
:1019000000400140004401400048014000180040F0
:10191000001C00400020004030B50246002000239B
:101920000024158A05EA0103958905EA010413B12B
:101930000CB1012000E0002030BD1AB183890B43B7
:10194000838102E083898B438381704770B50024D3
:1019500000220023058C4FF6FE7635400584028C6C
:101960008388048B4FF68F752C40B51E2C400D8854
:101970002C43751E2A408D892A434D882A43104DD9
:10198000A84202D00F4DA84213D14FF6F7752A4056
:10199000CD892A434FF6FB752A408D882A434FF69E
:1019A000FF652B404FF6FF552B400D8A2B434D8A88
:1019B0002B43838004838D684563028470BD0000DF
:1019C00000000140000401400A460021018B4FF64F
:1019D000F7731940114301837047000070B500226E
:1019E00000230024058C4EF6FF7635400584038CD9
:1019F0008488828B48F6FF752A404FF6FF452A40BF
:101A00000D884FF6FF7606EA05252A434DF6FF7549
:101A10002B408D8906EA05352B434D8806EA0535AE
:101A20002B430A4DA84202D0094DA84208D14BF6DB
:101A3000FF752C400D8A4FF6FF7606EA85152C437C
:101A4000848082838D680564038470BD000001403A
:101A5000000401400A460021818B4FF2FF731940B8
:101A60004FF6FF7303EA02231943818370474163F2
:101A7000704701647047000000220288184B9842AA
:101A80000ED0184B98420BD0B0F1804F08D0164BB7
:101A9000984205D0154B984202D0154B984204D17C
:101AA0004FF68F731A404B881A43124B984207D057
:101AB000114B984204D04FF6FF431A400B891A434A
:101AC00002804B68C3620B880385054B984202D0A5
:101AD000044B984201D18B7A03860123838270479D
:101AE00000000140000401400004004000080040E4
:101AF000000C0040001000400014004000B587B00A
:101B000001214020FFF702FC01212020FFF72EFCDD
:101B100001212020FFF73AFC00212020FFF736FCAE
:101B200008220E212448FFF77FFB082209212248C2
:101B3000FFF77AFB4FF48440059002208DF81800DF
:101B400003208DF8190000208DF81A008DF81B0075
:101B500005A91948FFF720FB184800F03DF84FF49D
:101B6000165001900020ADF80800ADF80A00ADF85D
:101B70000C00ADF810000C20ADF80E0001A90F48C4
:101B800000F0C8F8012240F225510C4800F09CF802
:101B900001210A4800F014F847208DF800000020C9
:101BA0008DF801008DF8020001208DF803006846D1
:101BB000FFF766FB07B000BD0018024000140140AB
:101BC00021B1828942F40052828104E082894DF67B
:101BD000FF731A408281704710B504463248844230
:101BE00008D101211020FFF7D1FB00211020FFF7C1
:101BF000CDFB57E02D48844209D101214804FFF76D
:101C0000A5FB00214FF40030FFF7A0FB4AE0284875
:101C1000844209D101218804FFF798FB00214FF489
:101C20008020FFF793FB3DE02248844209D1012147
:101C3000C804FFF78BFB00214FF40020FFF786FB61
:101C400030E01D48844209D101210805FFF77EFBE1
:101C500000214FF48010FFF779FB23E017488442FE
:101C600008D101212020FFF791FB00212020FFF760
:101C70008DFB17E01248844209D101218807FFF744
:101C800065FB00214FF08040FFF760FB0AE00D4844
:101C9000844207D101214005FFF758FB0021600570
:101CA000FFF754FB10BD000000100140004400404D
:101CB00000480040004C004000500040001401402B
:101CC00000780040007C0040F0B503460024002668
:101CD0000025002040F66A17B94200D100BF18461F
:101CE000C1F3421401F01F06012707FA06F5012C83
:101CF00001D10C3004E0022C01D1103000E014308E
:101D00001AB107682F43076002E00768AF43076016
:101D1000F0BD00002DE9FF4705460E460024A14610
:101D200000BFA046B08900B100BF2C8A24F4405403
:101D3000F08804432C82AC8941F20C608443B08863
:101D400031890843718908430443AC81AC8A24F487
:101D50004074B0890443AC826846FFF727FB2048F3
:101D6000854202D01F48854202D1DDF80C9001E087
:101D7000DDF80890A88900F4004040B109EBC900E3
:101D800000EB091031684900B0FBF1F707E009EBFF
:101D9000C90000EB091031688900B0FBF1F764203D
:101DA000B7FBF0F004012009642101FB1078A88939
:101DB00000F4004040B1322000EBC800B0FBF1F06D
:101DC00000F00700044308E0322000EB0810642113
:101DD000B0FBF1F000F00F0004432C81BDE8FF8759
:101DE0000010014000140140C1F3080282807047D6
:101DF00000BFFEE770B504460025681FFFF7E4FB4F
:101E0000134800681349B0FBF1F0134908701048FB
:101E100000684FF4FA51B0FBF1F0104908600CB9BA
:101E20004FF47A740A480068B0FBF4F0C5086D1EE0
:101E30004FF0E020006940F002004FF0E02108611F
:101E400008464561006940F00100086170BD00006E
:101E50000000002000127A00980000209C00002062
:101E600070B50346002400210020002200254FF019
:101E7000E02675690D4E366803FB06F44FF0E02648
:101E8000B16910E04FF0E026B06988420BD088427B
:101E900002D20E1A324402E02E1A0E443244014697
:101EA000A24200D300E0EDE700BF70BD9C0000201F
:101EB00070B50346002400210020002200254FF0C9
:101EC000E02675690D4E367803FB06F44FF0E026E8
:101ED000B16910E04FF0E026B06988420BD088422B
:101EE00002D20E1A324402E02E1A0E443244014647
:101EF000A24200D300E0EDE700BF70BD98000020D3
:101F000010B504464FF4807040FA04F10148FFF721
:101F1000B0F910BD0018024000B58BB00121084691
:101F2000FFF7F4F901211020FFF7F0F9012108462D
:101F3000FFF71CFA012208214448FFF775F9012236
:101F40000E214348FFF770F94FF48070099002208A
:101F50008DF8280000208DF829008DF82A008DF8D2
:101F60002B0009A93948FFF717F94FF48040099071
:101F700009A93748FFF710F901210846FFF706FACB
:101F800000210120FFF702FA40F2CF700790B32042
:101F9000ADF818000020ADF81A00ADF8200006A931
:101FA0002C48FFF769FD6020ADF804000120ADF872
:101FB00006000020ADF81000ADF808000820ADF8CC
:101FC00012004001ADF814000020ADF816004FF4E7
:101FD0007A70039001A91F48FFF7B8FC01A91D48BA
:101FE000FFF7FCFC08211B48FFF7EEFC082119480D
:101FF000FFF730FD01211748FFF79CFB0121154831
:10200000FFF7B3FB01211348FFF7A3FB00F026F80D
:1020100001212020FFF77AF94FF480600990002019
:102020008DF828008DF82A0003208DF82900012062
:102030008DF82B0009A90848FFF7AEF84FF480612E
:102040000548FFF716F90BB000BD00000000024084
:1020500000100240000001400014024010B54FF48F
:102060007A710448FFF703FD4FF47A710148FFF7D6
:1020700000FD10BD000001401CB501214020FFF70C
:1020800045F94FF40050009001208DF80400002025
:102090008DF8060003208DF8050001208DF807005B
:1020A00069460348FFF778F800F004F81CBD00000B
:1020B0000018024010B54FF400510248FFF7D9F85C
:1020C00010BD0000001802401CB501217020FFF770
:1020D0001DF94FF48040009001208DF8040000208D
:1020E0008DF8060003208DF8050001208DF807000B
:1020F00069460D48FFF750F84FF4006000906946BC
:102100000A48FFF749F800F015F800F01DF84FF401
:10211000FF70009069460648FFF73EF84FF4FF70E5
:10212000FFF7EEFE1CBD000000140240001002404C
:102130000018024010B54FF480410248FFF799F8AB
:1021400010BD00000014024010B54FF400610248B9
:10215000FFF78FF810BD000000100240FEF7BCFA38
:102160006420FFF77DFE00F023FE01F02BF900BF95
:10217000FEE700001CB501218020FFF7C7F83C20D6
:10218000009001208DF8040000208DF80600032047
:102190008DF8050001208DF8070069460648FEF716
:1021A000FBFF002404E0204600F008F8601CC4B2E5
:1021B000042CF8DB1CBD0000001C024010B50446D6
:1021C000032C00DD10BD0420A04081B20248FFF7BF
:1021D0004EF800BFF6E70000001C024010B50446B0
:1021E000032C00DD10BD0420A04081B20248FFF79F
:1021F00040F800BFF6E70000001C02402DE9F04166
:1022000005460E461C4807681C480068001D00F083
:1022100056FE50B91948006890F82C1001208840EB
:1022200017490968814316480160681C38B936B1FE
:1022300012480168091D134800F07FFE1AE07C195E
:102240000E4800684460BC4207D20C480168091D72
:102250000D48006800F057FE0CE008480168091DB1
:102260000A48006800F04FFE09480068844201D225
:1022700007480460BDE8F0813800002024000020F9
:102280003C000020C80300202C0000202800002073
:102290005400002010B5044600F05CFE244800689D
:1022A000401C234908602348006840B92148046065
:1022B0000846006801280DD100F0E0F90AE01E4848
:1022C000006838B91B480068C06AE16A884201D8D2
:1022D0001848046019480068401C184908600846FE
:1022E0000068606494F82C10012088401449096843
:1022F000084313490860E16A01EB8101114A02EBCE
:102300008100211D00F019FE00F04EFE0A48006811
:1023100068B108480068C06AE16A884207D24FF095
:10232000805009490860BFF34F8FBFF36F8F10BD16
:102330003400002024000020400000205000002035
:102340003C000020F800002004ED00E010B500F093
:1023500001FE10480068D0B90F4800F0C4FD0F48D6
:1023600000F0C1FD0C480E4908600C480D4908609A
:1023700000220C210A2001F075F906490860084680
:10238000006820B108A10348006800F0B3FE00F027
:102390000BFE10BD68000020DC030020F0030020CD
:1023A0006000002064000020546D725100000000A5
:1023B00070B523E001F050F81348006808B9012017
:1023C00000E00020054601F0EFFDBDB900F0C2FDC0
:1023D0000D48C068C468201D00F071FD0B480068FE
:1023E000401E0A4908600A480068401E0849086003
:1023F00000F0DAFD204600F060F800BF04480068F5
:102400000028D7D170BD0000B403002034000020A4
:102410003000002070B504460D46206C70B1216C70
:10242000E0680844E0606168E068884201D32068A1
:10243000E0602846226CE168FDF78AFF70BD2DE957
:10244000F04104460F4615464FF00008A66B206C7D
:1024500040B9206860BB606801F0F6FC804600204F
:10246000606025E07DB93946226CA068FDF770FFF9
:10247000216CA0680844A060D4E90110884217D3F9
:102480002068A06014E03946226CE068FDF760FF28
:10249000216CE068401AE0602168E068884203D25D
:1024A000216C6068401AE060022D01D106B1761EF1
:1024B000701CA0634046BDE8F08110B50446206B57
:1024C00000F090FD204600F08DFD10BD0146084A49
:1024D000126812680AB9012200E000220A600A6844
:1024E00022B9034A1268D268106800E000207047E1
:1024F0006000002030B54FF40033174800F00704A7
:102500002CB1C01D20F00700134C041B1B1B0246FE
:10251000124C22600024114D6C60D018083820F055
:1025200007000F4C206000240D4D2D686C600C4D91
:102530002D682C601146441A4C60094C24680C60CC
:10254000084D4C682C60084D4C682C604FF00044DE
:10255000064D2C6030BD00000404002074000020F3
:102560007C000020840000208000002088000020E3
:1025700000BFFFF71DFF064800680128F9D94FF09A
:10258000805004490860BFF34F8FBFF36F8FF0E7AF
:10259000F800002004ED00E02DE9F04106460D466C
:1025A00017469846069C0DB9246000E02760E66354
:1025B00025640121204601F063F984F85080002051
:1025C000A064BDE8F0812DE9F05F82460F46904699
:1025D0009B460A9E0C9C4FEA8801A522206BFDF7C2
:1025E000FCFEA8F10100216B01EB800929F007092D
:1025F00009F0070008B9012000E0002050B900BF31
:10260000502080F31188BFF34F8FBFF36F8F00BF4F
:1026100000BFFEE7002507E0795D04F13400415575
:10262000785D00B902E06D1C102DF5D300BF0021CC
:1026300043200155202E00D31F26E662E6640020C9
:102640002065201D00F05CFC04F1180000F058FC2F
:102650002461C6F12000A06164620020606584F8F6
:1026600058005A465146484600F08CFB20600B98B3
:1026700008B10B980460BDE8F09F000010B500247D
:1026800007E004EB84010F4A02EB810000F02BFC11
:10269000641C202CF5D30C4800F025FC0B4800F0FE
:1026A00022FC0B4800F01FFC0A4800F01CFC0A4802
:1026B00000F019FC0448094908600448084908600A
:1026C00010BD0000F8000020780300208C030020DB
:1026D000A0030020B4030020C8030020280000202D
:1026E0002C00002010B50146164800E00068036881
:1026F0008B42FBD30246436813448B4204D14368A8
:102700004C682344436001460A464B6813440468FE
:10271000A34211D10C4C03682468A34208D04B6833
:102720000468646823444B6003681B680B6005E021
:10273000054B1B680B6001E003680B60884200D00A
:10274000016010BD740000207C0000202DE9F041E4
:1027500004460D4616461F464FF00008656024618A
:10276000B5420CD8F01BA169884202D34FF0010892
:1027700011E0211D0948006800F0C5FB0BE0BE42D6
:1027800004D2BD4202D34FF0010804E0211D0448E9
:10279000006800F0B8FB4046BDE8F081640000200E
:1027A0006000002070B5054600F0D4FBA86B08B9A6
:1027B000012400E0002400F0F7FB204670BD70B556
:1027C000054600F0C7FBA86BE96B884201D10124E4
:1027D00000E0002400F0E8FB204670BD2DE9F34145
:1027E0000D460098846C002754B900BF502080F338
:1027F0001188BFF34F8FBFF36F8F00BF00BFFEE79D
:10280000A06BE16B884201D2012000E0002050B9AA
:1028100000BF502080F31188BFF34F8FBFF36F8F3D
:1028200000BF00BFFEE7A06BE16B88421BD294F9AA
:1028300045602A4669462046FFF701FE0746701CA0
:1028400060B9606A08B9012000E0002050B904F1C5
:10285000240001F05DFB28B1012703E0701C40B2A9
:1028600084F8450000BF3846BDE8FC81F8B5054650
:102870000F4616480068C068C468201D00F01FFBA2
:10288000E06901281DD1A06941192B463A4620462E
:10289000FFF75CFFA8B1002003462A4601460090DE
:1028A000204601F02DFC064656B900BF502080F3AB
:1028B0001188BFF34F8FBFF36F8F00BF00BFFEE7DC
:1028C00000BF2046616A8847F8BD00006000002014
:1028D00070B586B06AE00398002867DB059C6069E4
:1028E00008B9012000E0002010B9201D00F0E7FA2F
:1028F00002A800F0BDF8054603980A2854D2DFE884
:1029000000F009050731334F0608323400BF00BF1D
:1029100000BF00BF0498A269811803462A462046DA
:10292000FFF714FFE8B12046616A8847E069012893
:1029300017D1002000900498A1694218002319467D
:10294000204601F0DDFB064656B900BF502080F35B
:102950001188BFF34F8FBFF36F8F00BF00BFFEE73B
:1029600000BF22E000BF20E000BF0498A061A06982
:1029700008B1012000E0002050B900BF502080F3D2
:102980001188BFF34F8FBFF36F8F00BF00BFFEE70B
:10299000A06941192B462A462046FFF7D7FE04E0DE
:1029A000204600F01FFB00E000BF00BF00231A46D6
:1029B00003A90448006800F081FE00288BD106B00E
:1029C00070BD000068000020F8B505460C4600F018
:1029D00043FD684600F04CF80646009820BB44B919
:1029E000B54206D801F0E0FA31462846FFF73EFF2F
:1029F0001CE03CB10E480068006808B9012000E006
:102A000000200446A91B22460A48006800F088FB03
:102A100001F0CAFA50B94FF0805007490860BFF37F
:102A20004F8FBFF36F8F01E001F0BEFAF8BD0000D9
:102A3000640000206800002004ED00E00A490968F5
:102A4000096809B9012100E0002121B14FF0FF31EF
:102A5000064A116006E004490968C968C868034A63
:102A600041681160704700002800002054000020D9
:102A700070B5044601F03EF90546074800688542F6
:102A800004D200F00BF80120206001E0002020605B
:102A900001480560284670BD700000202DE9F8430C
:102AA00032E024480068C068056822480068C068B1
:102AB000C468201D00F003FA2046616A8847E06977
:102AC000012821D1A0694619AE4207D96660246168
:102AD000211D1848006800F016FA15E00020034692
:102AE0002A4601460090204601F00AFB074657B9E6
:102AF00000BF502080F31188BFF34F8FBFF36F8F5B
:102B000000BF00BFFEE700BF0A480068006808B9C0
:102B1000012000E000200028C3D00648D0F8008043
:102B200005480068034908600348C0F80080BDE814
:102B3000F883000060000020640000200E48006858
:102B4000401C08B9012000E0002050B900BF50200F
:102B500080F31188BFF34F8FBFF36F8F00BF00BFAB
:102B6000FEE700BF502080F31188BFF34F8FBFF303
:102B70006F8F00BF00BFFEE78C00002008B500BFCC
:102B80006846FFF7A3FC044620460099FFF71CFFA8
:102B9000FFF79EFEF4E770B5044600F0DBF994F908
:102BA00045501AE0A06C38B100212046FFF716FE10
:102BB00088B100F055FB0EE0606A08B9012000E022
:102BC000002038B904F1240001F0A2F918B100F096
:102BD00047FB00E003E0681E45B2002DE2DC00BFC9
:102BE000FF2084F8450000F0DFF900F0B3F994F914
:102BF000445010E0206908B9012000E0002048B9E5
:102C000004F1100001F084F908B100F029FB681EFE
:102C100045B200E001E0002DECDC00BFFF2084F8AD
:102C2000440000F0C1F970BD2DE9F04104464FF0B9
:102C3000000800F011FC4648006808B9FFF75AFC8C
:102C400044480068204000286BD1D4B1083404F017
:102C50000700B0B104F00700C0F10800044404F01C
:102C6000070008B9012000E0002050B900BF502043
:102C700080F31188BFF34F8FBFF36F8F00BF00BF8A
:102C8000FEE7002C4DD034480068844249D8334ECA
:102C90003046056801E02E462D686868A04202D2E1
:102CA00028680028F7D12A480068854239D0306862
:102CB00000F10808286830606868001B102819D9DE
:102CC0002F1907F0070008B9012000E0002050B9D3
:102CD00000BF502080F31188BFF34F8FBFF36F8F79
:102CE00000BF00BFFEE76868001B78606C60384674
:102CF000FFF7F8FC184968680968081A164908605F
:102D00000846006816490968884203D212480068DC
:102D1000134908600F496868096808436860002023
:102D2000286001F041F908F0070008B9012000E02F
:102D3000002050B900BF502080F31188BFF34F8F9F
:102D4000BFF36F8F00BF00BFFEE74046BDE8F081D4
:102D50007C000020880000208000002074000020FB
:102D6000840000200648006830B10549096801F177
:102D70005000096D491C016001480068704700005F
:102D800024000020001F4FF080730360001F21F01B
:102D900001030360001F054B036014380260001F2D
:102DA0006FF0020303602038704700003D2B0008DD
:102DB0001CB50548012100234A02CDE9001003A1FA
:102DC000054800F057FF1CBDB0000020737461720D
:102DD000745F7461736B0000DD2D00081CB5044640
:102DE00000F0B8F8084802210023CA01CDE900101C
:102DF00006A1094800F03EFF0848006800F0B6F957
:102E000000F0D2F81CBD0000B4000020746573749B
:102E10005F7461736B000000A12E0008B0000020F9
:102E200000B587B0002001908DF808008DF80900EA
:102E30000390059001208DF8180001A90248FDF7C4
:102E4000AFFB07B000BD0000002001401FB501210D
:102E50000802FEF78BFA01210802FEF797FA00211B
:102E60004FF48070FEF792FA0120FDF71FFC00205E
:102E70000090039002904FF4803001906846FDF777
:102E800077FBFFF7CDFF01231A4612210348FDF718
:102E9000B1FB01210148FDF760FB1FBD002001408F
:102EA0000CE000231A4619464FF4FA60FDF78EFD38
:102EB0000520FEF7EFFA6420FEF7D2FFF1E70146A6
:102EC0000A69D1E901309860D1E90103586050687E
:102ED000884201D188685060002008611068401E57
:102EE00010601068704700F1080141604FF0FF3139
:102EF000816000F10801C16001610021016070473B
:102F000000210161704710B502460B685C1C0CB9CA
:102F1000106907E002F1080000E040684468246896
:102F20009C42FAD944684C604C68A160886041605A
:102F30000A611468641C146010BD42684A6093689A
:102F40008B60936859609160086103685B1C036043
:102F50007047000000BF502080F31188BFF34F8FEF
:102F6000BFF36F8F00BF0E480068401C0C4908601B
:102F700008460068012812D10A480068C0B208B9A2
:102F8000012000E0002050B900BF502080F31188DC
:102F9000BFF34F8FBFF36F8F00BF00BFFEE77047D7
:102FA0008C00002004ED00E00D48006850B900BF1F
:102FB000502080F31188BFF34F8FBFF36F8F00BF96
:102FC00000BFFEE706480068401E05490860084645
:102FD000006820B9002080F3118800BF00BF70474F
:102FE0008C00002070B506463546002E3FD0083DC7
:102FF0002C461F4960680968084008B1012000E0BC
:10300000002050B900BF502080F31188BFF34F8FCC
:10301000BFF36F8F00BF00BFFEE7206808B9012033
:1030200000E0002050B900BF502080F31188BFF3AA
:103030004F8FBFF36F8F00BF00BFFEE70C49606882
:103040000968084098B1206888B90949606809682A
:103050008843606000F000FA064960680968084427
:10306000044908602046FFF73DFB00F09DFF70BD5E
:1030700088000020800000207047000070B5FDF738
:103080003DF90446102C16D304F1E02090F8F053DB
:1030900015480078854201DB012000E0002050B98E
:1030A00000BF502080F31188BFF34F8FBFF36F8FA5
:1030B00000BF00BFFEE70D48006800F4E0600C4967
:1030C0000968884201D8012000E0002050B900BF03
:1030D000502080F31188BFF34F8FBFF36F8F00BF75
:1030E00000BFFEE770BD0000900000200CED00E086
:1030F00094000020024600200BE0084B53F83030CB
:1031000033B9064B43F8301003EBC0035A6002E0BA
:10311000401C0828F1D300BF70470000B800002011
:103120002DE9F04105460E4617462C46FFF712FFE3
:1031300094F94400401C10B9002084F8440094F92C
:103140004500401C10B9002084F84500FFF72CFF13
:10315000A06B28B93A46314604F1240000F0A2F8E9
:103160002046FFF718FDBDE8F081000070B5054668
:10317000FFF7F0FE15B93048006800E02846044625
:10318000201DFFF79CFE78B9E06A00EB80002B4918
:1031900051F8200040B994F82C10012088402849AB
:1031A0000968814326480160A06A18B104F118003B
:1031B000FFF785FE23480068401C224908601E482E
:1031C0000068844209D1211D1F48FFF7B6FE1F4841
:1031D0000068401C1D49086009E01D480068401E49
:1031E0001B4908602046FFF768F9FFF727FCFFF747
:1031F000DBFE18480068E8B10F480068844219D126
:103200001548006808B9012000E0002050B900BF4F
:10321000502080F31188BFF34F8FBFF36F8F00BF33
:1032200000BFFEE74FF080500C490860BFF34F8F9E
:10323000BFF36F8F70BD000024000020F800002055
:103240003C00002050000020B4030020300000208B
:1032500034000020400000205C00002004ED00E06D
:1032600001200149086070474800002070B50446FD
:103270000D4654B900BF502080F31188BFF34F8F23
:10328000BFF36F8F00BF00BFFEE70548016818312C
:103290002046FFF738FE01212846FEF7AFFF70BD3C
:1032A0002400002070B505460E46144655B900BFEF
:1032B000502080F31188BFF34F8FBFF36F8F00BF93
:1032C00000BFFEE70648016818312846FFF735FEC3
:1032D0000CB14FF0FF3621463046FEF78FFF70BD30
:1032E0002400002070B505462C46002D4BD0264901
:1032F000E06A0968C96A884245D2A06900F00040C6
:1033000028B921480068C06AC0F12000A061E16AC4
:1033100001EB81011D4A02EB81016069884201D104
:10332000012000E0002050B3201DFFF7C8FD78B950
:10333000E06A00EB8000154951F8200040B994F88C
:103340002C1001208840124909688143104801600F
:103350000D480068C06AE06294F82C100120884093
:103360000B49096808430A490860E16A01EB8101D9
:10337000064A02EB8100211DFFF7DFFD03E0024852
:103380000068C06AE06270BD24000020F8000020E0
:103390003C00002050B900BF502181F31188BFF3D9
:1033A0004F8FBFF36F8F00BF00BFFEE7034909686F
:1033B0000160034909684160704700004C0000202B
:1033C000380000201CB51D4800210B468022CDE9A5
:1033D00000101BA11C4800F04DFC0446012C02D13A
:1033E00000F064FE0446012C15D100BF502080F38C
:1033F0001188BFF34F8FBFF36F8F00BF4FF0FF30C7
:103400001249086001201249086000201149086033
:1034100000F070F810E0601C08B1012000E000200E
:1034200050B900BF502080F31188BFF34F8FBFF316
:103430006F8F00BF00BFFEE71CBD000058000020DA
:1034400049444C450000000071250008540000204C
:10345000400000203800002002480068401C01495C
:10346000086070475C0000201D48006818B101200A
:103470001C49086032E000201A4908601A480068B8
:10348000B0FA80F0C0F11F0101EB8100174A52F839
:10349000200008B1012000E0002050B900BF5020FA
:1034A00080F31188BFF34F8FBFF36F8F00BF00BF52
:1034B000FEE701EB81020D4B03EB8200426852688C
:1034C000426000F108024368934202D142685268A8
:1034D00042604268D268064B1A6000BF7047000025
:1034E0005C000020480000203C000020F800002084
:1034F000240000201CB5474800684749884201D095
:10350000012000E0002050B900BF502080F3118856
:10351000BFF34F8FBFF36F8F00BF00BFFEE73D4883
:1035200000683D49491E884201D0012000E000208A
:1035300050B900BF502080F31188BFF34F8FBFF305
:103540006F8F00BF00BFFEE7344908460078019046
:10355000FF200A4610700846007800909DF8000091
:1035600000F0F0009DF80020904201D1012000E021
:10357000002050B900BF502080F31188BFF34F8F57
:10358000BFF36F8F00BF00BFFEE79DF8000000F0A3
:103590005000234A10700720224A106009E0214899
:1035A0000068401E1F4A10609DF800004006000E93
:1035B00000909DF8000000F080008028EFD01948AE
:1035C00000680002174A10601046008800F4E060AE
:1035D0001060124A019810700E482030006840F4C4
:1035E00070000C49203108600846006840F07040C7
:1035F0000860FFF741FD00200B490860FCF746FE1C
:103600000A48006840F0404008490860FCF72EFE78
:1036100000201CBD00ED00E071C20F4100E400E09D
:1036200090000020940000208C00002034EF00E087
:1036300010B500BF502080F31188BFF34F8FBFF348
:103640006F8F00BF00F05CFB18B14FF08050044951
:10365000086000BF002080F3118800BF10BD00008B
:1036600004ED00E02DE9F84305460E4690460DB105
:10367000012000E0002050B900BF502080F31188E5
:10368000BFF34F8FBFF36F8F00BF00BFFEE70EB9D0
:10369000002701E005FB06F707F15400FFF7C4FA25
:1036A000044644B104F1540943464A46314628468B
:1036B0000094FEF771FF2046BDE8F8832DE9FF472F
:1036C00082B005460E461F464FF0000A2C4654B9FC
:1036D00000BF502080F31188BFF34F8FBFF36F8F6F
:1036E00000BF00BFFEE70EB9206C08B9012000E062
:1036F000002050B900BF502080F31188BFF34F8FD6
:10370000BFF36F8F00BF00BFFEE700F0E3FA08B918
:10371000049808B9012000E0002050B900BF5020F3
:1037200080F31188BFF34F8FBFF36F8F00BF00BFCF
:10373000FEE700BFFFF70EFCD4F83890B9F1000F98
:103740003DD0D4F80C8031462046FEF763FEDFB949
:10375000A9F10100A063206810B9FFF703FB6060C6
:10376000206908B9012000E0002010BB04F110001E
:1037700000F0CEFBE8B14FF0805040490860BFF345
:103780004F8FBFF36F8F14E0C4F80C80606A08B9E4
:10379000012000E0002060B904F1240000F0B8FB33
:1037A00038B14FF0805035490860BFF34F8FBFF3F9
:1037B0006F8FFFF7F9FB012006B0BDE8F087049892
:1037C00018B9FFF7F1FB0020F6E7BAF1000F04D1BA
:1037D0006846FFF7DFFD4FF0010AFFF7E5FBFFF753
:1037E0003BFEFFF7B7FB94F94400401C10B90020E2
:1037F00084F8440094F94500401C10B9002084F876
:103800004500FFF7D1FB04A9684600F0EDF940BB85
:103810002046FEF7C7FFF0B1206830B9FFF79AFBEA
:103820006068FFF75FFDFFF7BFFB04F12400049918
:10383000FFF71CFD2046FFF7AEF900F0B5FB0028AE
:103840007FF478AF4FF080500C490860BFF34F8F82
:10385000BFF36F8F6EE72046FFF79DF900F0A4FBE2
:1038600068E72046FFF797F900F09EFB2046FEF739
:1038700099FF0028EED000209EE7000004ED00E054
:1038800070B505460E462C4654B900BF502080F353
:103890001188BFF34F8FBFF36F8F00BF00BFFEE7EC
:1038A000FFF758FBD4E90F12206801FB02006060AB
:1038B0000020A0632068A060E06B401E226C21689D
:1038C00000FB0210E060FF2084F8440084F845000B
:1038D0009EB9206908B9012000E00020A8B904F1D0
:1038E000100000F015FB80B14FF0805009490860CE
:1038F000BFF34F8FBFF36F8F07E004F11000FFF7A6
:10390000F2FA04F12400FFF7EEFAFFF74DFB012075
:1039100070BD000004ED00E02DE9FF4383B00646D2
:1039200088461D464FF00009344654B900BF502068
:1039300080F31188BFF34F8FBFF36F8F00BF00BFBD
:10394000FEE7B8F1000F01D1206C08B9012000E0BA
:10395000002050B900BF502080F31188BFF34F8F73
:10396000BFF36F8F00BF00BFFEE7022D02D1E06BF7
:10397000012801D1012000E0002050B900BF5020F3
:1039800080F31188BFF34F8FBFF36F8F00BF00BF6D
:10399000FEE700F09FF908B9059808B9012000E09A
:1039A000002050B900BF502080F31188BFF34F8F23
:1039B000BFF36F8F00BF00BFFEE700BFFFF7CAFA7B
:1039C000A06BE16B884201D3022D38D12A464146D3
:1039D0002046FEF734FD0746A06C68B12946204614
:1039E000FEF7FCFE28B34FF080503C490860BFF35F
:1039F0004F8FBFF36F8F1CE0606A08B9012000E0B1
:103A0000002068B904F1240000F082FA88B14FF078
:103A1000805032490860BFF34F8FBFF36F8F08E0CB
:103A20003FB14FF080502D490860BFF34F8FBFF377
:103A30006F8FFFF7B9FA012007B0BDE8F083059852
:103A400018B9FFF7B1FA0020F6E7B9F1000F04D179
:103A500001A8FFF79FFC4FF00109FFF7A5FAFFF758
:103A6000FBFCFFF777FA94F94400401C10B90020E2
:103A700084F8440094F94500401C10B9002084F8F3
:103A80004500FFF791FA05A901A800F0ADF8F0B9DB
:103A90002046FEF794FEA0B104F110000599FFF74F
:103AA000E5FB2046FFF777F800F07EFA002885D185
:103AB0004FF0805009490860BFF34F8FBFF36F8FFD
:103AC0007CE72046FFF767F800F06EFA76E72046BD
:103AD000FFF761F800F068FA0020ADE704ED00E0C0
:103AE0002DE9F05F80468A4615461E46444654B985
:103AF00000BF502080F31188BFF34F8FBFF36F8F4B
:103B000000BF00BFFEE7BAF1000F01D1206C08B979
:103B1000012000E0002050B900BF502080F3118840
:103B2000BFF34F8FBFF36F8F00BF00BFFEE7022EC2
:103B300002D1E06B012801D1012000E0002050B942
:103B400000BF502080F31188BFF34F8FBFF36F8FFA
:103B500000BF00BFFEE7FFF791FA00BF5021EFF36F
:103B6000118081F31188BFF34F8FBFF36F8F00BFB8
:103B70000746A06BE16B884201D3022E2BD194F94A
:103B800045B0324651462046FEF759FC0BF1010084
:103B9000C8B9A06C40B131462046FEF71FFEB8B14F
:103BA000B5B10120286013E0606A08B9012000E087
:103BB000002068B904F1240000F0AAF940B13DB139
:103BC0000120286004E00BF1010040B284F84500B8
:103BD0004FF0010901E04FF0000900BF87F31188A1
:103BE00000BF4846BDE8F09F70B504460D4654B985
:103BF00000BF502080F31188BFF34F8FBFF36F8F4A
:103C000000BF00BFFEE755B900BF502080F3118808
:103C1000BFF34F8FBFF36F8F00BF00BFFEE7FFF70B
:103C200099F9124803682868401C08B9002619E071
:103C30000F4920680968884204D06068984201D81A
:103C400001260FE06068181A2968884209D228689E
:103C50006168591A401A28602046FFF79BFB00262E
:103C600000E00126FFF7A0F9304670BD38000020C3
:103C70004C0000202DE9FF4F85B08046894617464D
:103C8000DDE912ABB800FEF7CFFF064656B15C2067
:103C9000FEF7CAFF04460CB1266304E03046FFF786
:103CA000A1F900E000247CB10020CDE900ABCDE912
:103CB00002403A4649464046089BFEF784FC2046AF
:103CC000FEF7E8FA012501E04FF0FF35284609B07C
:103CD000BDE8F08F0549096809B9012005E00449EC
:103CE000096809B9022000E0002070474000002068
:103CF0005C0000200149086870470000380000207F
:103D00002DE9F0414FF0000844480068002877D1C1
:103D100043480068451C4248056015BB414800689F
:103D2000006808B9012000E0002050B900BF502011
:103D300080F31188BFF34F8FBFF36F8F00BF00BFB9
:103D4000FEE7384807683848006836490860364852
:103D5000076036480068401C34490860FEF76EFE74
:103D600000BF3348006885423CD300BF2D4800683F
:103D7000006808B9012000E0002020B14FF0FF30BA
:103D80002B4908602DE027480068C068C468666851
:103D9000B54202D22648066023E0201DFFF78FF8C7
:103DA000A06A18B104F11800FFF789F894F82C10F4
:103DB000012088401F49096808431E490860E16ADC
:103DC00001EB81011C4A02EB8100211DFFF7B5F8D0
:103DD0001A49E06A0968C96A8842C7D34FF00108E6
:103DE000C4E700BF15480068C06A00EB80001249B4
:103DF00051F82000012801D94FF0010805E0FFE744
:103E00000F480068401C0E4908600E48006808B161
:103E10004FF001084046BDE8F08100005C00002042
:103E200038000020280000202C0000204C0000203A
:103E3000540000203C000020F80000202400002056
:103E4000440000204800002070B505462C4600269E
:103E5000002D55D02B480068844201D1012000E09C
:103E6000002050B900BF502080F31188BFF34F8F5E
:103E7000BFF36F8F00BF00BFFEE7206D50B900BFDA
:103E8000502080F31188BFF34F8FBFF36F8F00BFB7
:103E900000BFFEE7206D401E2065E16CE06A8842AD
:103EA0002ED0206D60BB201DFFF709F878B9E06ABD
:103EB00000EB8000144951F8200040B994F82C1010
:103EC0000120884011490968814310480160E06C75
:103ED000E062E06AC0F12000A06194F82C1001209B
:103EE00088400A490968084308490860E16A01EB0B
:103EF0008101054A02EB8100211DFFF71EF8012612
:103F0000304670BD24000020F80000203C00002056
:103F100070B50646F068C46854B900BF502080F3FD
:103F20001188BFF34F8FBFF36F8F00BF00BFFEE755
:103F300004F11800FEF7C3FF15480068A8B9201D5A
:103F4000FEF7BDFF94F82C10012088401149096844
:103F5000084310490860E16A01EB81010E4A02EB57
:103F60008100211DFEF7E9FF04E004F118010B4870
:103F7000FEF7E3FF0A49E06A0968C96A884204D982
:103F8000012501200749086000E00025284670BD92
:103F90005C0000203C000020F8000020A00300206E
:103FA000240000204800002070B500240026364878
:103FB000006850B900BF502080F31188BFF34F8FC5
:103FC000BFF36F8F00BF00BFFEE7FEF7C3FF2E48B1
:103FD0000068401E2C4908600846006800284FD140
:103FE0002A48006800284BD024E02948C068C468EB
:103FF00004F11800FEF763FF201DFEF760FF94F840
:104000002C10012088402349096808432149086091
:10401000E16A01EB8101204A02EB8100211DFEF7DC
:104020008CFF1E49E06A0968C96A884202D30120F0
:104030001B4908601648006808B9012000E000200C
:104040000028D2D00CB1FEF7F9FC1648056865B11E
:1040500000BFFFF755FE10B10120114908606D1E29
:10406000002DF6D100200F4908600D48006838B1D6
:10407000012630070C490860BFF34F8FBFF36F8FE5
:10408000FEF792FF304670BD5C0000203400002037
:10409000A00300203C000020F800002024000020A5
:1040A000480000204400002004ED00E01CB500247E
:1040B000FEF74CF90D48006850B10D48022100236D
:1040C000CA01CDE900100BA10C48FFF7D3FD04464F
:1040D00054B900BF502080F31188BFF34F8FBFF356
:1040E0006F8F00BF00BFFEE720461CBD68000020A8
:1040F0006C000020546D7220537663007D2B000805
:104100002DE9FE4304460D4616461F46DDF828807D
:104110004FF0000954B900BF502080F31188BFF35D
:104120004F8FBFF36F8F00BF00BFFEE714480068DA
:1041300010B3009501960294062D15DAFFF7CAFD1B
:10414000022808D10023424669460D480068FFF75F
:10415000E3FB814610E000231A46694608480068E0
:10416000FFF7DAFB814607E000233A466946044838
:104170000068FFF7B5FC81464846BDE8FE830000B5
:10418000680000204FF00000E1EE100A70470000C8
:10419000B041000800000020B8000000E80100085D
:1041A00068420008B8000020380802000402000835
:1041B0000095BA0A0000000000000000010203049C
:1041C00006070809000000000102030401020304BD
:1041D00006070809000000000000000000000000C1
:1041E00000000000000000000000000000000000CF
:1041F00000000000000000000000000000000000BF
:1042000000000000000000000000000000000000AE
:10421000000000000000000000000000000000009E
:10422000000000000000000000000000000000008E
:10423000000000000000000000000000AAAAAAAAD6
:10424000000000000000000000000000000000006E
:10425000000000000000000000000000000000005E
:08426000000000000000000056
:04000005080001AD41
:00000001FF
