:020000040800F2
:10000000E0080220050300080B1100080311000896
:100010000711000841070008DB1800080000000075
:100020000000000000000000000000004D02000879
:100030002310000800000000A1020008AD13000812
:1000400029030008290300082903000829030008E0
:1000500029030008290300082903000829030008D0
:1000600029030008290300082903000829030008C0
:1000700029030008290300082903000829030008B0
:1000800029030008290300082903000829030008A0
:100090004507000829030008290300082903000870
:1000A0002903000829030008290300082903000880
:1000B0002903000825140008290300082903000863
:1000C0002903000829030008290300082903000860
:1000D0002903000829030008290300082903000850
:1000E0002903000829030008290300082903000840
:1000F0002903000829030008290300082903000830
:10010000290300082903000829030008290300081F
:1001100029030008290300085514000829030008D2
:1001200029030008290300082903000829030008FF
:1001300029030008290300082903000829030008EF
:10014000850800082903000829030008290300087E
:1001500029030008290300082903000829030008CF
:1001600029030008290300082903000829030008BF
:1001700029030008290300082903000800000000E3
:10018000290300082903000829030008290300089F
:10019000290300082903000829030008290300088F
:1001A00000000000000000002903000800F002F831
:1001B00000F03CF80AA090E8000C82448344AAF1C5
:1001C0000107DA4501D100F031F8AFF2090EBAE8C3
:1001D0000F0013F0010F18BFFB1A43F0010318477B
:1001E000983A0000B83A0000103A24BF78C878C1A5
:1001F000FAD8520724BF30C830C144BF04680C602D
:10020000704700000023002400250026103A28BF74
:1002100078C1FBD8520728BF30C148BF0B60704778
:100220001FB503F023FD1FBD10B510BD00F060F930
:100230001146FFF7F5FF01F007FD00F07EF903B46A
:10024000FFF7F2FF03BC00F081F900002A4B1968A8
:100250000868B0E8F04F80F30988BFF36F8F4FF064
:10026000000080F311887047000000000648006815
:10027000006880F3088862B661B6BFF34F8FBFF3A2
:100280006F8F00DF00BF00BF08ED00E0DFF80C005B
:10029000016841F470010160704700BF88ED00E023
:1002A000EFF30980BFF36F8F134B1A681EF0100F26
:1002B00008BF20ED108A20E9F04F106008B44FF01D
:1002C000500080F31188BFF34F8FBFF36F8F02F0A0
:1002D0003FFE4FF0000080F3118808BC19680868E1
:1002E000B0E8F04F1EF0100F08BFB0EC108A80F39A
:1002F0000988BFF36F8F704714000020EFF305806B
:10030000704700000C48016841F4700101600B481F
:1003100080470B480047FEE7FEE7FEE7FEE7FEE703
:10032000FEE7FEE7FEE7FEE7FEE7000005480649B8
:10033000044A064B7047000088ED00E0BD1300083A
:10034000AD010008E0040220E0080220E0040220E1
:10035000032A40F2308010F0030C00F0158011F8F1
:10036000013BBCF1020F624498BF11F801CB00F8C9
:10037000013B38BF11F8013BA2F1040298BF00F81D
:1003800001CB38BF00F8013B11F0030300F03080CF
:10039000083AC0F0088051F8043B083A51F804CB01
:1003A000A0E80810F5E7121D5CBF51F8043B40F8C7
:1003B000043BAFF30080D20724BF11F8013B11F8D2
:1003C00001CB48BF11F8012B24BF00F8013B00F816
:1003D00001CB48BF00F8012B704702F0FF0343EA4E
:1003E000032242EA024200F037B870477047704774
:1003F00010B5203AC0F00B80B1E81850203AA0E8C0
:100400001850B1E81850A0E81850BFF4F5AF5FEAF3
:10041000027C24BFB1E81850A0E8185044BF18C9A6
:1004200018C0BDE810405FEA827C24BF51F8043B4D
:1004300040F8043B08BF7047D20728BF31F8023BA1
:1004400048BF11F8012B28BF20F8023B48BF00F835
:10045000012B70474FF000020429C0F0128010F009
:10046000030C00F01B80CCF1040CBCF1020F18BF90
:1004700000F8012BA8BF20F8022BA1EB0C0100F023
:100480000DB85FEAC17C24BF00F8012B00F8012BF6
:1004900048BF00F8012B70474FF0000200B513462B
:1004A00094469646203922BFA0E80C50A0E80C5094
:1004B000B1F12001BFF4F7AF090728BFA0E80C5045
:1004C00048BF0CC05DF804EB890028BF40F8042B3E
:1004D00008BF704748BF20F8022B11F0804F18BFAB
:1004E00000F8012B7047000000487047800402208C
:1004F0007546FFF7F9FFAE4605006946534620F002
:100500000700854618B020B5FFF710FFBDE8204072
:100510004FF000064FF000074FF000084FF0000BBF
:1005200021F00701AC46ACE8C009ACE8C009ACE872
:10053000C009ACE8C0098D46704710B50446AFF35A
:1005400000802046BDE81040FFF779BE0149182021
:10055000ABBEFEE726000200704721B1826842F080
:100560000102826003E0826822F00102826070472B
:100570000021084A1168084A1140D0E900231A43B3
:1005800083681A43C3681A431143044AC2F8041328
:100590007047000004230140E030FCFF00200140D0
:1005A00030B50246002000235068104C20400D79E1
:1005B0000C6844EA05242043506090680C4C2040AD
:1005C000D1E903542C438D682C434D7944EA45040A
:1005D00020439060D06A20F470000C7D641EE4B269
:1005E000234340EA0350D06230BD0000FFFEFFFC11
:1005F000FDF7FFC0F0B504460D4600200021092D8F
:1006000011DDE068A5F10A0606EB4607072606FAA3
:1006100007F18843A5F10A0606EB460603FA06F140
:100620000843E0600CE0206905EB4507072606FA61
:1006300007F1884305EB450603FA06F108432061FC
:10064000072A0FDA606B561E06EB86071F2606FA8E
:1006500007F18843561E06EB860605FA06F10843A5
:10066000606322E00D2A0FDA206BD61F06EB8607A7
:100670001F2606FA07F18843D61F06EB860605FA01
:1006800006F10843206310E0E06AA2F10D0606EBD4
:1006900086071F2606FA07F18843A2F10D0606EB2E
:1006A000860605FA06F10843E062F0BD38B1084954
:1006B000096841F40001074AC2F8041306E004493E
:1006C000096821F40001034AC2F8041370470000CE
:1006D000042301400020014038B54FF4407000F081
:1006E00051FD4FF47A7001F0FBF801F063FA02F06B
:1006F00023F901F0B5FA01F085F901F033FA5A2136
:100700004EF6602000F0B8FE002005231A460121B5
:10071000009000F02FF8002005231A4601210090D8
:1007200000F0C8F8002408E0204601F0CDFA40F2BD
:10073000C52001F033F9601CC4B2042CF4DB38BDD1
:1007400000BFFEE710B50221084800F015FA58B1C5
:100750000221064800F038F9054A0021034800F05C
:100760002EFB034800F0A4FB10BD00000064004015
:10077000580402202DE9F0418AB004460D46164681
:100780001F46DDF840800121082000F005FD012111
:10079000480600F011FD0121480600F01DFD002172
:1007A0004FF0007000F018FD0320089002208DF833
:1007B000240000208DF8260003208DF8250001205C
:1007C0008DF8270008A92D4800F02CFC09220021F3
:1007D0002A4800F06FFC09220121284800F06AFC39
:1007E00000208DF81A0001208DF81B0000208DF8E4
:1007F0001C008DF81D008DF81E008DF81F008DF86F
:1008000016808DF817408DF818608DF81950ADF8E6
:10081000147005A91A4800F048FA00208DF80E005F
:100820008DF80F0001208DF810000020ADF80400B5
:10083000ADF80600ADF80800ADF80A00ADF80C0000
:1008400001208DF8110001A800F012F90122022107
:100850000B4800F021FA14208DF8000004208DF8D8
:10086000010000208DF8020001208DF80300684689
:1008700000F04CFC00200AB0BDE8F081000C024002
:100880000064004010B50221084800F075F958B125
:100890000221064800F098F8054A0021034800F0BC
:1008A0008EFA034800F004FB10BD00000068004011
:1008B0006C0402202DE9F0418AB004460D4616462C
:1008C0001F46DDF840800121022000F065FC012177
:1008D000880600F071FC0121880600F07DFC0021F3
:1008E0004FF0806000F078FC4FF4405008900220F8
:1008F0008DF8240000208DF8260003208DF82500B7
:1009000001208DF8270008A92D4800F08BFB092253
:100910000C212B4800F0CEFB09220D21284800F0C5
:10092000C9FB00208DF81A0001208DF81B00002063
:100930008DF81C008DF81D008DF81E008DF81F002D
:100940008DF816808DF817408DF818608DF81950C5
:10095000ADF8147005A91B4800F0A7F90E208DF81A
:100960000E0000208DF80F0001208DF810000020EF
:10097000ADF80400ADF80600ADF80800ADF80A00C7
:10098000ADF80C0001208DF8110001A800F070F8FE
:10099000012202210B4800F07FF940208DF8000071
:1009A00004208DF8010000208DF8020001208DF850
:1009B0000300684600F0AAFB00200AB0BDE8F08101
:1009C0000004024000680040B1F5007F3AD00FDC1F
:1009D000202928D006DC01291CD004291DD0082993
:1009E00040D11DE0402921D0B1F5807F3AD126E0E9
:1009F000B1F5004F31D006DCB1F5806F25D0B1F5EF
:100A0000006F2FD124E0B1F5803F12D0B1F5003F47
:100A100028D111E0154A826025E00822C26022E058
:100A20001022C2601FE0082202611CE01022026155
:100A300019E00822426016E01022426013E004220E
:100A4000426010E0042242600DE0042242600AE0AD
:100A5000002282610422426005E0002282610422B9
:100A6000426000E000BF00BF7047000001010100CC
:100A700010B50021837A012202FA03F13D4A12687F
:100A800042F001023B4B1A603A4A1C3212688A4318
:100A9000384B1C331A60027BCAB9364A0C321268D2
:100AA0008A43344B0C331A604288C38842EA0343BA
:100AB000304A4032847A42F834300288838842EAED
:100AC00003432C4A4032847A02EBC4025360027B17
:100AD000012A19D1274A0C3212680A43254B0C33DC
:100AE0001A604288038842EA0343224A4032847AE9
:100AF00042F83430C288838842EA03431D4A4032B8
:100B0000847A02EBC4025360C27A3AB9194A121DC0
:100B100012688A43174B1B1D1A6006E0154A121D06
:100B200012680A43134B1B1D1A60028932B9114A1D
:100B3000143212688A430F4B14331A600289012A57
:100B400006D10C4A143212680A430A4B14331A6055
:100B5000427B012A06D1074A1C3212680A43054B20
:100B60001C331A60034A126822F00102014B1A601A
:100B700010BD00000066004070B504460D4600261A
:100B800060692840002871D0B5F5807F5CD010DC0A
:100B9000082D35D006DC012D20D0022D24D0042DC7
:100BA00072D127E0102D31D0202D35D0402D6BD1C2
:100BB00038E0B5F5004F60D009DCB5F5007F49D0CD
:100BC000B5F5806F4CD0B5F5006F5DD14FE0B5F550
:100BD000803F2DD0B5F5003F56D12FE0A0682D49BC
:100BE00000F016FA064651E0E068032100F010FA22
:100BF00006464BE0E068082100F00AFA064645E0A8
:100C0000E068102100F004FA06463FE02069032165
:100C100000F0FEF9064639E02069082100F0F8F9F5
:100C2000064633E02069102100F0F2F906462DE077
:100C30006068082100F0ECF9064627E060681021A2
:100C400000F0E6F9064621E0A069012100F0E0F994
:100C500006461BE0A069022100F0DAF9064615E01D
:100C6000A069042100F0D4F906460FE00FE0A06966
:100C7000702100F0CDF9064608E06068042100F01C
:100C8000C7F9064602E0FFE7002600BF00E00026A5
:100C9000304670BD010101001AB143690B43436145
:100CA00002E043698B434361704730B50246002040
:100CB0000023146824F002041460146844F0010452
:100CC000146000E05B1C546804F001041CB94FF68A
:100CD000FF74A342F6D1546804F001040CB900205B
:100CE0006CE08C79012C04D1146844F08004146009
:100CF00003E0146824F080041460CC79012C04D142
:100D0000146844F04004146003E0146824F04004C4
:100D100014600C7A012C04D1146844F0200414608F
:100D200003E0146824F0200414604C7A012C04D1F0
:100D3000146844F01004146003E0146824F01004F4
:100D400014608C7A012C04D1146844F008041460F7
:100D500003E0146824F008041460CC7A012C04D158
:100D6000146844F00404146003E0146824F00404DC
:100D700014608C78A407CD7844EA05640D7944EAC0
:100D800005444D7944EA05540D886D1E2C43D46109
:100D9000146824F001041460002300E05B1C546814
:100DA00004F001041CB14FF6FF74A342F6D154685D
:100DB00004F001040CB1002000E0012030BD10B5AA
:100DC00000F5D87303EB01131B6803F004031372DF
:100DD000137A53B900F5D87303EB01131B6840F283
:100DE000FF7404EA5353136009E000F5D87303EB72
:100DF00001131B686FF0604404EAD303536000F5ED
:100E0000D87303EB01131B6803F00203537200F560
:100E1000D87303EB01135B6803F00F03937200F5C3
:100E2000D87303EB01135B681B0AD37400F5D87306
:100E300003EB01139B68D37200F5D87303EB011326
:100E40009B681C0A147300F5D87303EB01139B68AD
:100E50001C0C547300F5D87303EB01139B681B0E35
:100E6000937300F5D87303EB0113DB68D37300F5BC
:100E7000D87303EB0113DB681C0A147400F5D873F4
:100E800003EB0113DB681C0C547400F5D87303EBFF
:100E90000113DB681B0E937421B9C36843F0200370
:100EA000C36003E0036943F02003036110BD000049
:100EB0000168A1F2012107297DD2DFE801F058592C
:100EC0005A5B04203C004D49098809B24B4A118104
:100ED000017BC27A41EA0221484A1180827B417B30
:100EE00042EA012109B2454A9180027CC17B42EA73
:100EF000012109B2414A5180417C91717CE0404915
:100F0000098809B23E4A1181017BC27A41EA022175
:100F10003B4A1180827B417B42EA012109B2384A77
:100F20009180027CC17B42EA012109B2344A51809E
:100F3000417C917160E03349098809B2314A1181DD
:100F4000017BC27A41EA02212E4A1180827B417BD9
:100F500042EA012109B22B4A5180027CC17B42EA5C
:100F6000012109B2274A9180417C917144E000BF80
:100F700000BF00BF0178491E234A1170114609784D
:100F800001EB8101214A32F8111009B21E4A127890
:100F900002EB82021D4B03EB42021181017BC27AFC
:100FA00041EA0221184A127802EB820223F8121059
:100FB000827B417B00E01EE042EA012109B2124A35
:100FC000127802EB820203EB42025180027CC17B69
:100FD00042EA012109B20C4A127802EB820203EBC9
:100FE00042029180417C084A127802EB820203EBB4
:100FF0004202917100E000BF00BF7047F40302207D
:10100000FE03022008040220900000201C0402209D
:101010000246002002EA01030BB1012000E000209B
:1010200070477047F0B50A4600210023002400BF36
:101030003DE0012505FA01F3156805EA03049C4229
:1010400034D105684F000326BE40B54305601579CD
:101050004E00B5400668354305601579012D02D074
:101060001579022D16D185684F000326BE40B54381
:10107000856055794E00B540866835438560456882
:1010800001268E40B5434560456896798E40B6B2DC
:1010900035434560C5684F000326BE40B543C56073
:1010A000D5794E00B540C6683543C560491C102946
:1010B000BFD3F0BDF0B5002300244D07ED0E02FABA
:1010C00005F3CE1000F1200555F826504E07F70E17
:1010D0000F26BE40B543CF1000F1200646F827503A
:1010E000CE1000F1200555F8265045EA0304CE1035
:1010F00000F1200545F82640F0BD4183704701838B
:10110000704700BFFEE700BFFEE7704770B50021E3
:1011100000230F22C4781CB3174C246804F4E06445
:10112000C4F5E064C4F30721C1F10404E3B20A4149
:1011300044789C40E1B28478144021430C07210E8E
:101140000E4C05786155047804F01F050124AC406D
:1011500005786D11AD0005F1E025C5F8004109E005
:10116000047804F01F050124AC40054D0678761183
:1011700045F8264070BD00000CED00E000E400E002
:1011800080E100E002490143024A1160704700001B
:101190000000FA050CED00E029B1064A126802438E
:1011A000044B1A6004E0034A12688243014B1A6040
:1011B000704700003038024029B1064A12680243E5
:1011C000044B1A6004E0034A12688243014B1A6020
:1011D000704700004038024029B1064A12680243B5
:1011E000044B1A6004E0034A12688243014B1A6000
:1011F000704700002038024029B1064A12680243B5
:10120000044B1A6004E0034A12688243014B1A60DF
:10121000704700004438024029B1064A1268024370
:10122000044B1A6004E0034A12688243014B1A60BF
:10123000704700002438024010B504460BE000BFA0
:101240004021074800F038FB0028F9D021780448F5
:1012500000F03FFB641C20780028F0D110BD000096
:10126000001401400CB50020019000904148006836
:1012700040F480303F49086000BF3E48006800F4F9
:10128000003000900198401C0190009818B9019816
:10129000B0F5A04FF1D13748006800F4003010B12C
:1012A0000120009001E0002000900098012860D10A
:1012B00030484030006840F080502E49403108608E
:1012C0002D48006840F440402B4908602948083008
:1012D00000682849083108600846006840F400406A
:1012E00008600846006840F4A05008602348091FC1
:1012F0000860081F006840F08070091F086000BF88
:101300001C48006800F000700028F9D01A480068F6
:1013100040F480301849086000BF1748406800F466
:1013200080300028F9D01448006840F40030124999
:10133000086000BF1048406800F400300028F9D071
:1013400040F205700E4908600A480830006820F035
:1013500003000849083108600846006840F00200B0
:10136000086000BF03480830006800F00C0008283F
:10137000F8D10CBD0038024000700040062D400836
:10138000003C0240042808D14FF0E021096941F0F7
:1013900004014FF0E022116107E04FF0E0210969FC
:1013A00021F004014FF0E0221161704710B502F006
:1013B00005FA012801D001F0AFFE10BD10B51548A7
:1013C000006840F47000134908601348006840F05A
:1013D00001001149086000200F49083108600E48DB
:1013E00000680E4908400C4908600D48091D086056
:1013F000081F006820F48020091F086000200649AB
:101400000C310860FFF72EFF4FF000600149803972
:10141000086010BD88ED00E000380240FFFFF6FED6
:101420001030002410B50121084800F053F960B1D4
:101430000121064800F068F8054802684068521C1F
:1014400040F1000002490A60486010BD00040040FD
:101450009800002010B50121064800F03BF938B192
:101460000121044800F050F80021024800F04FF834
:1014700010BD0000001000407FB505460C4601215C
:101480001020FFF799FE01211020FFF7A5FE002193
:101490001020FFF7A1FE154800F054F8681E0290D6
:1014A000601E80B2ADF804000020ADF80600ADF873
:1014B0000C0001A90D4800F0BDF9012211460B48AE
:1014C00000F019F936208DF8000004208DF8010095
:1014D00000208DF8020001208DF803006846FFF718
:1014E00015FE0121014800F012F87FBD00100040F8
:1014F00021B1028842F08002028004E002884FF6A7
:101500007F731A4002807047CA430282704721B13C
:10151000028842F00102028004E002884FF6FE7366
:101520001A400280704731B1B0F8442042F40042C2
:10153000A0F8442005E0B0F84420C2F30E02A0F861
:101540004420704710B504465548844208D1012113
:101550000846FFF761FE00210120FFF75DFE9DE0D8
:10156000B4F1804F08D101210846FFF735FE002174
:101570000120FFF731FE91E04A48844208D1012161
:101580000220FFF729FE00210220FFF725FE85E05B
:101590004548844208D101210420FFF71DFE0021A7
:1015A0000420FFF719FE79E04048844208D1012168
:1015B0000820FFF711FE00210820FFF70DFE6DE067
:1015C0003B48844208D101211020FFF705FE00218D
:1015D0001020FFF701FE61E03648844208D1012166
:1015E0002020FFF7F9FD00212020FFF7F5FD55E051
:1015F0003148844208D101210220FFF70DFE00216D
:101600000220FFF709FE49E02C48844209D101215C
:101610000804FFF701FE00214FF48030FFF7FCFDC6
:101620003CE02748844209D101214804FFF7F4FD3A
:1016300000214FF40030FFF7EFFD2FE021488442F6
:1016400009D101218804FFF7E7FD00214FF4802034
:10165000FFF7E2FD22E01C48844208D1012140202E
:10166000FFF7BAFD00214020FFF7B6FD16E017484E
:10167000844208D101218020FFF7AEFD00218020A7
:10168000FFF7AAFD0AE01248844207D10121801524
:10169000FFF7A2FD0021A015FFF79EFD10BD000081
:1016A000000001400004004000080040000C004021
:1016B00000100040001400400004014000400140C0
:1016C000004401400048014000180040001C004058
:1016D0000020004030B50246002000230024158A77
:1016E00005EA0103958905EA010413B10CB1012053
:1016F00000E0002030BD1AB183890B43838102E0F2
:1017000083898B438381704770B5002400220023B6
:10171000058C4FF6FE7635400584028C8388048B59
:101720004FF68F752C40B51E2C400D882C43751E2E
:101730002A408D892A434D882A43104DA84202D061
:101740000F4DA84213D14FF6F7752A40CD892A4391
:101750004FF6FB752A408D882A434FF6FF652B40D4
:101760004FF6FF552B400D8A2B434D8A2B43838028
:1017700004838D684563028470BD00000000014051
:10178000000401400A460021018B4FF6F77319400F
:10179000114301837047000070B50022002300242C
:1017A000058C4EF6FF7635400584038C8488828B49
:1017B00048F6FF752A404FF6FF452A400D884FF640
:1017C000FF7606EA05252A434DF6FF752B408D89E5
:1017D00006EA05352B434D8806EA05352B430A4DAD
:1017E000A84202D0094DA84208D14BF6FF752C4003
:1017F0000D8A4FF6FF7606EA85152C438480828396
:101800008D680564038470BD000001400004014040
:101810000A460021818B4FF2FF7319404FF6FF7388
:1018200003EA0223194381837047416370470164CF
:101830007047000000220288184B98420ED0184BC7
:1018400098420BD0B0F1804F08D0164B984205D08B
:10185000154B984202D0154B984204D14FF68F7326
:101860001A404B881A43124B984207D0114B9842AA
:1018700004D04FF6FF431A400B891A4302804B688D
:10188000C3620B880385054B984202D0044B9842F3
:1018900001D18B7A038601238382704700000140C7
:1018A000000401400004004000080040000C00401B
:1018B000001000400014004002460020B1F5007FF7
:1018C00000D100BF13880B400BB1012000E00020C5
:1018D0007047C1F308028280704700BFFEE7000036
:1018E00070B504460025681FFFF74CFD13480068DB
:1018F0001349B0FBF1F013490870104800684FF429
:10190000FA51B0FBF1F0104908600CB94FF47A7449
:101910000A480068B0FBF4F0C5086D1E4FF0E020E7
:10192000006940F002004FF0E0210861084645617F
:10193000006940F00100086170BD00000000002057
:1019400000127A00880000208C00002070B5034649
:10195000002400210020002200254FF0E0267569B8
:101960000D4E366803FB06F44FF0E026B16910E037
:101970004FF0E026B06988420BD0884202D20E1A9E
:10198000324402E02E1A0E4432440146A24200D3F1
:1019900000E0EDE700BF70BD8C00002070B503468D
:1019A000002400210020002200254FF0E026756968
:1019B0000D4E367803FB06F44FF0E026B16910E0D7
:1019C0004FF0E026B06988420BD0884202D20E1A4E
:1019D000324402E02E1A0E4432440146A24200D3A1
:1019E00000E0EDE700BF70BD8800002010B50446A0
:1019F0004FF4807040FA04F10148FFF780FB10BDFE
:101A00000018024000B58BB001210846FFF7C4FB67
:101A100001211020FFF7C0FB01210846FFF7ECFB76
:101A2000012208214448FFF745FB01220E214348CB
:101A3000FFF740FB4FF48070099002208DF82800DA
:101A400000208DF829008DF82A008DF82B0009A9B7
:101A50003948FFF7E7FA4FF48040099009A9374861
:101A6000FFF7E0FA01210846FFF7D6FB002101202D
:101A7000FFF7D2FB40F2CF700790B320ADF818000B
:101A80000020ADF81A00ADF8200006A92C48FFF799
:101A9000D1FE6020ADF804000120ADF80600002062
:101AA000ADF81000ADF808000820ADF812004001B4
:101AB000ADF814000020ADF816004FF47A700390D2
:101AC00001A91F48FFF720FE01A91D48FFF764FE8A
:101AD00008211B48FFF756FE08211948FFF798FE1A
:101AE00001211748FFF704FD01211548FFF71BFDF1
:101AF00001211348FFF70BFD00F026F801212020FB
:101B0000FFF74AFB4FF48060099000208DF8280011
:101B10008DF82A0003208DF8290001208DF82B0074
:101B200009A90848FFF77EFA4FF480610548FFF7DE
:101B3000E6FA0BB000BD00000000024000100240B9
:101B4000000001400014024010B54FF47A710448BF
:101B5000FFF76BFE4FF47A710148FFF768FE10BD86
:101B6000000001401CB501214020FFF715FB4FF498
:101B70000050009001208DF8040000208DF8060030
:101B800003208DF8050001208DF807006946034801
:101B9000FFF748FA00F004F81CBD000000180240EE
:101BA00010B54FF400510248FFF7A9FA10BD00002C
:101BB000001802401CB501217020FFF7EDFA4FF428
:101BC0008040009001208DF8040000208DF8060070
:101BD00003208DF8050001208DF8070069460D48A7
:101BE000FFF720FA4FF40060009069460A48FFF7BB
:101BF00019FA00F015F800F01DF84FF4FF7000908E
:101C000069460648FFF70EFA4FF4FF70FFF7EEFE45
:101C10001CBD0000001402400010024000180240E9
:101C200010B54FF480410248FFF769FA10BD00007B
:101C30000014024010B54FF400610248FFF75FFA4C
:101C400010BD000000100240FEF746FD6420FFF7C3
:101C50007DFE00F023FE01F029F900BFFEE7000041
:101C60001CB501218020FFF797FA3C20009001204D
:101C70008DF8040000208DF8060003208DF8050083
:101C800001208DF8070069460648FFF7CBF90024CC
:101C900004E0204600F008F8601CC4B2042CF8DB15
:101CA0001CBD0000001C024010B50446032C00DDE2
:101CB00010BD0420A04081B20248FFF71EFA00BF09
:101CC000F6E70000001C024010B50446032C00DDBE
:101CD00010BD0420A04081B20248FFF710FA00BFF7
:101CE000F6E70000001C02402DE9F04105460E46D3
:101CF0001C4807681C480068001D00F055FE50B9DC
:101D00001948006890F82C1001208840174909688C
:101D1000814316480160681C38B936B11248016821
:101D2000091D134800F07EFE1AE07C190E48006879
:101D30004460BC4207D20C480168091D0D48006888
:101D400000F056FE0CE008480168091D0A480068CA
:101D500000F04EFE09480068844201D20748046042
:101D6000BDE8F08128000020140000202C00002095
:101D7000B80300201C0000201800002044000020B0
:101D800010B5044600F05AFE24480068401C234960
:101D900008602348006840B921480460084600688C
:101DA00001280DD100F0E0F90AE01E48006838B9BA
:101DB0001B480068C06AE16A884201D8184804607C
:101DC00019480068401C18490860084600686064AB
:101DD00094F82C10012088401449096808431349DD
:101DE0000860E16A01EB8101114A02EB8100211DCB
:101DF00000F018FE00F04CFE0A48006868B1084880
:101E00000068C06AE16A884207D24FF080500949F1
:101E10000860BFF34F8FBFF36F8F10BD2400002009
:101E20001400002030000020400000202C00002082
:101E3000E800002004ED00E010B500F0FFFD1048C0
:101E40000068D0B90F4800F0C3FD0F4800F0C0FD96
:101E50000C480E4908600C480D49086000220C210E
:101E60000A2001F073F9064908600846006820B1AD
:101E700008A10348006800F0B1FE00F009FE10BDA3
:101E800058000020CC030020E00300205000002078
:101E900054000020546D72510000000070B523E022
:101EA00001F04EF81348006808B9012000E0002056
:101EB000054601F0EDFDBDB900F0C0FD0D48C0685C
:101EC000C468201D00F070FD0B480068401E0A49E0
:101ED00008600A480068401E0849086000F0D8FD04
:101EE000204600F060F800BF044800680028D7D101
:101EF00070BD0000A403002024000020200000206A
:101F000070B504460D46206C70B1216CE068084441
:101F1000E0606168E068884201D32068E06028469C
:101F2000226CE168FEF714FA70BD2DE9F041044619
:101F30000F4615464FF00008A66B206C40B920688C
:101F400060BB606801F0F4FC80460020606025E022
:101F50007DB93946226CA068FEF7FAF9216CA068B9
:101F60000844A060D4E90110884217D32068A0601B
:101F700014E03946226CE068FEF7EAF9216CE0686B
:101F8000401AE0602168E068884203D2216C6068F2
:101F9000401AE060022D01D106B1761E701CA063CC
:101FA0004046BDE8F08110B50446206B00F08EFD80
:101FB000204600F08BFD10BD0146084A12681268E9
:101FC0000AB9012200E000220A600A6822B9034A25
:101FD0001268D268106800E00020704750000020AE
:101FE00030B54FF40033174800F007042CB1C01D82
:101FF00020F00700134C041B1B1B0246124C2260EE
:102000000024114D6C60D018083820F007000F4CE8
:10201000206000240D4D2D686C600C4D2D682C60E7
:102020001146441A4C60094C24680C60084D4C68F9
:102030002C60084D4C682C604FF00044064D2C601D
:1020400030BD0000F4030020640000206C0000207C
:1020500074000020700000207800002000BFFFF70F
:102060001DFF064800680128F9D94FF08050044947
:102070000860BFF34F8FBFF36F8FF0E7E8000020D9
:1020800004ED00E02DE9F04106460D46174698465E
:10209000069C0DB9246000E02760E66325640121F9
:1020A000204601F061F984F850800020A064BDE86A
:1020B000F0812DE9F05F82460F4690469B460A9ECE
:1020C0000C9C4FEA8801A522206BFEF786F9A8F147
:1020D0000100216B01EB800929F0070909F00700D5
:1020E00008B9012000E0002050B900BF502080F363
:1020F0001188BFF34F8FBFF36F8F00BF00BFFEE7A4
:10210000002507E0795D04F134004155785D00B9A0
:1021100002E06D1C102DF5D300BF002143200155B6
:10212000202E00D31F26E662E66400202065201DD5
:1021300000F05BFC04F1180000F057FC2461C6F1CC
:102140002000A06164620020606584F858005A464F
:102150005146484600F08CFB20600B9808B10B9864
:102160000460BDE8F09F000010B5002407E004EB18
:1021700084010F4A02EB810000F02AFC641C202C31
:10218000F5D30C4800F024FC0B4800F021FC0B4870
:1021900000F01EFC0A4800F01BFC0A4800F018FC86
:1021A00004480949086004480849086010BD000057
:1021B000E8000020680300207C030020900300203A
:1021C000A4030020B8030020180000201C000020F9
:1021D00010B50146164800E0006803688B42FBD347
:1021E0000246436813448B4204D143684C6823443D
:1021F000436001460A464B6813440468A34211D168
:102200000C4C03682468A34208D04B6804686468D7
:1022100023444B6003681B680B6005E0054B1B689B
:102220000B6001E003680B60884200D0016010BDC4
:10223000640000206C0000202DE9F04104460D46AA
:1022400016461F464FF0000865602461B5420CD861
:10225000F01BA169884202D34FF0010811E0211D53
:102260000948006800F0C4FB0BE0BE4204D2BD4246
:1022700002D34FF0010804E0211D0448006800F07B
:10228000B7FB4046BDE8F08154000020500000201C
:1022900070B5054600F0D2FBA86B08B9012400E038
:1022A000002400F0F5FB204670BD70B5054600F037
:1022B000C5FBA86BE96B884201D1012400E0002432
:1022C00000F0E6FB204670BD2DE9F3410D46009875
:1022D000846C002754B900BF502080F31188BFF3ED
:1022E0004F8FBFF36F8F00BF00BFFEE7A06BE16BA6
:1022F000884201D2012000E0002050B900BF5020E8
:1023000080F31188BFF34F8FBFF36F8F00BF00BF03
:10231000FEE7A06BE16B88421BD294F945602A4628
:1023200069462046FFF701FE0746701C60B9606AE7
:1023300008B9012000E0002050B904F1240001F0A8
:102340005BFB28B1012703E0701C40B284F8450014
:1023500000BF3846BDE8FC81F8B505460F46164873
:102360000068C068C468201D00F01EFBE0690128F9
:102370001DD1A06941192B463A462046FFF75CFF64
:10238000A8B1002003462A4601460090204601F0ED
:102390002BFC064656B900BF502080F31188BFF3CE
:1023A0004F8FBFF36F8F00BF00BFFEE700BF204617
:1023B000616A8847F8BD00005000002070B586B003
:1023C0006AE00398002867DB059C606908B9012072
:1023D00000E0002010B9201D00F0E6FA02A800F08D
:1023E000BDF8054603980A2854D2DFE800F0090535
:1023F0000731334F0608323400BF00BF00BF00BFB3
:102400000498A269811803462A462046FFF714FF64
:10241000E8B12046616A8847E069012817D10020A9
:1024200000900498A169421800231946204601F043
:10243000DBFB064656B900BF502080F31188BFF37E
:102440004F8FBFF36F8F00BF00BFFEE700BF22E0DA
:1024500000BF20E000BF0498A061A06908B101207E
:1024600000E0002050B900BF502080F31188BFF376
:102470004F8FBFF36F8F00BF00BFFEE7A069411908
:102480002B462A462046FFF7D7FE04E0204600F000
:102490001DFB00E000BF00BF00231A4603A904484B
:1024A000006800F07FFE00288BD106B070BD0000F0
:1024B00058000020F8B505460C4600F041FD68467E
:1024C00000F04CF80646009820BB44B9B54206D847
:1024D00001F0DEFA31462846FFF73EFF1CE03CB132
:1024E0000E480068006808B9012000E0002004469A
:1024F000A91B22460A48006800F086FB01F0C8FAD2
:1025000050B94FF0805007490860BFF34F8FBFF3B9
:102510006F8F01E001F0BCFAF8BD0000540000200C
:102520005800002004ED00E00A490968096809B96B
:10253000012100E0002121B14FF0FF31064A116076
:1025400006E004490968C968C868034A416811601F
:1025500070470000180000204400002070B50446B9
:1025600001F03CF9054607480068854204D200F0B6
:102570000BF80120206001E0002020600148056088
:10258000284670BD600000202DE9F84332E0244861
:102590000068C068056822480068C068C468201DDB
:1025A00000F002FA2046616A8847E069012821D1DB
:1025B000A0694619AE4207D966602461211D1848FA
:1025C000006800F015FA15E0002003462A4601468F
:1025D0000090204601F008FB074657B900BF502085
:1025E00080F31188BFF34F8FBFF36F8F00BF00BF21
:1025F000FEE700BF0A480068006808B9012000E053
:1026000000200028C3D00648D0F8008005480068A4
:10261000034908600348C0F80080BDE8F883000063
:1026200050000020540000200E480068401C08B9EB
:10263000012000E0002050B900BF502080F3118835
:10264000BFF34F8FBFF36F8F00BF00BFFEE700BF28
:10265000502080F31188BFF34F8FBFF36F8F00BFFF
:1026600000BFFEE77C00002008B500BF6846FFF70A
:10267000A3FC044620460099FFF71CFFFFF79EFECF
:10268000F4E770B5044600F0D9F994F945501AE022
:10269000A06C38B100212046FFF716FE88B100F08B
:1026A00053FB0EE0606A08B9012000E0002038B951
:1026B00004F1240001F0A0F918B100F045FB00E09E
:1026C00003E0681E45B2002DE2DC00BFFF2084F865
:1026D000450000F0DDF900F0B1F994F9445010E044
:1026E000206908B9012000E0002048B904F1100079
:1026F00001F082F908B100F027FB681E45B200E046
:1027000001E0002DECDC00BFFF2084F8440000F065
:10271000BFF970BD2DE9F04104464FF0000800F00C
:102720000FFC4648006808B9FFF75AFC44480068A7
:10273000204000286BD1D4B1083404F00700B0B1B8
:1027400004F00700C0F10800044404F0070008B9D1
:10275000012000E0002050B900BF502080F3118814
:10276000BFF34F8FBFF36F8F00BF00BFFEE7002C9A
:102770004DD034480068844249D8334E304605680D
:1027800001E02E462D686868A04202D22868002821
:10279000F7D12A480068854239D0306800F108082E
:1027A000286830606868001B102819D92F1907F0B5
:1027B000070008B9012000E0002050B900BF5020F8
:1027C00080F31188BFF34F8FBFF36F8F00BF00BF3F
:1027D000FEE76868001B78606C603846FFF7F8FC1D
:1027E000184968680968081A1649086008460068A8
:1027F00016490968884203D21248006813490860E4
:102800000F4968680968084368600020286001F083
:102810003FF908F0070008B9012000E0002050B996
:1028200000BF502080F31188BFF34F8FBFF36F8F2D
:1028300000BF00BFFEE74046BDE8F0816C0000200D
:102840007800002070000020640000207400002048
:102850000648006830B10549096801F15000096D6A
:10286000491C016001480068704700001400002006
:10287000001F4FF080730360001F21F0010303600D
:10288000001F054B036014380260001F6FF0020345
:102890000360203870470000292600081CB5054851
:1028A000012100234A02CDE9001003A1054800F0F0
:1028B00055FF1CBDA000002073746172745F7461C9
:1028C000736B0000C92800081CB5044600F0B6F878
:1028D000084802210023CA01CDE9001006A10948D9
:1028E00000F03CFF0848006800F0B4F900F0D0F8B0
:1028F0001CBD0000A4000020746573745F746173D4
:102900006B0000008D290008A000002000B587B0F2
:10291000002001908DF808008DF8090003900590C3
:1029200001208DF8180001A90248FDF739FE07B013
:1029300000BD0000002001401FB501210802FEF784
:102940005BFC01210802FEF767FC00214FF4807058
:10295000FEF762FC0120FDF7A9FE00200090039025
:1029600002904FF4803001906846FDF701FEFFF7BA
:10297000CDFF01231A4612210348FDF73BFE01213A
:102980000148FDF7EAFD1FBD0020014005E003A05E
:10299000FEF752FC6420FEF7D9FFF8E748656C6C3F
:1029A0006F2062656172730001460A69D1E90130E6
:1029B0009860D1E9010358605068884201D1886865
:1029C0005060002008611068401E10601068704759
:1029D00000F1080141604FF0FF31816000F1080112
:1029E000C1600161002101607047002101617047F1
:1029F00010B502460B685C1C0CB9106907E002F1C7
:102A0000080000E04068446824689C42FAD94468A1
:102A10004C604C68A160886041600A611468641C65
:102A2000146010BD42684A6093688B609368596077
:102A30009160086103685B1C0360704700BF502011
:102A400080F31188BFF34F8FBFF36F8F00BF0E4825
:102A50000068401C0C49086008460068012812D133
:102A60000A480068C0B208B9012000E0002050B94F
:102A700000BF502080F31188BFF34F8FBFF36F8FDB
:102A800000BF00BFFEE770477C00002004ED00E0BF
:102A90000D48006850B900BF502080F31188BFF383
:102AA0004F8FBFF36F8F00BF00BFFEE7064800687F
:102AB000401E054908600846006820B9002080F3E0
:102AC000118800BF00BF70477C00002070B506462B
:102AD0003546002E3FD0083D2C461F4960680968E6
:102AE000084008B1012000E0002050B900BF50208C
:102AF00080F31188BFF34F8FBFF36F8F00BF00BF0C
:102B0000FEE7206808B9012000E0002050B900BFAE
:102B1000502080F31188BFF34F8FBFF36F8F00BF3A
:102B200000BFFEE70C4960680968084098B120685A
:102B300088B90949606809688843606000F000FA54
:102B40000649606809680844044908602046FFF7A0
:102B50003FFB00F09DFF70BD78000020700000205A
:102B60007047000070B5FDF7C9FB0446102C16D362
:102B700004F1E02090F8F05315480078854201DB1D
:102B8000012000E0002050B900BF502080F31188E0
:102B9000BFF34F8FBFF36F8F00BF00BFFEE70D483D
:102BA000006800F4E0600C490968884201D80120FF
:102BB00000E0002050B900BF502080F31188BFF31F
:102BC0004F8FBFF36F8F00BF00BFFEE770BD0000E7
:102BD000800000200CED00E0840000200246002070
:102BE0000BE0084B53F8303033B9064B43F8301044
:102BF00003EBC0035A6002E0401C0828F1D300BF79
:102C000070470000A80000202DE9F04105460E465F
:102C100017462C46FFF712FF94F94400401C10B9E8
:102C2000002084F8440094F94500401C10B90020AD
:102C300084F84500FFF72CFFA06B28B93A463146CF
:102C400004F1240000F0A2F82046FFF71AFDBDE8C9
:102C5000F081000070B50546FFF7F0FE15B9304869
:102C6000006800E028460446201DFFF79DFE78B965
:102C7000E06A00EB80002B4951F8200040B994F83D
:102C80002C100120884028490968814326480160AA
:102C9000A06A18B104F11800FFF786FE2348006807
:102CA000401C224908601E480068844209D1211D49
:102CB0001F48FFF7B7FE1F480068401C1D49086009
:102CC00009E01D480068401E1B4908602046FFF7C8
:102CD0006AF9FFF729FCFFF7DBFE18480068E8B146
:102CE0000F480068844219D11548006808B90120CE
:102CF00000E0002050B900BF502080F31188BFF3DE
:102D00004F8FBFF36F8F00BF00BFFEE74FF08050C3
:102D10000C490860BFF34F8FBFF36F8F70BD000089
:102D200014000020E80000202C00002040000020BB
:102D3000A4030020200000202400002030000020F8
:102D40004C00002004ED00E00120014908607047BC
:102D50003800002070B504460D4654B900BF50201D
:102D600080F31188BFF34F8FBFF36F8F00BF00BF99
:102D7000FEE70548016818312046FFF739FE0121BA
:102D80002846FEF7B1FF70BD1400002070B505465F
:102D90000E46144655B900BF502080F31188BFF38A
:102DA0004F8FBFF36F8F00BF00BFFEE7064801687B
:102DB00018312846FFF736FE0CB14FF0FF3621469A
:102DC0003046FEF791FF70BD1400002070B5054637
:102DD0002C46002D4BD02649E06A0968C96A884212
:102DE00045D2A06900F0004028B921480068C06AB7
:102DF000C0F12000A061E16A01EB81011D4A02EBF4
:102E000081016069884201D1012000E0002050B3B7
:102E1000201DFFF7C9FD78B9E06A00EB8000154975
:102E200051F8200040B994F82C1001208840124934
:102E300009688143104801600D480068C06AE0627B
:102E400094F82C10012088400B49096808430A496E
:102E50000860E16A01EB8101064A02EB8100211D55
:102E6000FFF7E0FD03E002480068C06AE06270BD61
:102E700014000020E80000202C00002050B900BF02
:102E8000502181F31188BFF34F8FBFF36F8F00BFC5
:102E900000BFFEE703490968016003490968416012
:102EA000704700003C000020280000201CB51D4891
:102EB00000210B468022CDE900101BA11C4800F028
:102EC0004DFC0446012C02D100F064FE0446012CA6
:102ED00015D100BF502080F31188BFF34F8FBFF38F
:102EE0006F8F00BF4FF0FF30124908600120124978
:102EF000086000201149086000F070F810E0601CC4
:102F000008B1012000E0002050B900BF502080F33C
:102F10001188BFF34F8FBFF36F8F00BF00BFFEE775
:102F20001CBD00004800002049444C450000000042
:102F30005D20000844000020300000202800002010
:102F400002480068401C0149086070474C0000209E
:102F50001D48006818B101201C49086032E00020BB
:102F60001A4908601A480068B0FA80F0C0F11F01E1
:102F700001EB8100174A52F8200008B1012000E05F
:102F8000002050B900BF502080F31188BFF34F8F4D
:102F9000BFF36F8F00BF00BFFEE701EB81020D4B57
:102FA00003EB820042685268426000F10802436805
:102FB000934202D14268526842604268D268064B2E
:102FC0001A6000BF704700004C000020380000204D
:102FD0002C000020E8000020140000201CB5474809
:102FE00000684749884201D0012000E0002050B924
:102FF00000BF502080F31188BFF34F8FBFF36F8F56
:1030000000BF00BFFEE73D4800683D49491E8842B9
:1030100001D0012000E0002050B900BF502080F313
:103020001188BFF34F8FBFF36F8F00BF00BFFEE764
:103030003449084600780190FF200A46107008467F
:10304000007800909DF8000000F0F0009DF800204E
:10305000904201D1012000E0002050B900BF502073
:1030600080F31188BFF34F8FBFF36F8F00BF00BF96
:10307000FEE79DF8000000F05000234A1070072082
:10308000224A106009E021480068401E1F4A106073
:103090009DF800004006000E00909DF8000000F032
:1030A00080008028EFD0194800680002174A10609D
:1030B0001046008800F4E0601060124A0198107019
:1030C0000E482030006840F470000C492031086040
:1030D0000846006840F070400860FFF741FD00209E
:1030E0000B490860FDF7D2F80A48006840F04040FC
:1030F00008490860FDF7BAF800201CBD00ED00E0AB
:1031000071C20F4100E400E0800000208400002034
:103110007C00002034EF00E010B500BF502080F3A9
:103120001188BFF34F8FBFF36F8F00BF00F05CFBC0
:1031300018B14FF080500449086000BF002080F3B0
:10314000118800BF10BD000004ED00E02DE9F84338
:1031500005460E4690460DB1012000E0002050B912
:1031600000BF502080F31188BFF34F8FBFF36F8FE4
:1031700000BF00BFFEE70EB9002701E005FB06F720
:1031800007F15400FFF7C6FA044644B104F15409AC
:1031900043464A46314628460094FEF773FF2046D0
:1031A000BDE8F8832DE9FF4782B005460E461F466D
:1031B0004FF0000A2C4654B900BF502080F311880C
:1031C000BFF34F8FBFF36F8F00BF00BFFEE70EB995
:1031D000206C08B9012000E0002050B900BF502049
:1031E00080F31188BFF34F8FBFF36F8F00BF00BF15
:1031F000FEE700F0E3FA08B9049808B9012000E0FE
:10320000002050B900BF502080F31188BFF34F8FCA
:10321000BFF36F8F00BF00BFFEE700BFFFF70EFCDC
:10322000D4F83890B9F1000F3DD0D4F80C80314675
:103230002046FEF765FEDFB9A9F10100A063206812
:1032400010B9FFF705FB6060206908B9012000E0B4
:10325000002010BB04F1100000F0CEFBE8B14FF0ED
:10326000805040490860BFF34F8FBFF36F8F14E069
:10327000C4F80C80606A08B9012000E0002060B941
:1032800004F1240000F0B8FB38B14FF0805035490C
:103290000860BFF34F8FBFF36F8FFFF7F9FB01207B
:1032A00006B0BDE8F087049818B9FFF7F1FB0020DD
:1032B000F6E7BAF1000F04D16846FFF7DFFD4FF0E3
:1032C000010AFFF7E5FBFFF73BFEFFF7B7FB94F9B9
:1032D0004400401C10B9002084F8440094F94500D3
:1032E000401C10B9002084F84500FFF7D1FB04A969
:1032F000684600F0EDF940BB2046FEF7C9FFF0B18B
:10330000206830B9FFF79AFB6068FFF75FFDFFF7B1
:10331000BFFB04F124000499FFF71CFD2046FFF7D2
:10332000B0F900F0B5FB00287FF478AF4FF0805083
:103330000C490860BFF34F8FBFF36F8F6EE72046D5
:10334000FFF79FF900F0A4FB68E72046FFF799F923
:1033500000F09EFB2046FEF79BFF0028EED00020E9
:103360009EE7000004ED00E070B505460E462C46D1
:1033700054B900BF502080F31188BFF34F8FBFF3C3
:103380006F8F00BF00BFFEE7FFF758FBD4E90F12B5
:10339000206801FB020060600020A0632068A0603C
:1033A000E06B401E226C216800FB0210E060FF20F1
:1033B00084F8440084F845009EB9206908B90120CA
:1033C00000E00020A8B904F1100000F015FB80B166
:1033D0004FF0805009490860BFF34F8FBFF36F8FE4
:1033E00007E004F11000FFF7F3FA04F12400FFF7FF
:1033F000EFFAFFF74DFB012070BD000004ED00E087
:103400002DE9FF4383B0064688461D464FF000096C
:10341000344654B900BF502080F31188BFF34F8F5A
:10342000BFF36F8F00BF00BFFEE7B8F1000F01D1FF
:10343000206C08B9012000E0002050B900BF5020E6
:1034400080F31188BFF34F8FBFF36F8F00BF00BFB2
:10345000FEE7022D02D1E06B012801D1012000E03E
:10346000002050B900BF502080F31188BFF34F8F68
:10347000BFF36F8F00BF00BFFEE700F09FF908B9F0
:10348000059808B9012000E0002050B900BF502085
:1034900080F31188BFF34F8FBFF36F8F00BF00BF62
:1034A000FEE700BFFFF7CAFAA06BE16B884201D3C9
:1034B000022D38D12A4641462046FEF736FD074602
:1034C000A06C68B129462046FEF7FEFE28B34FF0F7
:1034D00080503C490860BFF34F8FBFF36F8F1CE0F3
:1034E000606A08B9012000E0002068B904F12400F6
:1034F00000F082FA88B14FF0805032490860BFF383
:103500004F8FBFF36F8F08E03FB14FF080502D49D0
:103510000860BFF34F8FBFF36F8FFFF7B9FA012039
:1035200007B0BDE8F083059818B9FFF7B1FA00209D
:10353000F6E7B9F1000F04D101A8FFF79FFC4FF0A7
:103540000109FFF7A5FAFFF7FBFCFFF777FA94F9FB
:103550004400401C10B9002084F8440094F9450050
:10356000401C10B9002084F84500FFF791FA05A926
:1035700001A800F0ADF8F0B92046FEF796FEA0B124
:1035800004F110000599FFF7E5FB2046FFF779F8F5
:1035900000F07EFA002885D14FF08050094908607C
:1035A000BFF34F8FBFF36F8F7CE72046FFF769F8BB
:1035B00000F06EFA76E72046FFF763F800F068FA4D
:1035C0000020ADE704ED00E02DE9F05F80468A467B
:1035D00015461E46444654B900BF502080F311885A
:1035E000BFF34F8FBFF36F8F00BF00BFFEE7BAF18D
:1035F000000F01D1206C08B9012000E0002050B973
:1036000000BF502080F31188BFF34F8FBFF36F8F3F
:1036100000BF00BFFEE7022E02D1E06B012801D1FE
:10362000012000E0002050B900BF502080F3118835
:10363000BFF34F8FBFF36F8F00BF00BFFEE7FFF7F1
:1036400091FA00BF5021EFF3118081F31188BFF38D
:103650004F8FBFF36F8F00BF0746A06BE16B8842AF
:1036600001D3022E2BD194F945B032465146204663
:10367000FEF75BFC0BF10100C8B9A06C40B131460C
:103680002046FEF721FEB8B1B5B10120286013E055
:10369000606A08B9012000E0002068B904F1240044
:1036A00000F0AAF940B13DB10120286004E00BF11F
:1036B000010040B284F845004FF0010901E04FF0ED
:1036C000000900BF87F3118800BF4846BDE8F09F9E
:1036D00070B504460D4654B900BF502080F31188E0
:1036E000BFF34F8FBFF36F8F00BF00BFFEE755B929
:1036F00000BF502080F31188BFF34F8FBFF36F8F4F
:1037000000BF00BFFEE7FFF799F912480368286879
:10371000401C08B9002619E00F4920680968884252
:1037200004D06068984201D801260FE06068181A3A
:103730002968884209D228686168591A401A2860A5
:103740002046FFF79BFB002600E00126FFF7A0F9CB
:10375000304670BD280000203C0000202DE9FF4FBE
:1037600085B0804689461746DDE912ABB800FEF702
:10377000D1FF064656B15C20FEF7CCFF04460CB1E3
:10378000266304E03046FFF7A1F900E000247CB195
:103790000020CDE900ABCDE902403A46494640461B
:1037A000089BFEF786FC2046FEF7EAFA012501E0B9
:1037B0004FF0FF35284609B0BDE8F08F054909688C
:1037C00009B9012005E00449096809B9022000E0AF
:1037D00000207047300000204C000020014908689C
:1037E00070470000280000202DE9F0414FF000084C
:1037F00044480068002877D143480068451C424887
:10380000056015BB41480068006808B9012000E068
:10381000002050B900BF502080F31188BFF34F8FB4
:10382000BFF36F8F00BF00BFFEE738480768384816
:103830000068364908603648076036480068401C12
:1038400034490860FEF770FE00BF334800688542C7
:103850003CD300BF2D480068006808B9012000E093
:10386000002020B14FF0FF302B4908602DE02748A1
:103870000068C068C4686668B54202D2264806601F
:1038800023E0201DFFF790F8A06A18B104F118009A
:10389000FFF78AF894F82C10012088401F49096826
:1038A00008431E490860E16A01EB81011C4A02EBF2
:1038B0008100211DFFF7B6F81A49E06A0968C96A54
:1038C0008842C7D34FF00108C4E700BF154800681D
:1038D000C06A00EB8000124951F82000012801D98C
:1038E0004FF0010805E0FFE70F480068401C0E4953
:1038F00008600E48006808B14FF001084046BDE876
:10390000F08100004C00002028000020180000205A
:103910001C0000203C000020440000202C0000205F
:10392000E8000020140000203400002038000020AF
:1039300070B505462C460026002D55D02B48006852
:10394000844201D1012000E0002050B900BF502086
:1039500080F31188BFF34F8FBFF36F8F00BF00BF9D
:10396000FEE7206D50B900BF502080F31188BFF3EF
:103970004F8FBFF36F8F00BF00BFFEE7206D401E6B
:103980002065E16CE06A88422ED0206D60BB201D6E
:10399000FFF70AF878B9E06A00EB8000144951F8A3
:1039A000200040B994F82C10012088401149096882
:1039B000814310480160E06CE062E06AC0F12000E1
:1039C000A06194F82C10012088400A490968084336
:1039D00008490860E16A01EB8101054A02EB8100B8
:1039E000211DFFF71FF80126304670BD140000208E
:1039F000E80000202C00002070B50646F068C4687E
:103A000054B900BF502080F31188BFF34F8FBFF32C
:103A10006F8F00BF00BFFEE704F11800FEF7C4FF80
:103A200015480068A8B9201DFEF7BEFF94F82C10B9
:103A30000120884011490968084310490860E16A7B
:103A400001EB81010E4A02EB8100211DFEF7EAFF26
:103A500004E004F118010B48FEF7E4FF0A49E06AAC
:103A60000968C96A884204D901250120074908600C
:103A700000E00025284670BD4C0000202C000020EE
:103A8000E8000020900300201400002038000020EF
:103A900070B5002400263648006850B900BF502099
:103AA00080F31188BFF34F8FBFF36F8F00BF00BF4C
:103AB000FEE7FEF7C3FF2E480068401E2C49086051
:103AC0000846006800284FD12A48006800284BD0DB
:103AD00024E02948C068C46804F11800FEF764FFB8
:103AE000201DFEF761FF94F82C1001208840234927
:103AF0000968084321490860E16A01EB8101204A15
:103B000002EB8100211DFEF78DFF1E49E06A096866
:103B1000C96A884202D301201B4908601648006820
:103B200008B9012000E000200028D2D00CB1FEF737
:103B3000FBFC1648056865B100BFFFF755FE10B1E4
:103B40000120114908606D1E002DF6D100200F499B
:103B500008600D48006838B1012630070C4908603C
:103B6000BFF34F8FBFF36F8FFEF792FF304670BDEC
:103B70004C00002024000020900300202C00002096
:103B8000E80000201400002038000020340000204D
:103B900004ED00E01CB50024FEF74EF90D48006866
:103BA00050B10D4802210023CA01CDE900100BA13C
:103BB0000C48FFF7D3FD044654B900BF502080F3F2
:103BC0001188BFF34F8FBFF36F8F00BF00BFFEE7B9
:103BD00020461CBD580000205C000020546D72205F
:103BE00053766300692600082DE9FE4304460D461E
:103BF00016461F46DDF828804FF0000954B900BF73
:103C0000502080F31188BFF34F8FBFF36F8F00BF39
:103C100000BFFEE71448006810B3009501960294B7
:103C2000062D15DAFFF7CAFD022808D10023424607
:103C300069460D480068FFF7E3FB814610E000236A
:103C40001A46694608480068FFF7DAFB814607E034
:103C500000233A46694604480068FFF7B5FC8146F0
:103C60004846BDE8FE830000580000204FF00000E9
:103C7000E1EE100A70470000983C000800000020A8
:103C8000A8000000E8010008403D0008A80000204E
:103C900038080200040200080095BA0A000000007B
:103CA00000000000010203040607080900000000EC
:103CB0000000000000000000000000000000000004
:103CC00000000000000000000000000000000000F4
:103CD00000000000000000000000000000000000E4
:103CE00000000000000000000000000000000000D4
:103CF00000000000000000000000000000000000C4
:103D000000000000000000000000000000000000B3
:103D100000000000AAAAAAAA0000000000000000FB
:103D20000000000000000000000000000000000093
:103D30000000000000000000000000000000000083
:04000005080001AD41
:00000001FF
