:020000040800F2
:1000000098360120E1170008B5060008B706000879
:10001000BB060008BF060008C30600080000000079
:10002000000000000000000000000000390200088D
:10003000C7060008000000008D020008D91400085F
:10004000FB170008FB170008FB170008FB17000848
:10005000FB170008FB170008FB170008FB17000838
:10006000FB170008FB170008FB170008FB17000828
:10007000FB170008FB170008FB170008FB17000818
:10008000FB170008FB170008FB170008FB17000808
:10009000B5070008FB170008FB170008FB1700084E
:1000A000FB170008FB170008FB170008FB170008E8
:1000B000FB170008FB170008FB170008FB170008D8
:1000C000FB170008FB170008FB170008FB170008C8
:1000D000FB170008FB170008710A0008FB1700084F
:1000E000FB170008FB170008FB170008FB170008A8
:1000F000FB170008FB170008FB170008FB17000898
:10010000FB170008FB170008FB170008FB17000887
:10011000F50F0008BB110008FB170008FB170008CB
:10012000FB170008FB170008FB170008FB17000867
:10013000FB170008FB170008FB170008530A00080C
:100140002D0A0008FB170008FB170008FB17000822
:10015000FB170008FB170008FB170008FB17000837
:10016000FB170008FB170008FB170008FB17000827
:10017000FB170008FB170008FB170008FB17000817
:10018000FB170008FB17000800F002F800F044F825
:100190000AA090E8000C82448344AAF10107DA45E2
:1001A00001D100F039F8AFF2090EBAE80F0013F0F0
:1001B000010F18BFFB1A43F00103184784D6000053
:1001C000A4D60000103A24BF78C878C1FAD85207E4
:1001D00024BF30C830C144BF04680C6070470000C1
:1001E0000023002400250026103A28BF78C1FBD840
:1001F000520728BF30C148BF0B60704764290AF01E
:10020000038678290AF03C86002070471FB50CF061
:100210002CFC1FBD10B510BD0BF004F91146FFF703
:10022000F5FF00F065F80BF022F903B4FFF7F2FFD9
:1002300003BC01F03FF900002A4B19680868B0E8D8
:10024000F04F80F30988BFF36F8F4FF0000080F309
:10025000118870470000000006480068006880F3BD
:10026000088862B661B6BFF34F8FBFF36F8F00DFB0
:1002700000BF00BF08ED00E0DFF80C00016841F4AA
:1002800070010160704700BF88ED00E0EFF3098066
:10029000BFF36F8F134B1A681EF0100F08BF20EDCD
:1002A000108A20E9F04F106008B44FF0500080F33E
:1002B0001188BFF34F8FBFF36F8F09F01EF84FF017
:1002C000000080F3118808BC19680868B0E8F04F96
:1002D0001EF0100F08BFB0EC108A80F30988BFF33E
:1002E0006F8F704790000020EFF30580704700008B
:1002F0001FB500F015F916E09FED0B0A8DED000A11
:100300009FED090A8DED010A9FED070A8DED020AA6
:100310009FED050A8DED030A684600F059FA142096
:1003200001F026F900BFE7E70000FA4403468B42DC
:1003300001DA08467047934201DD1046FAE7184695
:10034000F8E7F0EE401AF4EEE01AF1EE10FA02D2FD
:10035000B0EE600A7047F4EEC11AF1EE10FA02DD59
:10036000B0EE410AF6E7B0EE610AF3E703468B42CE
:1003700001DA08467047934201DD1046FAE7184655
:10038000F8E703468B4201DA08467047934201DDE5
:100390001046FAE71846F8E7B0EE402A9FED640AE7
:1003A000F0EE401A32EE600AF0EE401AF5EEC01A96
:1003B000F1EE10FA0EDDF4EEC11AF1EE10FA04DDE2
:1003C00030EE810AF0EE400A16E030EEA10AF0EEBF
:1003D000400A11E0B1EE410AF4EEC01AF1EE10FA53
:1003E00006D2B1EE410A30EE800AF0EE400A03E098
:1003F00030EEA10AF0EE400AB0EE600A704790EDD0
:10040000001AB5EEC01AF1EE10FA1CDD90ED001ADC
:10041000B4EEE01AF1EE10FA0ADD30EE201AB0EE7A
:10042000410A90ED001A31EE601A80ED001A2CE0BE
:1004300090ED001A31EE001AB0EE410A9FED3C1A21
:1004400080ED001A21E090ED001AF1EE601AB4EE92
:10045000E11AF1EE10FA0ED2B1EE601A30EE011A86
:10046000B0EE410A90ED001AF1EE601A31EE611A19
:1004700080ED001A09E090ED001A31EE001AB0EE9E
:10048000410A9FED2B1A80ED001A7047704710B596
:10049000A82001F02EF800F017F900F049FB00F059
:1004A00020FE00F0E7FB00F050FC00F0E9FC00F05B
:1004B00033FA00F034FD00F0B7FC00F0E1FE00F08C
:1004C000B5FE00F01BFF47F23051042000F0DCFFC6
:1004D00001F05BFB1FE009F00FF9164908600846C0
:1004E000006815490968884215D3124800686430CD
:1004F000114908601148B0F90000022805DB00200E
:100500000F4908700D49088005E00C480088401C20
:1005100000B20A49088003F076FC0028DBD110BD48
:1005200010B5FFF7B3FF00F010F8FFF7B0FF10BDF4
:100530000000000004000020080000200C00002043
:10054000000000205948006870474FF48060584907
:10055000088048808880C880032008724872002084
:100560004881002152488181C18101744174002079
:100570004F494882704710B509F0BEF832304B49F8
:10058000086010BD4A48007A012807D04848007A20
:10059000032803D04648007A022831D14448407AE3
:1005A000012807D04248407A032803D04048407AC7
:1005B000022825D13E48008840F2946188421FDC21
:1005C0003B480088B0F5B67F1ADB3948408888423E
:1005D00016DC37484088B0F5B67F11DB3448808898
:1005E00088420DDC32488088B0F5B67F08DB3048A1
:1005F000C088884204DC2E48C088B0F5B67F01DA96
:10060000012070470020FCE700B97047017842786C
:1006100041EA0221C1F30A01254A11804178C9103B
:10062000827841EA4211C1F30A01214A518081785E
:100630008911C27841EA8201027941EA8221C1F33B
:100640000A011B4A918001794910427941EAC2119D
:10065000C1F30A01164AD180417909118908117242
:100660004179C1F3011151728179C27941EA0221C4
:1006700009B20F4A5181017A427A41EA02210AB253
:100680000B498A81817AC27A41EA02210AB2084979
:10069000CA81027B0A74427B4A74817BC27B41EA35
:1006A0000221034A518200BFAFE700001000002082
:1006B00004010020704700BFFEE700BFFEE700BF57
:1006C000FEE700BFFEE7704700B58BB0012108468A
:1006D00004F056FF0121480604F09BFF02208DF82C
:1006E000280000208DF82A004FF4C0500990012006
:1006F0008DF82B0003208DF8290009A9834804F008
:10070000A1FC09220B21814804F027FD09220C21BC
:100710007E4804F022FD00208DF81F008DF8200097
:1007200008208DF81C0003208DF81D0000208DF896
:100730001A0001208DF821000320ADF818000020D8
:100740008DF822008DF81B008DF81E008DF8230017
:1007500006A96F4806F0E9F801208DF81500002081
:10076000ADF81000ADF80800ADF80A00ADF80C00C7
:10077000ADF80E008DF813008DF8120001208DF8F1
:10078000140002A806F05BF901220221604806F07D
:1007900055FC14208DF8040001208DF80500002080
:1007A0008DF8060001208DF8070001A804F059FB20
:1007B0000BB000BD00B585B04FF40051554804F0B2
:1007C000BDFC6A460021524806F01DFB05B000BD85
:1007D00010B586B004464FF40070019000208DF8EB
:1007E0000C008DF80D0008208DF80E0094ED000A25
:1007F000BDEEC00A10EE100A000A8DF80F0094ED4D
:10080000000ABDEEC00A10EE100AC1B28DF8101039
:1008100094ED010ABDEEC00A10EE100A010A8DF82F
:10082000111094ED010ABDEEC00A10EE100AC1B21B
:100830008DF8121094ED020ABDEEC00A10EE100AF7
:10084000010A8DF8131094ED020ABDEEC00A10EEF5
:10085000100AC1B28DF8141094ED030ABDEEC00A5F
:1008600010EE100A010A8DF8151094ED030ABDEE82
:10087000C00A10EE100AC1B28DF8161001A9244862
:1008800006F0CCF906B010BD10B586B0044640F2B3
:10089000FF10019000208DF80C008DF80D0008204D
:1008A0008DF80E0094ED000ABDEEC00A10EE100A9D
:1008B000000A8DF80F0094ED000ABDEEC00A10EE9C
:1008C000100AC1B28DF8101094ED010ABDEEC00AF5
:1008D00010EE100A010A8DF8111094ED010ABDEE18
:1008E000C00A10EE100AC1B28DF8121000218DF866
:1008F00013108DF814108DF815108DF8161001A92D
:10090000034806F08BF906B010BD0000000002405D
:10091000006400400008024000B58BB001210220B5
:1009200004F02EFE0121480604F073FE0121880622
:1009300004F06FFE09220C214B4804F00EFC092242
:100940000D21494804F009FC4FF440500290022068
:100950008DF80C0002A9444804F074FB40208DF887
:10096000040001208DF8050000208DF8060001200C
:100970008DF8070001A804F074FA3F208DF80400F8
:1009800001208DF805008DF8060000208DF8070085
:1009900001A804F066FA354805F0AEFF08A806F095
:1009A000CFF800208DF826008DF827008DF828005C
:1009B0008DF829008DF82A0001208DF82B000020E9
:1009C0008DF822008DF8230008208DF824000320E4
:1009D0008DF82500ADF8200008A9244805F0A5FFF2
:1009E0000E208DF81A0000208DF81B0001208DF8D4
:1009F0001C000020ADF81000ADF81200ADF8140096
:100A0000ADF81600ADF8180001208DF81D0004A8FF
:100A100006F015F801220221144806F00FFB01220E
:100A20001146124806F00AFB0BB000BD00B585B0B8
:100A300002210E4806F06AFB48B102210B4806F07D
:100A400000FC6A460021094806F0DDF900BF05B048
:100A500000BD10B50121054806F058FB18B1012171
:100A6000024806F0EEFB10BD0004024000680040A2
:100A700010B500BF40F22441764805F0F3FE00288F
:100A800055D074480088C4B27248001D0088C4B2B2
:100A9000012071490870714806F045FD10BB002126
:100AA0006E4806F0FDFC6D4806F01DFDC0F11E000D
:100AB0006B4908601E206949091D0860674888382D
:100AC000D0F8880040F40020091F08600121634825
:100AD00006F0E6FC62480068122826D16148FFF75C
:100AE00093FD22E000215D4806F0DAFC5B4806F049
:100AF000FAFCC0F11E005A4908601E205749091D22
:100B0000086056488838D0F8880020F40020091F73
:100B100008600121514806F0C3FC514800681228C2
:100B200003D150481E30FFF76FFDFFF724FD10BDC5
:100B300000B597B001214C4804F022FD0121480482
:100B400004F067FD07220321484804F006FB082053
:100B5000159002208DF8580000208DF85A000320CF
:100B60008DF8590001208DF85B0015A93F4804F06D
:100B700069FA384805F096FC3D4811900020ADF820
:100B80004800ADF84A004FF48060ADF84C000420F6
:100B9000ADF84E000020ADF8500011A92D4805F029
:100BA000E8FC01212B4805F06CFD01224021294879
:100BB00005F014FE26208DF8040000208DF80500B5
:100BC0008DF8060001208DF8070001A804F049F90E
:100BD000012240F224411F4805F009FE01211D4871
:100BE00005F04FFD1D4806F07FFB02A806F047FC0C
:100BF0004FF0006002901748001D039019480490C0
:100C0000002005901E200690002007904FF4806081
:100C10000890002009900A904FF480700B90000219
:100C20000C9000200D900E900F90109002A90B4890
:100C300006F0FCFB00220B491E31084806F057FC69
:100C40000121064806F05FFC0121044806F028FC5B
:100C500017B000BD0044004016000020886002402C
:100C600018000020180100200100200000000240B0
:100C7000A086010000B58BB00121084604F080FC7D
:100C80000121022004F0C5FCC020099002208DF84B
:100C9000280003208DF8290009A95F4804F0D2F943
:100CA000022206215C4804F058FA022207215A4821
:100CB00004F053FA5320ADF818000020ADF81A00E4
:100CC00040F6C31007900020ADF8200006A9534855
:100CD00004F043FE7020ADF804000120ADF80600DA
:100CE0000020ADF8080003900220ADF810000020AD
:100CF000ADF81200ADF814004FF48070ADF8160096
:100D000001A9464804F0BEFE0821444805F047F812
:100D100001A9424804F0EFFE0821404805F048F8D8
:100D200001213E4804F084FE01213C4805F08FFA81
:100D300001213A4804F09AFE4FF47A703749343171
:100D40000860091D08600BB000BD00B58BB0012123
:100D5000102004F015FC0121084604F06BFC4FF450
:100D60000060099002208DF8280003208DF82900EA
:100D700009A92B4804F066F901220B21284804F048
:100D8000ECF940F61F50ADF818000020ADF81A003D
:100D900040F2E73007900020ADF8200006A9214876
:100DA00004F0DBFD7020ADF804000120ADF8060072
:100DB0000020ADF8080003900220ADF810000020DC
:100DC000ADF81200ADF814004FF48070ADF81600C5
:100DD00001A9144804F08FFE0821124804F0E8FF2E
:100DE0000121104804F024FE01210E4805F02FFADD
:100DF00001210C4804F03AFE00200A4988630BB038
:100E000000BD00F57A72054B34331A6001F57A7231
:100E10001B1D1A60704700000000024000040040E3
:100E200000100240000001401CB50121042004F024
:100E3000A7FB02208DF807008DF8050001208DF832
:100E400004004FF4D840009069460C4804F0FAF8CA
:100E50004FF48061094804F071F94FF400610748CC
:100E600004F06CF94FF40051044804F067F94FF4B2
:100E70008041024804F062F91CBD000000080240F5
:100E80001CB50121082004F07BFB4FF4007000909A
:100E900001208DF8040000208DF8060003208DF855
:100EA000050000208DF807006946044804F0CAF8E0
:100EB0004FF40071014804F043F91CBD000C0240DE
:100EC00010B5694806F010FA4FF0006067490860F5
:100ED0000020C86066484860664888600020C86096
:100EE00064200861002048614FF480608861002020
:100EF000C86108624FF4807048624FF440308862E5
:100F00000420C862032008630020486388635648B1
:100F100006F08CFA0121544806F0C2FA10BD00B563
:100F200087B00121084604F02BFB0121C80404F01E
:100F300070FB08220021504804F00FF9082201211B
:100F40004D4804F00AF90120019002208DF80800B4
:100F500000208DF80A0003208DF8090001208DF88B
:100F60000B0001A9444804F06DF80220019001A98A
:100F7000414804F067F84FF4E13003900020ADF8E9
:100F80001000ADF81200ADF814000C20ADF81600FA
:100F90000020ADF8180003A93548001F05F0E9FA54
:100FA00001213348001F05F06CFB012240F224416F
:100FB0002F48001F05F01BFC012240212C48001F78
:100FC00005F00CFC012280212948001F05F006FCD9
:100FD000FFF776FF34208DF8000000208DF8010027
:100FE0008DF8020001208DF80300684603F039FFF8
:100FF00007B000BD10B540F224411D48001F05F0A8
:1010000031FCF8B11A48001F00881C4908601848D4
:10101000008808600021144806F042FA124806F0E1
:1010200062FAC0F1640015490860642111480AF0B1
:1010300068F84FF48061124804F082F801210A48F0
:1010400006F02EFA10BD10B5044600BF4021084836
:10105000001F05F0F1FB0028F8D021460448001FCE
:1010600005F03AFB10BD000040600240B8010020CE
:10107000044C004054010020000002401C000020ED
:101080000008024010B5624806F02EF94FF00060EB
:10109000604908600020C8605F4848605F48886019
:1010A0000020C86064200861002048614FF480601F
:1010B00088610020C86108624FF4807048624FF474
:1010C000403088620420C86203200863002048631F
:1010D00088634F4806F0AAF901214D4806F0E0F96F
:1010E00010BD00B587B001210C2004F049FA0121A0
:1010F000080504F08EFA08220C21494804F02DF866
:1011000008220221474804F028F84FF4805001904B
:1011100002208DF8080000208DF80A0003208DF8C9
:10112000090001208DF80B0001A93D4803F08AFF5A
:101130000420019001A93B4803F084FF4FF4E13003
:1011400003900020ADF81000ADF81200ADF81400C7
:101150000C20ADF816000020ADF8180003A92E48A9
:10116000001F05F006FA01212B48001F05F089FA3F
:10117000012240F224412848001F05F038FB0122DB
:1011800040212548001F05F029FB0122802122482B
:10119000001F05F023FBFFF775FF35208DF80000D9
:1011A00000208DF801008DF8020001208DF8030069
:1011B000684603F056FE07B000BD10B540F224416A
:1011C0001548001F05F04EFB80B11348001F008832
:1011D000154908601048001F8088086000210C48ED
:1011E00006F05EF901210A4806F05AF910BD10B563
:1011F000044600BF40210848001F05F01DFB0028E1
:10120000F8D021460448001F05F066FA10BD000022
:1012100010600240BC02002004500040F401002095
:1012200000080240000C02402000002000B587B0FA
:101230000121084604F0A4F90121480704F0E9F966
:101240001020059003208DF8180001208DF81B0058
:1012500005A9804803F0F6FE00200190029003905B
:101260000220049001A9002006F04FFC012100207B
:1012700006F068FC0021084606F0B2FC07B000BD8D
:1012800000B58DB00121042004F07AF90121080293
:1012900004F0D0F901200B9003208DF830000020DD
:1012A0008DF833000BA96C4803F0CCFE0121080235
:1012B00004F015FA00214FF4807004F010FA0020B9
:1012C00007900A9009904FF48030089007A806F024
:1012D00019FA002001908DF808008DF8090003909C
:1012E000059001208DF8180001A95C4806F0DBF993
:1012F00001215A4806F01DFA0DB000BD1CB50121B0
:10130000084604F03DF902208DF807008DF805002D
:1013100001208DF804002420009069464D4803F018
:1013200091FE04214B4803F00BFF2021494803F0B4
:1013300007FF1CBD70B52DED048B044620460BF055
:101340004FF841EC180B9FED460B53EC102B51EC72
:10135000180B0AF0A9FE41EC180B9FED430B53EC60
:10136000102B51EC180B0BF04FF841EC190B9FEDC3
:10137000400B53EC102B0AF097FE41EC180B51EC8C
:10138000180B0AF0E9FF85B22946002006F028FC78
:10139000BDEC048B70BD10B5072301220A212F4834
:1013A00006F007FA2D4806F060FA2C4806F099FA84
:1013B00010BD70B504460025002604E0FFF7EBFFE2
:1013C0000544701CC6B2A642F8DBB5FBF4F080B24F
:1013D00070BD10B52DED048B0A20FFF7EAFF00EE7B
:1013E000100AB8EE400A244880ED000A00680BF0AD
:1013F000CBFA41EC190B9FED210B53EC102B0BF0AA
:1014000003F841EC180B0AF075FD1B49086008460B
:1014100090ED000AF2EE060A20EE200ABDEC048BE5
:1014200010BD10B50024FFF7D4FFF2EE0A0A30EE2B
:10143000600AB2EE051AC0EE010A9FED120A20EE14
:10144000800ABDEEC00A10EE104A002C00DA00241B
:10145000204610BD0000024000080240002001406C
:101460000000000000408F40000000000000B0407D
:101470006666666666660A402400002066666666E2
:1014800066664A3F0000C84270B505460C4645F204
:10149000555006F037FC284606F037FC204606F08B
:1014A00037FC06F038FC06F03BFC70BD10B506F0CA
:1014B00032FC10BD014600BF0020704700BF054A46
:1014C000128802F04002002AF9D0C2B2014B9A8081
:1014D000704770470050004010B53A480068401C03
:1014E0003849086008F069FB012801D009F0D2FBF7
:1014F00010BD70B50446042003F000FD32480470AE
:1015000025464FF47A7045430120304908804FF05A
:10151000E020006940F002004FF0E0210861084639
:101520004561006940F00100086170BD70B5034677
:1015300000224FF0E0267569234E367803FB06F44F
:101540004FF0E026B16910E04FF0E026B069884224
:101550000BD0884202D20E1A324402E02E1A0E44F8
:1015600032440146A24200D300E0EDE700BF70BD67
:1015700070B5044608F021FB012810D013480088FC
:10158000844206D311480088B4FBF0F5284607F0E2
:1015900084FD0E480088B4FBF0F100FB11444FF4C9
:1015A0007A7104FB01F0FFF7C1FF70BD30B504464E
:1015B000002504E04FF47A70FFF7B8FF6D1CA542D8
:1015C000F8D330BD300000202C0000202E00002079
:1015D0000CB50020019000907648006840F48030FF
:1015E0007449086000BF7348006800F40030009040
:1015F0000198401C0190009818B90198B0F5A04FCF
:10160000F1D16C48006800F4003010B10120009066
:1016100001E0002000900098012846D16548403044
:10162000006840F0805063494031086062480068BB
:1016300040F44040604908605E48083000685D49F9
:10164000083108600846006840F400400860084619
:10165000006840F4A05008605848091F0860081F3F
:10166000006840F08070091F086000BF51480068A2
:1016700000F000700028F9D040F205605049086081
:101680004C480830006820F003004A4908310860DF
:101690000846006840F00200086000BF4548083076
:1016A000006800F00C000828F8D10CBD10B54548C2
:1016B000006840F47000434908603E48006840F00C
:1016C00001003C49086000203A4908310860394867
:1016D00000683D490840374908603C48091D0860DA
:1016E000081F006820F48020091F0860002031498D
:1016F0000C310860FFF76CFF4FF000603149803912
:10170000086010BD70B500200022022300240221D1
:10171000284D08352D6805F00C0020B1042806D0AE
:10172000082834D107E02A4D2A4E356033E02A4D8F
:10173000284E35602FE01F4D2D1D2D68C5F38054B8
:101740001C4D2D1D2D6805F03F0154B1224DB5FBF8
:10175000F1F5184E361D3668C6F3881605FB06F2FD
:1017600009E01B4DB5FBF1F5124E361D3668C6F388
:10177000881605FB06F20F4D2D1D2D68C5F301459A
:101780006D1C6B00B2FBF3F5124E356003E0104D9B
:10179000104E356000BF00BF064D08352D68C5F3FB
:1017A00003150E4E705D0B4D2D68C540094E35601A
:1017B00070BD00000038024000700040195440071E
:1017C000003C024088ED00E0FFFFF6FE10300024F0
:1017D0000024F4003400002040787D01380000200F
:1017E0000948804709480047FEE7FEE7FEE7FEE7B5
:1017F000FEE7FEE7FEE7FEE7FEE7FEE704480549F1
:10180000054A064B70470000AD1600088901000824
:10181000983001209836012098320120983201201A
:101820001CB50121022003F0ABFEC0200090012076
:101830008DF8040000208DF8060003208DF80500C7
:1018400000208DF807006946884803F0FBFB012063
:10185000874908608749C1F89C021CBD10B58348C0
:10186000006820F44040814908600846006840F460
:101870008040086001207E49091D08607D49C1F84B
:1018800098020420FFF752FE00207949091D0860E4
:101890000420FFF74BFE00207649C1F8980210BDE6
:1018A00010B57248006820F440407049086008464E
:1018B000006840F48040086000206D4908606D4970
:1018C000C1F89C020420FFF731FE0120684908603E
:1018D0006849C1F89C020420FFF728FE10BD10B52E
:1018E00000246248006820F44040604908600846CF
:1018F0000068086001205E49091D0860FFF716FEB8
:1019000001205C49C1F89802FFF710FE07E0601C57
:10191000C4B2FA2C03DDFFF7C3FF012010BD544809
:101920007C3800680028F2D15149086000BFF5E713
:1019300010B500204E4908604C48006820F4404033
:101940004A4908600846006840F48040086000206A
:101950004849C1F89C020220FFF7E8FD01204449F4
:1019600008600220FFF7E2FD00204249C1F898021A
:1019700010BD10B500203E4908603C48006820F4C6
:1019800040403A4908600846006840F480400860DA
:1019900001203849C1F89C020220FFF7C7FD012051
:1019A000334908600220FFF7C1FD00203149C1F82A
:1019B000980210BD70B504462C48006820F44040E1
:1019C0002A4908600846006840F48040086000200A
:1019D00027490860002517E0E0092549091D08602E
:1019E0006006040E0220FFF7A1FD01202149C1F885
:1019F00098020220FFF79AFD00201D49086002208E
:101A0000FFF794FD681CC5B2082DE5DB70BD70B50D
:101A1000054600241548006820F44040134908603A
:101A2000084600680860002616E00020104908609B
:101A30000220FFF77BFD01200E49C1F898026006E5
:101A4000040E0B487C38006808B1601CC4B2012049
:101A5000FFF76CFD701CC6B2082EE6DB15B9FFF768
:101A600088FF01E0FFF764FF204670BD00040240DC
:101A7000988240420080404270B505460C46FFF710
:101A8000EDFED020FFF796FFFFF729FF18B1FFF713
:101A900007FF012070BD2846FFF78CFFFFF71FFFEF
:101AA0002046FFF787FFFFF71AFF18B1FFF7F8FE90
:101AB0000120EFE7FFF7F4FE0020EBE770B50446E6
:101AC0000025BC2C01DB012510E0622C01DB022586
:101AD0000CE02A2C01DB032508E0142C01DB042593
:101AE00004E00A2C01DB052500E0062529461A2022
:101AF000FFF7C2FF70BD70B50446B4F57A7F01DD13
:101B00004FF47A74042C00DA04244FF47A7090FBBA
:101B1000F4F0401EC5B229461920FFF7ADFF054677
:101B2000264604EBD671C1F34F00FFF7C7FF70BD27
:101B300070B50446FFF792FED020FFF73BFFFFF79A
:101B4000CEFE2046FFF736FFFFF7C9FEFFF786FE01
:101B5000D120FFF72FFFFFF7C2FE0020FFF757FF4E
:101B60000546FFF79DFE284670BD10B50446E00609
:101B7000010E1C20FFF780FF10BD10B50446E006E3
:101B8000010E1B20FFF778FF10BD10B5FFF748FED0
:101B900080216B20FFF770FF6420FFF7E9FC002134
:101BA0006B20FFF769FF0320FFF7E7FF0020FFF737
:101BB000DCFF3220FFF79FFF00213820FFF75CFF9A
:101BC00000216A20FFF758FF00212320FFF754FF70
:101BD00080213720FFF750FF7520FFF7A9FF04464B
:101BE000682C0BD101216B20FFF746FF00216C20F0
:101BF000FFF742FF3220FFF77EFF01E0012010BD1A
:101C00000020FCE72DE9F04106460F4614461D462C
:101C1000FFF724FE002141EA4601C8B2FFF7CAFEE1
:101C2000FFF75DFE20B1FFF73BFE0120BDE8F0812C
:101C30003846FFF7BFFEFFF752FEFFF70FFE012108
:101C400001EB4601C8B2FFF7B5FEFFF748FE0DE015
:101C5000012C04D10020FFF7DAFE287003E00120F8
:101C6000FFF7D5FE2870601EC4B26D1C002CEFD1AA
:101C7000FFF716FE0020D9E710B52DED088B82B0D6
:101C800001AB022241216820FFF7BCFF9DF805004F
:101C90009DF8041040EA012004B220460AF089FBB6
:101CA00041EC1B0B9FED500B53EC102B0AF0FCF991
:101CB00041EC1A0B9FED4E0B53EC102B0AF04CF934
:101CC00041EC190B0AF016F908EE100A9FED4A0ACA
:101CD00028EE000ABDEEC00A10EE100A00B202B0F3
:101CE000BDEC088B10BD2DE9FC4104460D4616469F
:101CF0006B46062243216820FFF784FF0746BFB9E1
:101D00009DF801009DF8001040EA012000B22080FB
:101D10009DF803009DF8021040EA012000B22880DF
:101D20009DF805009DF8041040EA012000B23080C3
:101D30003846BDE8FC812DE9FC4104460D461646B7
:101D40006B4606223B216820FFF75CFF0746BFB9C0
:101D50009DF801009DF8001040EA012000B22080AB
:101D60009DF803009DF8021040EA012000B228808F
:101D70009DF805009DF8041040EA012000B2308073
:101D80003846BDE8FC812DE9F04105460E46174670
:101D90009846FFF763FD002141EA4501C8B2FFF70D
:101DA00009FEFFF79CFD20B1FFF77AFD0120BDE899
:101DB000F0813046FFF7FEFDFFF791FD00240CE0B7
:101DC00018F80400FFF7F6FDFFF789FD18B1FFF7DB
:101DD00067FD0120EBE7601CC4B2BC42F0DBFFF7FB
:101DE0005FFD0020E3E700000000000000407540B8
:101DF000A4703D0AD74342400000C84238B50446AB
:101E0000F74890F82400C0B114B10220009001E01E
:101E100000200090F24A1268D17BF14A5268107893
:101E20006B460122FFF7AFFF10B14FF0FF3038BD16
:101E30009DF80010EA48417423E0E948807A10B91F
:101E40004FF0FF30F3E724B1E548407C08B10020B3
:101E5000EDE714B10120009001E000200090E04A7D
:101E60001268D17BDE4A526810786B460122FFF778
:101E70008AFF10B14FF0FF30D9E79DF80010D84825
:101E800041740020D3E738B500241FE0D44800682F
:101E9000C07AA04204D0D2480068407DA04200D160
:101EA00012E0CF49496808786B4601222146FFF7C6
:101EB000A9FE10B14FF0FF3038BD9DF8002021463B
:101EC000C8A008F06DFF00BF601CC4B2C4484068E1
:101ED0000079A042DADC0020EEE770B504460D463A
:101EE000BF480068C07AA04204D0BD480068407D69
:101EF000A04202D14FF0FF3070BDB9484068007970
:101F0000A04202DC4FF0FF30F6E7B5494968087897
:101F10002B4601222146FFF775FEEDE738B5044652
:101F2000AF4890F82300A04201D1002038BD14B181
:101F30003020009001E000200090A948807C20B172
:101F40009DF8000040F002000090A54890F82200A3
:101F500020B19DF8000040F080000090A04A126877
:101F6000117D9F4A526810786B460122FFF70BFFE4
:101F700010B14FF0FF30D9E7994880F82340002096
:101F8000D4E738B5044604F0700010B10120009089
:101F900005E014B10020009001E040200090904A3C
:101FA0001268917C8E4A526810786B460122FFF7C6
:101FB000EAFE20B100218A488172481E38BD9DF892
:101FC000000020F04001864801730020009004F0DA
:101FD000400020B99DF8000040F00400009004F09B
:101FE000200020B99DF8000040F00200009004F0AD
:101FF000100020B99DF8000040F00100009004F0AE
:10200000080020B99DF8000040F038000090744AA4
:102010001268D17C724A526810786B460122FFF731
:10202000B2FE20B100216E488172481EC6E724B17D
:10203000082C02D00020FFF771FF6948847200214C
:1020400001753220FFF794FA0020B7E738B504464F
:102050006348807CA04201D1002038BD002C46D0CE
:102060005F4A126811795E4A526810786B46012205
:10207000FFF7C8FD10B14FF0FF30EEE79DF800000C
:1020800020F020000090564A12681179544A526894
:1020900010786B460122FFF776FE10B14FF0FF304B
:1020A000DBE70320FFF764FA022000904C4890F829
:1020B000220020B19DF8000040F0800000904848C8
:1020C00090F8230020B19DF8000040F0300000900F
:1020D000434A1268117D424A526810786B460122C9
:1020E000FFF751FE002851D04FF0FF30B5E73C4AD2
:1020F000126811793A4A526810786B460122FFF74C
:1021000081FD10B14FF0FF30A7E73548807A00F02D
:10211000010028B19DF8000040F02000009004E08C
:102120009DF8000020F0200000902D4A12681179DF
:102130002B4A526810786B460122FFF724FE10B13B
:102140004FF0FF3089E70320FFF712FA244890F898
:10215000220010B18020009001E000200090204873
:1021600090F8230020B19DF8000040F0300000906E
:102170001B4A1268117D1A4A526810786B46012278
:10218000FFF701FE10B14FF0FF3066E7144884748A
:10219000002062E708B51248807A10B94FF0FF308E
:1021A00008BD002000900E4A1268D17B0C4A52688C
:1021B00010786B460122FFF7E6FD10B14FF0FF30BB
:1021C000EEE7074A12685179054A526810786B4663
:1021D0000122FFF7D8FD68B14FF0FF30E0E70000C3
:1021E00048000020252335783A20252335780D0A2C
:1021F00000000000F84A12681179F74A5268107816
:102200006B460122FFF7BFFD10B14FF0FF30C7E76B
:10221000F14890F82400002853D00C200090EE4A9A
:1022200012681179EC4A526810786B460122FFF768
:10223000AAFD10B14FF0FF30B2E73220FFF798F956
:10224000C0200090E448807A00F0010020B19DF8A1
:10225000000040F020000090DF4A12681179DE4A49
:10226000526810786B460122FFF78DFD10B14FF0D8
:10227000FF3095E7D848407C10B10220009001E083
:1022800000200090D44A1268D17BD34A526810785B
:102290006B460122FFF777FD10B14FF0FF307FE76B
:1022A00000200090CC4A12685179CB4A52681078CD
:1022B0006B460122FFF767FD002855D04FF0FF3035
:1022C0006EE704200090C44A12681179C24A52682D
:1022D00010786B460122FFF756FD10B14FF0FF302A
:1022E0005EE7BD48807C20B9BB48807A00F00100E1
:1022F00010B94020009001E060200090B64A1268BA
:102300001179B54A526810786B460122FFF73BFD00
:1023100010B14FF0FF3043E73220FFF729F9AE4804
:10232000407C10B10120009001E000200090AA4AFA
:102330001268D17BA84A526810786B460122FFF7D9
:1023400022FD10B14FF0FF302AE7A34A12685179FD
:10235000A14A52681078A04B10330122FFF713FDF9
:1023600010B14FF0FF301BE7002019E770B50446AD
:10237000002624F00104984890F8240008B10020B9
:1023800070BD9548807A10B94FF0FF30F8E7924859
:10239000057C807A2040904908740846007CA04261
:1023A00002D04FF0FF3600E0002614B98A48007DC5
:1023B00018B10120FFF722FD02E00020FFF71EFD0B
:1023C0003CB1FFF7E7FE20B1834805744FF0FF30C2
:1023D000D6E73046D4E738B504467F48807A10B94E
:1023E0004FF0FF3038BDBC2C02DB0120009015E01F
:1023F000622C02DB0220009010E02A2C02DB03207A
:1024000000900BE0142C02DB0420009006E00A2C64
:1024100002DB0520009001E0062000906E48C07AA3
:102420009DF80010884201D10020DBE76A4A12685B
:102430009178694A526810786B460122FFF7A3FC35
:1024400010B14FF0FF30CDE79DF800106248C17227
:102450000020C7E738B50446282C02DD4FF0FF30D6
:1024600038BDDCB90020FFF759FD00208DF80000D1
:1024700007208DF80100584A1268917C564A52682C
:1024800010786B460222FFF77EFC10B14FF0FF3050
:10249000E6E70021504801750020E1E70120FFF741
:1024A0003DFD20208DF80000012C06D100208DF884
:1024B00001000520FFF78FFF17E0052C06DC012047
:1024C0008DF801000520FFF786FF0EE0142C06DCD6
:1024D00002208DF801000A20FFF77DFF05E00320B0
:1024E0008DF801001420FFF776FF9DF80100072109
:1024F00001EB8010C0B28DF80100374A1268917C60
:10250000354A526810786B460222FFF73CFC10B146
:102510004FF0FF30A4E708212F488172002101739A
:10252000012101750020FFF721FF002098E738B551
:1025300004462948807A10B94FF0FF3038BD26484C
:1025400090F8240010B14FF0FF30F7E72248007DEB
:1025500050B134B1282C04DCE0B2FFF77BFF00203F
:10256000ECE70020FFF776FF042C01DA042404E0F6
:10257000B4F57A7F01DD4FF47A744FF47A7090FBF2
:10258000F4F0401EC0B20090134A12685178124A0B
:10259000526810786B460122FFF7F5FB10B14FF03F
:1025A000FF30CBE79DF80000401C4FF47A7191FB9F
:1025B000F0F081B20848C1810146C9894810FFF78F
:1025C0000AFF0020BAE738B504460348807A28B9E4
:1025D0004FF0FF3038BD000048000020022C06D02C
:1025E000042C07D0082C08D0102C0CD108E00020B7
:1025F00000900BE00820009008E01020009005E01B
:102600001820009002E04FF0FF30E3E700BFF748EA
:10261000407A9DF80010B0EBE10F01D10020D9E71E
:10262000F24A1268D179F14A526810786B46012259
:10263000FFF7A9FB10B14FF0FF30CBE79DF800008A
:10264000C110EA4841720020C4E738B50446E748A3
:10265000807A10B94FF0FF3038BDFA2C09D0B4F5AC
:10266000FA7F09D0B4F57A7F09D0B4F5FA6F0CD1AE
:1026700008E0002000900BE00820009008E0102007
:10268000009005E01820009002E04FF0FF30E3E7F3
:1026900000BFD648007A9DF80010B0EBE10F01D1E1
:1026A0000020D9E7D14A12689179D04A526810784F
:1026B0006B460122FFF767FB10B14FF0FF30CBE70D
:1026C0009DF80000C010C94908720020C4E71CB57D
:1026D00080208DF80000C54A1268917CC34A526878
:1026E00010786B460122FFF74EFB10B14FF0FF3020
:1026F0001CBD6420FEF73CFF00208DF80000BB4AA3
:102700001268917CB94A526810786B460122FFF733
:102710003AFB10B14FF0FF30EAE7B44A1268917DFE
:10272000B24A526810786B460622FFF76BFA10B176
:102730004FF0FF30DCE79DF80500C007400F9DF823
:10274000031001F0010140EA41009DF8011001F081
:10275000010140EA010494B1012C03D10121A348F5
:10276000C17431E0022C03D10021A048C1742BE0D8
:1027700021469FA008F014FB4FF0FF30B8E79B4ABA
:102780001268D178994A526810786B460122FFF797
:1027900039FA10B14FF0FF30AAE79DF8000000F0C1
:1027A0000F042CB99C4808F0FBFA4FF0FF309FE76C
:1027B000042C06D199A008F0F3FA01218B48C174CA
:1027C00002E000218948C174FF2188488172FF20FE
:1027D00086490872FF2185484172C1724FF6FF7128
:1027E000C181FF21017481740121017380F82210DD
:1027F000002180F823104175017516300160416099
:102800008160163880F8241080F82510C1844FF4B8
:10281000FA60FFF71AFF10B14FF0FF3068E70220AF
:10282000FFF7D1FE10B14FF0FF3061E72A20FFF72C
:10283000D2FD10B14FF0FF305AE73220FFF777FE9C
:1028400010B14FF0FF3053E70020FFF78FFD10B1BC
:102850004FF0FF304CE70020FFF7F8FB10B14FF0CE
:10286000FF3045E70020FFF78CFB002040E7704772
:102870007CB504460D465D48807A00F0700010B9C2
:102880004FF0FF307CBD594A1268117B574A52689D
:1028900010786B460622FFF7B5F910B14FF0FF3004
:1028A000F0E79DF801009DF8001040EA012000B219
:1028B00020809DF803009DF8021040EA012000B23C
:1028C00060809DF805009DF8041040EA012000B2E8
:1028D000A08015B12846FFF7CAFF0020D2E77CB5DB
:1028E00004460D464148807A00F0080010B94FF0C8
:1028F000FF307CBD3D4A1268517B3C4A52681078DB
:102900006B460622FFF77EF910B14FF0FF30F0E77B
:102910009DF801009DF8001040EA012000B22080DF
:102920009DF803009DF8021040EA012000B260808B
:102930009DF805009DF8041040EA012000B2A08037
:1029400015B12846FFF793FF0020D2E7F8B50646F9
:102950000C462648807A10B94FF0FF30F8BD234A64
:102960001268917B214A526810786B460222FFF769
:1029700049F910B14FF0FF30F0E79DF801009DF8E4
:10298000001040EA012005B214B12046FFF76FFFA6
:1029900016484068B0F9080000EE100AF8EEC00AC8
:1029A00000EE105AB8EEC00A70EE600A0F48406898
:1029B000C08800EE100AB8EE400A80EE801A9FED43
:1029C0001F0A31EE000ADFED1E0A20EE200ABDEEDE
:1029D000C00A86ED000A0020C0E710B588B00446A2
:1029E0001CB94FF0FF3008B010BD2BE048000020AC
:1029F000556E737570706F7274656420736F667452
:102A0000776172652070726F647563742072657689
:102A10002025642E0A000000F0D7000848616C668B
:102A20002073656E73697469766974792070617258
:102A30007420666F756E642E0A00000000000C4260
:102A400000008047206830B9606820B9A06810B9DC
:102A5000002008B010BDF9494968087806AB032288
:102A60001146FFF7CFF810B14FF0FF30F1E79DF8B6
:102A70001800082101EB201000F00F00ADF8000055
:102A80009DF8190001EB201000F00F00ADF80200D6
:102A90009DF81A0001EB201000F00F00ADF80400C3
:102AA00020684100BDF90000403091FBF0F000B219
:102AB000ADF8100060684100BDF90200403091FBA4
:102AC000F0F000B2ADF81200A0684100BDF90400BA
:102AD000403091FBF0F000B2ADF81400D7494968DE
:102AE000087806AB06221146FFF78CF810B14FF0BC
:102AF000FF30AEE79DF819009DF8181040EA01205C
:102B000000B2ADF808009DF81B009DF81A1040EACD
:102B1000012000B2ADF80A009DF81D009DF81C10C0
:102B200040EA012000B2ADF80C00BDF81000BDF87D
:102B30000810084400B2ADF81000BDF81200BDF84E
:102B40000A10084400B2ADF81200BDF81400BDF838
:102B50000C10084400B2ADF81400BDF81000000AD3
:102B60008DF81800BDF81000C0B28DF81900BDF83E
:102B70001200000A8DF81A00BDF81200C0B28DF8DC
:102B80001B00BDF81400000A8DF81C00BDF81400ED
:102B9000C0B28DF81D00A9494968087806AB062225
:102BA0001146FFF7F0F810B14FF0FF3051E7002069
:102BB0004FE70146A148007A30B1012807D002282A
:102BC00009D003280FD10AE0FA2008800EE04FF464
:102BD000FA7008800AE04FF47A70088006E04FF43B
:102BE000FA60088002E00020088000BF00BF0020DB
:102BF000704701469148407A30B1012807D0022839
:102C000008D003280CD108E0022008700BE0042053
:102C1000087008E00820087005E01020087002E045
:102C20004FF0FF30704700BF8448C07C18B108786F
:102C30004006000E08700020F4E701467F48C07A85
:102C4000082817D2DFE800F01704070A0D10131840
:102C5000BC20088013E06220088010E02A20088051
:102C60000DE0142008800AE00A20088007E0052013
:102C7000088004E000BF00BF0020088000BF00BF44
:102C80000020704701466D4890F8240010B14FF0C5
:102C9000FF3070476948C08908800020F9E7014685
:102CA00000200880401E704701464FF0FF307047FB
:102CB00001466248007A30B1012809D002280CD0C0
:102CC000032814D10EE09FED5E0A81ED000A11E0A9
:102CD0009FED5C0A81ED000A0CE09FED5B0A81ED3F
:102CE000000A07E09FED590A81ED000A02E04FF06B
:102CF000FF30704700BF0020FBE701464F48407A95
:102D000030B1012808D002280AD0032810D10BE0E6
:102D10004FF4804008800EE041F69C7008800AE085
:102D20004FF48050088006E04FF40060088002E015
:102D30004FF0FF30704700BF4048C07C10B108889A
:102D4000401008800020F5E701463C48007C0870F0
:102D50000020704701463948807A10B10120087080
:102D600001E0002008700020704738B50446334861
:102D7000807A10B94FF0FF3038BD304A1268117CAC
:102D80002E4A526810786B460222FEF73BFF10B1C4
:102D90004FF0FF30F0E79DF801009DF8001040EA89
:102DA000012000B220800020E6E72DE9FE4F074613
:102DB000884692461D46DDF830B0002600241F48A4
:102DC00090F8240010B1601EBDE8FE8F002028702E
:102DD0001A48807A10B94FF0FF30F5E71748007CA9
:102DE00010B94FF0FF30EFE71448007C00F04000CE
:102DF00008B1B01CC6B21148007C00F0200008B138
:102E0000B01CC6B20D48007C00F0100008B1B01C28
:102E1000C6B20A48007C00F0080008B1B01DC6B276
:102E2000064A1268917A054A526810786B46022267
:102E3000FEF7E8FE60B14FF0FF30C5E74800002024
:102E400000000343000083423333034233338341A2
:102E50009DF801009DF8001040EA0129B14501DA12
:102E60000020B1E7FA4840684088B9EB600F17DDF1
:102E7000F74A1268517CF64A526810786B46012274
:102E8000FEF7C0FE10B14FF0FF309DE79DF8000047
:102E900000F0100020B1FFF77DF96FF0010093E71B
:102EA0005046FFF7E4FCEA4A1268D17AE84A5268D1
:102EB00010786B463246FEF7A5FE10B14FF0FF309A
:102EC00082E799FBF6F0401E8BF800000020287086
:102ED000B4422AD0DE48007C00F0080028B3601C11
:102EE0001DF800001DF8041040EA012000B2A8F807
:102EF0000000E01C1DF80010A01C1DF8000041EAB5
:102F0000002000B2A8F80200601D1DF80010201D6E
:102F10001DF8000041EA002000B2A8F8040028785B
:102F200040F008002870A01D84B2B44213D0C848F5
:102F3000007C00F0400070B1601C1DF800001DF81E
:102F4000041040EA012000B23880287840F04000A8
:102F50002870A01C84B2B44213D0BD48007C00F09D
:102F6000200070B1601C1DF800001DF8041040EA3C
:102F7000012000B27880287840F020002870A01C42
:102F800084B2B44213D0B248007C00F0100070B19B
:102F9000601C1DF800001DF8041040EA012000B27A
:102FA000B880287840F010002870A01C84B200205F
:102FB0000AE7F8B504460F461646A54890F82400DF
:102FC00010B94FF0FF30F8BDA148807A10B94FF02A
:102FD000FF30F8E79E4A1268917A9D4A526810784D
:102FE0006B460222FEF70EFE10B14FF0FF30EAE70B
:102FF0009DF801009DF8001040EA0125A54203DA82
:1030000000203070401EDEE7914840684088B5EBF4
:10301000600F17DD8E4A1268517C8D4A5268107815
:103020006B460122FEF7EEFD10B14FF0FF30CAE70C
:103030009DF8000000F0100020B1FFF7ABF86FF032
:103040000100C0E7E2B2824B1B68D97A804B5B6813
:1030500018783B46FEF7D6FD10B14FF0FF30B2E7CF
:1030600095FBF4F0401E30700020ACE70146784834
:1030700080F82210002070477CB5054674494968E5
:10308000087801AB04220D21FEF7BCFD08B1072032
:103090007CBD9DF80700C0F301109DF8041001F0FD
:1030A000E00140EAE1008DF800009DF80700C0F360
:1030B00081009DF8051001F0E00140EAE1008DF883
:1030C00001009DF8070000F003009DF8061001F0D4
:1030D000E00140EAE1008DF80200002427E01DF83D
:1030E000040030B99FED5B0A05EB840080ED000A17
:1030F0001BE09FED590A05EB840080ED000A0BE010
:1031000005EB840090ED000ADFED540A20EE200A62
:1031100005EB840080ED000A1DF80400401EC0B2DB
:103120000DF804000028EBD100BF601CC4B2032CD2
:10313000D5DB0020ACE7F0B52DED028B83B0064661
:103140000F4600256846FFF797FF002447E056F832
:10315000241057F82420881A002801DB014600E0DB
:10316000414200EE101AB8EEC00ADFED3D0A80EED3
:10317000208A684600EB840090ED000AB5EEC00A94
:10318000F1EE10FA18D0684600EB8400D0ED000A8A
:1031900088EE200AF7EE000A70EE608AB0EEE80AC8
:1031A0003048D0ED090AB4EEE00AF1EE10FA15DD70
:1031B0000120A040054311E02A4890ED070AB4EE33
:1031C000C80AF1EE10FA06DC90ED080AB4EEC80A5F
:1031D000F1EE10FA02D20120A0400543641C032C3A
:1031E000B5DB284603B0BDEC028BF0BDF0B52DED8C
:1031F000048B81B006460F460025154949680878BA
:103200006B4603220D21FEF7FDFC20B1072001B023
:10321000BDEC048BF0BD9DF8000000F01F008DF8A0
:1032200000009DF8010000F01F008DF801009DF8DE
:10323000020000F01F008DF80200002461E056F843
:10324000241057F82420881A00280DDB01460CE0D2
:1032500048000020000000007B14AE3E1D5A843F51
:1032600000008047A8CA0008414200EE101AB8EEDC
:10327000C00A5FED050A80EE208A1DF8040068B3DD
:10328000FE4890ED000AB8EE400ADFEDFD0A80EE40
:10329000801AF0EE418A05E09FEDFA0A28EE800AD6
:1032A000F0EE408A1DF80400401EC0B20DF8040084
:1032B0000028F1D188EE280AF7EE000A30EE609A75
:1032C000B0EEC90AED48D0ED060AB4EEE00AF1EE20
:1032D00010FA15DD0120A040054311E0E74890ED0C
:1032E000040AB4EEC80AF1EE10FA06DC90ED050A05
:1032F000B4EEC80AF1EE10FA02D20120A040054354
:10330000641C032C9BDB284681E72DE9F04F87B036
:1033100005460C46914601208DF8100000208DF8DE
:103320001100D94A1268917CD74A5268107804ABD0
:103330000222FEF728FD20B14FF0FF3007B0BDE8B4
:10334000F08FC820FEF714F900208DF81000CE4A47
:103350001268D17BCC4A5268107804AB0122FEF788
:1033600012FD10B14FF0FF30E8E7C74A12685179FB
:10337000C54A5268107804AB0122FEF704FD10B173
:103380004FF0FF30DAE7C04A1268917CBE4A5268BB
:10339000107804AB0122FEF7F6FC10B14FF0FF30BD
:1033A000CCE7B94A1268D17DB74A5268107804ABAD
:1033B0000122FEF7E8FC10B14FF0FF30BEE7B24A41
:1033C00012681179B04A5268107804AB0122FEF7F6
:1033D000DAFC10B14FF0FF30B0E70C208DF8100090
:1033E000A94A12681179A84A5268107804AB0122E0
:1033F000FEF7C9FC10B14FF0FF309FE70F20FEF73A
:10340000B7F8A148806A407A8DF810009E4A126889
:1034100091789D4A5268107804AB0122FEF7B3FC04
:1034200010B14FF0FF3089E79748806A007A8DF835
:103430001000954A12685178934A5268107804AB8C
:103440000122FEF7A0FC10B14FF0FF3076E7B9F192
:10345000000F07D08C48806A807A40F0E0008DF839
:10346000100004E08848806A807A8DF81000864A4F
:1034700012689179844A5268107804AB0122FEF7F1
:1034800082FC10B14FF0FF3058E7B9F1000F07D0C0
:103490007D48806AC07A40F0E0008DF8100003E0BB
:1034A0007648C07A8DF81000774A1268D179764A4A
:1034B0005268107804AB0122FEF765FC10B14FF0A2
:1034C000FF303BE7B9F1000F02D0C820FEF750F8FB
:1034D00040208DF810006C4A126811796A4A5268CF
:1034E000107804AB0122FEF74EFC10B14FF0FF3014
:1034F00024E778208DF81000634A12685179624AF7
:103500005268107804AB0122FEF73DFC10B14FF079
:10351000FF3013E759498889FEF72AF800208DF813
:103520001000594A12685179574A5268107804AB12
:103530000122FEF728FC10B14FF0FF30FEE6524AA0
:103540001268917A504A5268107804AB0222FEF752
:1035500059FB10B14FF0FF30F0E69DF811009DF8D7
:10356000101040EA012B0C209BFBF0F0C6B20020AB
:10357000A86068602860A06060602060824665E0A6
:10358000414A1268D17A404A5268107804AB0C2242
:10359000FEF738FB10B14FF0FF30CFE69DF8110079
:1035A0009DF8101040EA012000B2ADF808009DF827
:1035B00013009DF8121040EA012000B2ADF80A0095
:1035C0009DF815009DF8141040EA012000B2ADF8F6
:1035D0000C00BDF90810206808442060BDF90A10ED
:1035E000606808446060BDF90C10A0680844A060E1
:1035F0009DF817009DF8161040EA012000B2ADF8C2
:1036000000009DF819009DF8181040EA012000B252
:10361000ADF802009DF81B009DF81A1040EA012049
:1036200000B2ADF80400BDF9001028680844286015
:10363000BDF90210686808446860BDF90410A86804
:103640000844A8600AF1010000F0FF0AB24597DBC8
:103650000A48D0F800C02868C117090441EA10419F
:10366000070462460023384607F075FB3246002304
:10367000CDE9020107F06FFB286007E0A8CA000847
:1036800000B04C4554E3853F48000020F848D0F88E
:1036900000C06868C117090441EA10410704624686
:1036A0000023384607F057FB32460023CDE90201DC
:1036B00007F051FB6860EE48D0F800C0A868C11759
:1036C000090441EA1041070462460023384607F026
:1036D00042FB32460023CDE9020107F03CFBA86023
:1036E000E348D0F804C02168C817000440EA114834
:1036F0000F04624600233846414607F02CFB324651
:103700000023CDE9020107F026FB2060D848D0F85D
:1037100004C06068C117090441EA10410704624609
:103720000023384607F017FB32460023CDE902019B
:1037300007F011FB6060CE48D0F804C0A068C11744
:10374000090441EA1041070462460023384607F0A5
:1037500002FB32460023CDE9020107F0FCFAA0602B
:10376000A068002804DDA068A0F58030A06003E018
:10377000A06800F58030A0600020DFE538B5044681
:10378000BC4890F82400A04201D1002038BD24B3E9
:10379000B84890F8250010B94FF0FF30F6E7002048
:1037A000FEF72CFB0020FEF751FCB249C88CFEF757
:1037B000BEFE00200090AF49496808786B460122A0
:1037C0002321FEF7E0FA0121AA4880F82410012005
:1037D000FEF714FBFEF7DEFC13E00020FEF70EFB05
:1037E000A448007C0090A349496808786B460122F0
:1037F0002321FEF7C8FA00219E4880F82410FEF726
:10380000C9FC0020C2E72DE9F04F8DB083460F467A
:1038100002200C90974890F8240020B10020FFF778
:10382000ADFF012600E0002603A8FFF7C2F905A8B6
:10383000FFF7DFF901A8FFF700FA02A8FFF722FA65
:103840008C4890F80AA004A8FFF77EFA002407E04D
:10385000002239465846FFF758FD00B902E0641CC3
:10386000022CF5DB00BF022C01D1002528E000244A
:1038700007E0012206A909A8FFF747FD00B902E009
:10388000641C022CF5DB00BF022C01D1002517E0DF
:1038900006A93846FFF74FFC00F0FF0809A9584673
:1038A000FFF7A4FC00F0FF090025B9F1000F01D1DA
:1038B00045F00105B8F1000F01D145F0020500BF48
:1038C000FF206C490872FF216A484172C1724FF6AD
:1038D000FF71C181FF218172017401210173BDF863
:1038E0000C00FEF7B2FE9DF81400FEF76CFEBDF86A
:1038F0000400FEF770FDBDF80800FEF718FE504604
:10390000FEF73FFB9DF81000FEF730FD16B10120D9
:10391000FFF734FF28460DB0BDE8F08FF8B5044638
:103920000D46164616B94FF0FF30F8BD5148807A63
:1039300010B94FF0FF30F8E720128DF80000E0B228
:103940008DF801009DF8010028444A4949684989D9
:10395000884202DD4FF0FF30E7E7464A1268117EE9
:10396000444A526810786B460222FEF70CFA10B1F6
:103970004FF0FF30D9E7EAB23E4B1B68597D3D4B13
:103980005B6818783346FEF7FEF910B14FF0FF3050
:10399000CBE70020C9E7F8B504460D46164616B930
:1039A0004FF0FF30F8BD3348807A10B94FF0FF3048
:1039B000F8E720128DF80000E0B28DF801009DF8C4
:1039C000010028442B4949684989884202DD4FF0AB
:1039D000FF30E7E7274A1268117E264A52681078BE
:1039E0006B460222FEF7CFF910B14FF0FF30D9E756
:1039F000EAB2204B1B68597D1E4B5B681878334632
:103A0000FEF700F910B14FF0FF30CBE70020C9E717
:103A10002DE9F04385B005460E4690469946154877
:103A200090F8250020B14FF0FF3005B0BDE8F083DD
:103A300016B94FF0FF30F8E7002428E0281B1028C3
:103A400001DD102000E0281B87B2321939462046DC
:103A5000FFF764FF10B14FF0FF30E6E701AA3946E7
:103A60002046FFF798FF38B14FF0FF30DDE7000048
:103A7000A8CA00084800002030193A4601A907F0FA
:103A8000C7FA10B16FF00100CFE7E01984B2AC4281
:103A9000D4DB4FEA28208DF8000008F0FF008DF8F5
:103AA0000100F74A1268917EF54A526810786B4619
:103AB0000222FEF768F910B14FF0FF30B5E701219F
:103AC000EF4880F82510A0F826900020ADE70146C9
:103AD000EB4890F824000870002070474FF0FF304A
:103AE000704702464FF0FF30704701464FF0FF30FD
:103AF0007047F8B505460F461446002C70D0B5F552
:103B0000FF5F01DDFF2605E0202D01DA012601E03F
:103B1000C5F3471607B90127282C02DD4FF0FF3007
:103B2000F8BDD748407D28BBD54890F8240038B16F
:103B30000020FFF723FE0121D14880F8201003E088
:103B40000021CF4880F82010CD481630FFF731F81B
:103B5000CB481830FFF74DF8C9481A30FFF76DF819
:103B6000C7481C30FFF78EF8C548817A81771F302F
:103B7000FFF7EAF80020FEF741F90020FEF76AFCA3
:103B800000208DF80000BE4A12689178BC4A526845
:103B900010786B460122FEF7F6F810B14FF0FF30B7
:103BA000BEE740208DF80000B54A1268D17BB44AC8
:103BB000526810786B460122FEF7E5F800B165E027
:103BC0008DF800608DF80170AD4A1268117AAC4A28
:103BD000526810786B460222FEF7D5F808B155E01E
:103BE00047E00520FDF7C4FCA548407A072101EB1A
:103BF000C000C0B28DF80000A14A1268D179A04A75
:103C0000526810786B460122FEF7BDF800B13DE026
:103C100020208DF80000012C03D100208DF8010038
:103C20000EE0052C03DC01208DF8010008E0142CC7
:103C300003DC02208DF8010002E003208DF8010072
:103C40009DF80100072101EB8010C0B28DF8010042
:103C50008B4A1268917C8A4A526810786B4602221D
:103C6000FEF791F800B111E001218548417500206F
:103C700056E7834A1632002103E0505C00B105E0AC
:103C8000491C0C29F9D34FF0FF3049E7FF207C494C
:103C90000872FF217A484172C1724FF6FF71C181EB
:103CA000FF2181720174012101730146887FFEF7B3
:103CB00068F97349C88AFEF7C8FC7149087EFEF7A7
:103CC00082FC6F49488BFEF786FB6D49888BFEF7B7
:103CD0002EFC6B49C87FFEF749FB694890F820002D
:103CE00010B10120FFF74AFD002165484175002011
:103CF00016E710B588B002A905A8FFF784FD0446B1
:103D0000032C43D101A8FEF7D3FF9DED050AB8EEC1
:103D1000C00ADDED010A20EE200ABDEEC00A8DEDDD
:103D2000050A9DED060AB8EEC00ADDED010A20EE97
:103D3000200ABDEEC00A8DED060A9DED070AB8EE19
:103D4000C00ADDED010A20EE200ABDEEC00A8DEDAD
:103D5000070A05A800F053FA6846FEF7CEFF0020D8
:103D60000090BDF80010029848430290BDF8001082
:103D7000039848430390BDF800100498484304900A
:103D800002A800F0CFFA002008B010BD0120FBE728
:103D9000014691F90020002A01DD00201EE091F982
:103DA0000020002A01DA042018E091F90120002AFD
:103DB00001DD012012E091F90120002A01DA05203D
:103DC0000CE091F90220002A01DD022006E091F9C1
:103DD0000220002A01DA062000E00720704710B513
:103DE00004462046FFF7D4FF0346E01CFFF7D0FF50
:103DF00043EAC00083B2A01DFFF7CAFF43EA801068
:103E000083B2184610BD70B50024FDF709FDFEF71A
:103E10005EFC002848D17820FEF7B3F8C4B20CB19C
:103E2000012070BD7820FEF7A1FAC4B20CB10220C7
:103E3000F7E76420FEF77BFBC4B20CB10320F0E788
:103E400000F042F9C4B20CB10420EAE70D48FFF7D4
:103E5000C6FF054600F042F9C4B20CB10520E0E708
:103E600040F2731000F08BFDC4B20CB10620D8E70D
:103E7000642000F0EDFAC4B234B10720D1E70000AD
:103E800048000020740000208A48007810B1FFF735
:103E900030FF04460CB10820C3E70120FFF76EFC99
:103EA000C4B20CB10920BCE70020BAE770B52DED13
:103EB0000C8B8EB004460D461646B7EE000AF0EEA7
:103EC000409A9FED7D0AB0EE408A9FED7B0AF0EEAE
:103ED000408A9FED790AB0EE409A07A808A90DAB79
:103EE00003AACDE9001009A90BA800F0A7FE20B194
:103EF00001200EB0BDEC0C8B70BDBDF8200000F4AD
:103F0000807000287ED09DED030AB8EEC00ADFED78
:103F10006B0A80EE201AF0EE419A9DED040AB8EE8D
:103F2000C00ADFED660A80EE201AB0EE418A9DEDF0
:103F3000050AB8EEC00ADFED610A80EE201AF0EE45
:103F4000418A9DED060AB8EEC00ADFED5C0A80EEFC
:103F5000201AB0EE419AB8EE000A28EE000A20EED0
:103F6000090AF0EE000A69EEA00A00EEA80A10EEB7
:103F7000101A084608F008FD41EC1C0BB0EE4C0A84
:103F8000F0EE6C0A07F094FAB0EE40BAF0EE60BAC8
:103F90009FED4B0B53EC102B51EC1B0B08F034FA3C
:103FA00041EC1A0B07F0A6FF2060B8EE000A28EEDD
:103FB000000A20EE080AF0EE000A68EEA00A00EE01
:103FC000E80AF7EE000A30EE200A10EE101A084652
:103FD00008F0DAFC41EC1C0BB0EE000A28EE800A77
:103FE00020EE090AF0EE000A69EEA00A00EE880A47
:103FF00010EE101A084608F0C7FC41EC1D0BB0EE9D
:104000004C1A00E052E0F0EE6C1AB0EE4D0AF0EE01
:104010006D0A07F069FDB0EE40BAF0EE60BA9FEDB0
:10402000280B53EC102B51EC1B0B08F0EDF941EC75
:104030001A0B07F05FFF286029EEA90A08EE080AAC
:1040400008EEE80A09EE490A10EE101A084608F0D0
:104050009BFC41EC1C0B28EE280A09EE890AF0EEC5
:10406000000A20EE200A10EE101A084608F08CFC18
:1040700041EC1D0BB0EE4C1AF0EE6C1AB0EE4D0A8E
:10408000F0EE6D0A07F030FDB0EE40BAF0EE60BA27
:104090009FED0B0B53EC102B51EC1B0B08F0B4F9FC
:1040A00041EC1A0B07F026FF306001E0022020E708
:1040B00000201EE700000020000000000000804EED
:1040C0006666666666A64C4010B5C8234FF48062EB
:1040D000F74940F6F630FFF79BFC10BD10B586B0EF
:1040E0000446F4A000680390F3A000680290F3A0D7
:1040F00000680190F2A00068009004F0030003A99A
:10410000085C8DF8140003A8C4F3C101405C8DF86D
:10411000150003A8C4F38111405C8DF8160004F06B
:10412000030002A9085C8DF8100002A8C4F3C101C5
:10413000405C8DF8110002A8C4F38111405C8DF839
:10414000120005AA032140F22640FFF7E7FB18B151
:104150004FF0FF3006B010BD04AA032140F22A4000
:10416000FFF7DCFB10B14FF0FF30F3E7019805904B
:104170000098049004F0040058B19DF8140040F039
:1041800001008DF814009DF8100040F001008DF83A
:10419000100004F0200058B19DF8150040F0010017
:1041A0008DF815009DF8110040F001008DF8110008
:1041B00004F4807058B19DF8160040F001008DF8AD
:1041C00016009DF8120040F001008DF8120005AABB
:1041D00003214FF48860FFF7A1FB10B14FF0FF30CF
:1041E000B8E704AA032140F23140FFF797FB10B172
:1041F0004FF0FF30AEE7B34804810020AAE71FB5B7
:104200000446B048007A00F0030054F82000019002
:10421000AC48007A00F0040010B1019840420190CF
:10422000A848007AC0F3C10054F820000290A548C5
:10423000007A00F0200010B1029840420290A1489C
:10424000007AC0F3811054F8200003909D48008943
:1042500000F4807010B10398404203909A4901988D
:1042600080FB0101800F40EA81000190964902988D
:1042700080FB0110820042EA9170029092490398FB
:1042800080FB0110820042EA917003900198000EB9
:104290008DF800000198000C8DF801000198000ACB
:1042A0008DF802000198C0B28DF803006A4604211F
:1042B0004FF47470FFF732FB18B14FF0FF3004B0C9
:1042C00010BD0298000E8DF800000298000C8DF8C9
:1042D00001000298000A8DF802000298C0B28DF821
:1042E00003006A4604214FF47570FFF717FB10B105
:1042F0004FF0FF30E3E70398000E8DF800000398BD
:10430000000C8DF801000398000A8DF80200039854
:10431000C0B28DF803006A4604214FF47670FFF7AF
:10432000FDFACCE770B588B0064601A8FEF7E5FCBB
:10433000BDF804000021C90341EA5045C4036148A7
:10434000007A00F0030056F8200005905D48007ADE
:1043500000F0040010B10598404205905948007AD9
:10436000C0F3C10056F8200006905648007A00F0CD
:10437000200010B10698404206905248007AC0F3DF
:10438000811056F8200007904E48008900F4807094
:1043900010B10798404207900598C117A0FB04236D
:1043A00001FB043100FB0510810041EA9270059089
:1043B0000698C117A0FB042301FB043100FB051084
:1043C000810041EA927006900798C117A0FB042370
:1043D00001FB043100FB0510810041EA9270079057
:1043E0000598000E8DF808000598000C8DF809005E
:1043F0000598000A8DF80A000598C0B28DF80B00E8
:104400000698000E8DF80C000698000C8DF80D0033
:104410000698000A8DF80E000698C0B28DF80F00BD
:104420000798000E8DF810000798000C8DF8110009
:104430000798000A8DF812000798C0B28DF8130093
:1044400002AA0C214FF42570FFF768FA08B070BD7E
:1044500030B585B004461DA207CA02AB07C3C82CFD
:1044600003DD4FF0FF3005B030BDC82090FBF4F005
:10447000401E85B2280A8DF80000E8B28DF80100D0
:104480006A46022140F21620FFF748FA10B14FF0B9
:10449000FF30E8E702AA0C2140F6C120FFF73EFA00
:1044A00010B14FF0FF30DEE7064884810020DAE7E4
:1044B000D0CA00084CCD6C000CC92C0036567600D2
:1044C00026466600F802002009E3CA02FEF2ABC4E9
:1044D000AAF1DFDFBBAFDFDF0146F9488089088042
:1044E00000207047F0B52DED028B83B006460F46D5
:1044F00006F0070010B1B7F5C86F05DD4FF0FF30CB
:1045000003B0BDEC028BF0BD00EE107AB8EE400AAD
:10451000DFEDEC0A80EE208A01A8FEF76AFB9DF829
:104520000400022806D0042817D0082828D0102814
:104530004CD138E09FEDE40A28EE000ABCEEC00A38
:1045400010EE100A84B29FEDE10A28EE000ABCEEDC
:10455000C00A10EE100A85B23BE09FEDDD0A28EE9E
:10456000000ABCEEC00A10EE100A84B29FEDD90A10
:1045700028EE000ABCEEC00A10EE100A85B228E050
:104580009FEDD50A28EE000ABCEEC00A10EE100A14
:1045900084B29FEDD20A28EE000ABCEEC00A10EEEB
:1045A000100A85B215E09FEDCE0A28EE000ABCEE97
:1045B000C00A10EE100A84B29FEDCA0A28EE000A63
:1045C000BCEEC00A10EE100A85B202E04FF0FF30D8
:1045D00096E700BF20128DF80800E0B28DF80900C0
:1045E00028128DF80A00E8B28DF80B0006F00100E1
:1045F000A0B102AA02214FF4EA70FFF78FF910B1BF
:104600004FF0FF307CE70DF10A0202214FF4927067
:10461000FFF784F910B14FF0FF3071E706F00200A8
:10462000A0B102AA02214FF4EC70FFF777F910B1A4
:104630004FF0FF3064E70DF10A0202214FF494704D
:10464000FFF76CF910B14FF0FF3059E706F00400A6
:10465000A0B102AA02214FF4EE70FFF75FF910B18A
:104660004FF0FF304CE70DF10A0202214FF4967033
:10467000FFF754F910B14FF0FF3041E700203FE75A
:1046800038B504460020009004F0010020B19DF8E8
:10469000000040F03000009004F0020020B19DF8CE
:1046A000000040F00C00009004F0040020B19DF8E0
:1046B000000040F0030000906A4601214FF4A4700E
:1046C000FFF72CF938BD38B50446012C01DA012476
:1046D00002E0042C00DD0424601EC0B200906A4693
:1046E000012140F24F10FFF719F938BD38B50446E3
:1046F000052094FBF0F085B228128DF80000E8B296
:104700008DF801006A4602214FF4EF70FFF706F9B9
:1047100038BD38B50446052094FBF0F085B2281268
:104720008DF80000E8B28DF801006A4602214FF4CE
:10473000ED70FFF7F3F838BDF8B505460E464FF4B7
:104740007A7095FBF0F000FB06F4200E8DF8000067
:10475000200C8DF80100200A8DF80200E0B28DF8DF
:1047600003006A4604214FF4AE70FFF7D7F8F8BD96
:1047700038B50446052094FBF0F084B220128DF881
:104780000000E0B28DF801006A4602214FF4AD70DE
:10479000FFF7C4F838BD38B50446052094FBF0F0A7
:1047A00084B220128DF80000E0B28DF801006A4654
:1047B00002214FF4AC70FFF7B1F838BD38B50446AC
:1047C00014B94FF0FF3038BD6A4604214FF45870D9
:1047D000FFF7E1F810B14FF0FF30F4E79DF800006B
:1047E00000069DF8011040EA01409DF8021040EAE1
:1047F00001209DF80310084320600020E3E738B54E
:104800000446200E8DF80000200C8DF80100200ACF
:104810008DF80200E0B28DF803006A4604214FF4DF
:104820005870FFF77BF838BD38B5044614B94FF01F
:10483000FF3038BD6A4604214FF47170FFF7ABF8C2
:1048400010B14FF0FF30F4E79DF8000000069DF82E
:10485000011040EA01409DF8021040EA01209DF855
:104860000310084300EB8000800020600020E0E798
:1048700038B504461420B4FBF0F4200E8DF8000087
:10488000200C8DF80100200A8DF80200E0B28DF8AE
:1048900003006A4604214FF47170FFF73FF838BDFA
:1048A00038B5044604B320208DF8000028208DF888
:1048B000010030208DF8020038208DF8030018E048
:1048C000F8020020000048430000804600004046F7
:1048D000000000460000C045000080450000404543
:1048E000000000450000C044A3220421684606F0F1
:1048F00000FC6A46042140F69E20FFF70FF8FDF702
:1049000049FC38BD38B5044664B1C0208DF80000BC
:10491000C2208DF80100C4208DF80200C6208DF859
:10492000030004E08B220421684606F0E2FB6A469D
:10493000042140F69820FEF7F1FFFDF72BFC38BD6F
:104940003EB504466CB1FDA1D1E900208968CDE9EE
:10495000002002916A4609214FF49760FEF7DEFFBE
:104960003EBDF9A2D2E900109268CDE901020091A2
:104970006A4609214FF49760FEF7D0FFF0E73EB595
:10498000044602208DF80000CA208DF80100E320C3
:104990008DF8020009208DF803006A460421682082
:1049A000FEF7BCFFA3208DF8000004F0400048B1E2
:1049B000C0208DF80100C8208DF80200C2208DF8BB
:1049C000030006E0A3208DF801008DF802008DF8A9
:1049D000030004F4C07048B1C4208DF80400CC205A
:1049E0008DF80500C6208DF8060006E0A3208DF89E
:1049F00004008DF805008DF80600A3208DF807004F
:104A00008DF808008DF809006A460A2140F6A720B3
:104A1000FEF784FF04F0030018B120208DF8000099
:104A200002E0D8208DF800006A46012140F6B62049
:104A3000FEF774FF04F0200018B10120FFF780FF9B
:104A400002E00020FFF77CFF04F4C07008B304F418
:104A5000807060B1B2208DF800008B208DF80100CD
:104A6000B6208DF802009B208DF803000BE0B020EB
:104A70008DF8000080208DF80100B4208DF8020030
:104A800090208DF803006A46042140F6A220FEF72C
:104A900045FF04F0010020B3F8208DF800006A46BD
:104AA00001214FF40B60FEF739FFFA210720FFF7D1
:104AB00019FD0720FFF7E4FD0120FFF704FE642045
:104AC000FFF714FE4FF4FA70FFF723FEC821A14848
:104AD000FFF732FE2820FFF74BFE0A20FFF75BFEB0
:104AE00008E0D8208DF800006A4601214FF40B60E1
:104AF000FEF714FF04F0020018B1D9208DF8000071
:104B000002E0D8208DF800006A46012140F23D7095
:104B1000FEF704FF04F0040018B10120FFF7F2FED5
:104B200002E00020FFF7EEFE04F0100018B10120B3
:104B3000FFF7B6FE02E00020FFF7B2FE44F00800E7
:104B400085494881FDF726FB00208349887304F0DE
:104B5000400018B10846807B801D887304F4C07043
:104B600020B17D48807B801D7B49887304F0140050
:104B700020B17948807B10307749887304F00300B6
:104B800020B17548807B001D7349887300203EBDAD
:104B90000146714840890880002070472DE9F041A6
:104BA0000446E07800F0C006E07800F03F05607849
:104BB00000F0010098B1EF102846E91705EB51719C
:104BC000C910A5EBC101491C01F0FF08624800684B
:104BD00020B16148414602683846904700BF60787E
:104BE00000F0080030B15C48406818B1B0115A4A72
:104BF000516888470020BDE8F08110B586B00446B2
:104C000056A207CA03AB07C357A207CA8DE807001D
:104C1000012C09D0022C0ED103AA0B2140F68220D0
:104C2000FEF77CFE06B010BD6A460B2140F68220DE
:104C3000FEF774FEF6E74FF0FF30F3E72DE9F04F93
:104C40008DB00746884615469946DDE9166B002467
:104C5000002030804049887B5A4605A9FEF7A9F913
:104C600018B1601E0DB0BDE8F08F3B48807A00F0AF
:104C70001400002861D09DF8140000069DF815105E
:104C800040EA01409DF8161040EA01209DF81710F7
:104C9000084328609DF8180000069DF8191040EAA6
:104CA00001409DF81A1040EA01209DF81B100843AE
:104CB00068609DF81C0000069DF81D1040EA014048
:104CC0009DF81E1040EA01209DF81F100843A860BF
:104CD0009DF8200000069DF8211040EA01409DF853
:104CE000221040EA01209DF823100843E86004F1F7
:104CF0001000C4B228680014019068680014029083
:104D0000A86800140390E8680014049001984043D8
:104D1000029901FB0100039901FB0100049901FBC9
:104D2000010ABAF1706F02DBBAF1885F22DDFDF78C
:104D300031FA00203080401E94E721E0B8AAB38DFC
:104D4000B4980D355D000000B8AAAAAAB088C3C502
:104D5000C700000009E3CA02F8020020D8B1B9F385
:104D60008BA391B609B4D900DAB1B9F38BA391B68C
:104D7000DAB4DA00B6F9000040F48070308000BF89
:104D80003448807A00F0400020B305A9601C085C1C
:104D9000095D40EA012000B2A8F8000005A9E01C66
:104DA000095C05AAA01C105C41EA002000B2A8F82A
:104DB000020005A9601D095C201D105C41EA00206D
:104DC00000B2A8F80400A01DC4B2B6F9000040F07B
:104DD000080030801F48408900F4C07008B305A95E
:104DE000601C085C095D40EA012000B2388005A91A
:104DF000E01C095C05AAA01C105C41EA002000B27E
:104E0000788005A9601D095C201D105C41EA002026
:104E100000B2B880A01DC4B2B6F9000040F0700026
:104E200030800C48807A00F0030018B105A90819F9
:104E3000FFF7B4FE4846FDF71AFD002012E70146D1
:104E4000044801600020704701460248416000208C
:104E500070470000F802002032490143324A1160D5
:104E6000704770B5002100230F22C4781CB32E4C6C
:104E7000246804F4E064C4F5E064C4F30721C1F1DC
:104E80000404E3B20A4144789C40E1B284781440BF
:104E900021430C07210E254C05786155047804F058
:104EA0001F050124AC4005786D11AD0005F1E0252A
:104EB000C5F8004109E0047804F01F050124AC4066
:104EC0001B4D0678761145F8264070BD194A0A40F8
:104ED0000243154B1B1F1A60704739B1124A121D4D
:104EE00012680243104B1B1D1A6006E00E4A121D89
:104EF000126882430C4B1B1D1A607047042808D1AE
:104F00004FF0E021096941F004014FF0E022116106
:104F100007E04FF0E021096921F004014FF0E022A1
:104F2000116170470000FA050CED00E000E400E0BC
:104F300080E100E080FFFF1F10B5044698488442DE
:104F400008D10121084600F086FB0021012000F075
:104F500082FB76E09348844208D10121022000F0D0
:104F60007AFB0021022000F076FB6AE08E48844242
:104F700008D10121042000F06EFB0021042000F084
:104F80006AFB5EE08948844208D10121082000F0D4
:104F900062FB0021082000F05EFB52E0844884425E
:104FA00008D10121102000F056FB0021102000F054
:104FB00052FB46E07F48844208D10121202000F0C6
:104FC0004AFB0021202000F046FB3AE07A48844268
:104FD00008D10121402000F03EFB0021402000F0DC
:104FE0003AFB2EE07548844208D10121802000F070
:104FF00032FB0021802000F02EFB22E0704884422A
:1050000008D10121801500F026FB0021A01500F039
:1050100022FB16E06B48844208D10121401500F0C4
:105020001AFB0021601500F016FB0AE06648844276
:1050300007D10121001500F00EFB0021201500F022
:105040000AFB10BDF0B50A4600210023002400BF72
:105050003DE0012505FA01F3156805EA03049C42C9
:1050600034D105684F000326BE40B543056015796D
:105070004E00B5400668354305601579012D02D014
:105080001579022D16D185684F000326BE40B54321
:10509000856055794E00B540866835438560456822
:1050A00001268E40B5434560456896798E40B6B27C
:1050B00035434560C5684F000326BE40B543C56013
:1050C000D5794E00B540C6683543C560491C1029E6
:1050D000BFD3F0BD4FF6FF71016000210171417136
:1050E0008171C171704708B54FF480320092009A07
:1050F0000A430092009AC261C161009AC261C2690A
:105100000092C269009208BD0246002013690B405C
:105110000BB1012000E0002070470146086980B211
:1051200070470246002053690B400BB1012000E09C
:10513000002070470146486980B27047018370477C
:10514000418370470AB1018300E0418370474161A8
:10515000704742694A4042617047F0B5002300241D
:105160004D07ED0E02FA05F3CE1000F1200555F8BB
:1051700026504E07F70E0F26BE40B543CF1000F164
:10518000200646F82750CE1000F1200555F826508D
:1051900045EA0304CE1000F1200545F82640F0BD95
:1051A000000002400004024000080240000C0240DF
:1051B000001002400014024000180240001C02408F
:1051C000002002400024024000280240F948006804
:1051D00040F00100F74908600020F64908310860F6
:1051E000F4480068F4490840F2490860F348091D92
:1051F0000860F348EF4984310860F0481038091D11
:105200000860EC48006820F48020EA49086000202B
:10521000E8490C310860E7498C310860704700218B
:10522000E44A921C117011460870704710B501468F
:105230000022002300204A11012A02D1DD4C2368FC
:1052400008E0022A03D1DB4C7034236802E0D94C19
:105250007434236801F01F02012494401C400CB1F7
:10526000012000E0002010BD38B50020009000248F
:10527000002500BF3120FFF7D9FF05460098401CEC
:1052800000900098B0F5A04F01D0002DF2D0312051
:10529000FFF7CCFF08B1012400E00024204638BD10
:1052A00001460020C34A106820F0F80040EAC1001F
:1052B00010607047C349086070470021BD4A7032D2
:1052C00011701170012802D004280AD104E00121D4
:1052D000B84A7032117005E00521B64A703211707B
:1052E00000E000BF00BF7047B7490860704770B565
:1052F000049C41EA82150126C6EB530645EA0645A1
:10530000054345EA0465AB4E361D356070BDAD49B9
:1053100008667047820142EA0172A64B84331A6024
:105320007047A8498866704710B5830143EA016356
:1053300043EA02739F4C8834236010BDA14908677B
:105340007047A049C864704702460020994B083353
:10535000186820F0EC6042EA01031843954B0833CB
:105360001860704702460020924B0833186820F0FE
:10537000784042EA010318438E4B083318607047A7
:10538000014600208B4A0832106820F003000843D1
:105390001060704787480830006800F00C007047C4
:1053A00001460020834A0832106820F0F0000843CC
:1053B00010607047014600207E4A0832106820F4D1
:1053C000E05008431060704701460020794A0832D7
:1053D000106820F4604040EAC10010607047F0B5EA
:1053E000002100220024022500260223714F0837E5
:1053F0003F6807F00C0121B1042905D0082937D1F5
:1054000005E0724F076036E0714F076033E0694F87
:105410003F1D3F68C7F38056664F3F1D3F6807F04A
:105420003F036EB16A4FB7FBF3F7DFF888C10CF1A9
:10543000040CDCF800C0CCF3881C07FB0CF40CE077
:10544000624FB7FBF3F7DFF86CC10CF1040CDCF82A
:1054500000C0CCF3881C07FB0CF4564F3F1D3F687F
:10546000C7F301477F1C7D00B4FBF5F7076002E03E
:10547000564F076000BF00BF4E4F08373F6807F028
:10548000F0010909534F7A5C0768D7404760494FDC
:1054900008373F6807F4E051890A4E4F7A5C476845
:1054A000D7408760434F08373F6807F46041490B96
:1054B000484F7A5C4768D740C760F0BD002100F4D0
:1054C0004072B2F5407F0AD13A4A0832116821F49D
:1054D000F811414A02401143364A08321160354AF8
:1054E00070321268C0F30B031A43324B70331A60E8
:1054F000704735494439086070473349403908607E
:10550000704736490860704701460020294A8C32AE
:10551000106820F01F004A1E1043264A8C3210608B
:10552000704701460020234A8C32106820F4F8505E
:105530004A1E40EA02201F4A8C3210607047014622
:1055400000201C4A8C32106820F440100843106080
:10555000704701460020174A8C32106820F4400042
:1055600008431060704701460020124A8C321068D0
:1055700020F44030084310607047194908607047B4
:1055800039B10C4A3032126802430A4B30331A6088
:1055900006E0084A303212688243064B30331A6004
:1055A0007047F9B1034A343212680243014B343375
:1055B0001A601CE000380240FFFFF6EA10300024B9
:1055C0000030002000004742800E47420024F400D3
:1055D00040787D017D000020FFFCFF0F5C01474209
:1055E000E0114742854A12688243844B1A60704733
:1055F00039B1824A121D12680243804B1B1D1A608A
:1056000006E07E4A121D126882437C4B1B1D1A6005
:10561000704739B1794A0C3212680243774B0C3328
:105620001A6006E0754A0C3212688243734B0C33E1
:105630001A60704739B1714A1032126802436F4BD9
:1056400010331A6006E06D4A1032126882436B4BC9
:1056500010331A60704739B1684A243A126802431D
:10566000664B243B1A6006E0644A243A126882437F
:10567000624B243B1A60704739B1604A203A126885
:1056800002435E4B203B1A6006E05C4A203A1268F7
:1056900082435A4B203B1A60704739B1574A1C3A33
:1056A00012680243554B1C3B1A6006E0534A1C3AF1
:1056B00012688243514B1C3B1A60704739B14F4A04
:1056C000143A126802434D4B143B1A6006E04B4AF1
:1056D000143A12688243494B143B1A60704739B13F
:1056E000464A103A12680243444B103B1A6006E0E7
:1056F000424A103A12688243404B103B1A6070478E
:1057000039B13E4A1C32126802433C4B1C331A60CA
:1057100006E03A4A1C3212688243384B1C331A6046
:10572000704739B1354A203212680243334B203377
:105730001A6006E0314A2032126882432F4B203330
:105740001A60704739B12D4A2432126802432B4B3C
:1057500024331A6006E0294A243212688243274B18
:1057600024331A60704739B1244A2C32126802433C
:10577000224B2C331A6006E0204A2C3212688243F6
:105780001E4B2C331A60704739B11C4A30321268F4
:1057900002431A4B30331A6006E0184A303212685E
:1057A0008243164B30331A60704739B1134A273A97
:1057B00012780243114B273B1A7006E00F4A273A32
:1057C000127882430D4B273B1A7070470B484030CC
:1057D000006840F080700949403108607047014618
:1057E0000020064A283A12680A400AB1012000E067
:1057F000002070470149263908707047343802404C
:1058000010B50446FE48844208D101210846FFF73E
:1058100066FF00210120FFF762FF9DE0B4F1804F99
:1058200008D101210846FFF749FF00210120FFF7B9
:1058300045FF91E0F348844208D101210220FFF79F
:105840003DFF00210220FFF739FF85E0EE4884424A
:1058500008D101210420FFF731FF00210420FFF7C8
:105860002DFF79E0E948844208D101210820FFF7A3
:1058700025FF00210820FFF721FF6DE0E448844266
:1058800008D101211020FFF719FF00211020FFF798
:1058900015FF61E0DF48844208D101212020FFF795
:1058A0000DFF00212020FFF709FF55E0DA48844270
:1058B00008D101210220FFF712FF00210220FFF78B
:1058C0000EFF49E0D548844209D101210804FFF7C1
:1058D00006FF00214FF48030FFF701FF3CE0D04885
:1058E000844209D101214804FFF7F9FE00214FF459
:1058F0000030FFF7F4FE2FE0CA48844209D10121AD
:105900008804FFF7ECFE00214FF48020FFF7E7FE4C
:1059100022E0C548844208D101214020FFF7CEFE95
:1059200000214020FFF7CAFE16E0C048844208D19B
:1059300001218020FFF7C2FE00218020FFF7BEFE7C
:105940000AE0BB48844207D101218015FFF7B6FE6B
:105950000021A015FFF7B2FE10BD00220288A84B5F
:1059600098420ED0AC4B98420BD0B0F1804F08D08B
:10597000A44B984205D0A44B984202D0A34B984226
:1059800004D14FF68F731A404B881A43A04B9842AC
:1059900007D0A04B984204D04FF6FF431A400B8922
:1059A0001A4302804B68C3620B880385944B98426C
:1059B00002D0994B984201D18B7A038601238382CE
:1059C00070474FF0FF31416000210180018141802B
:1059D000817270470185828270470A4600210188E2
:1059E0004FF68F7319401143018070474162704731
:1059F000C16270470146486A70470146088D70478A
:105A000021B1028842F00202028004E002884FF6CF
:105A1000FD731A400280704721B1028842F00402EF
:105A2000028004E002884FF6FB731A400280704740
:105A300021B1028842F08002028004E002884FF621
:105A40007F731A400280704702884FF6F7731A403E
:105A5000028002880A430280704702884FF6FF43A3
:105A60001A40028002880A430280704721B10288EE
:105A700042F00102028004E002884FF6FE731A40F1
:105A80000280704770B5002400220023058C4FF679
:105A9000FE7635400584028C8388048B4FF68F7523
:105AA0002C40B51E2C400D882C43751E2A408D8934
:105AB0002A434D882A43524DA84202D0564DA8424F
:105AC00013D14FF6F7752A40CD892A434FF6FB755F
:105AD0002A408D882A434FF6FF652B404FF6FF552D
